:10000000F8C0000027C1000025C1000023C1000086
:1000100021C100001FC100001DC100001BC1000064
:1000200019C1000017C1000015C1000013C1000074
:1000300011C100000FC100000DC100000BC1000084
:1000400009C1000007C1000005C1000003C1000094
:1000500001C10000FFC00000FDC000000C94132986
:10006000F9C000000C94362C0C946C2CF3C00000EA
:10007000F1C00000EFC00000EDC00000EBC00000C8
:10008000E9C00000E7C00000E5C00000E3C00000D8
:100090000C94C22C0C94F82CDDC00000DBC00000D6
:1000A000D9C00000D7C00000D5C00000D3C00000F8
:1000B000D1C00000CFC00000CDC00000CBC0000008
:1000C000C9C00000C7C000000C9474250C944E2DCC
:1000D0000C94842DBFC000000C94DA2D0C94102ECB
:1000E000B9C0000000000A0B02090C0D0E0807033E
:1000F00004010000000000000000000000000000FB
:1001000000000000000000000000000000000000EF
:1001100012111000000000000000000000000000AC
:100120000000000000000000000001021020200874
:100130000810204010204080020102010804020142
:1001400001020408102040808040201008040201B1
:10015000800402018040201008040201080402010A
:100160000102040810204080010204081020408091
:1001700005050505070508080808020202020A0A23
:100180000808040404040101010101010101030341
:10019000030303030303040707070C0C0C0C0C0CEC
:1001A0000C0C0202020206060606060606060B0BE9
:1001B0000B0B0B0B0B0B00002200250028002B0063
:1001C0002E003100340002010000050108010B017E
:1001D00000002100240027002A002D0030003300F9
:1001E00001010000040107010A01952C212DAD2D0C
:1001F000392E11241FBECFEFD1E2DEBFCDBF00E00C
:100200000CBF12E0A0E0B2E0EAEFFDE500E00BBFBA
:1002100002C007900D92AE3DB107D9F728E0AEEDD0
:10022000B2E001C01D92AB38B207E1F710E0C9EFB0
:10023000D0E000E006C021970109802FFE010E9456
:10024000CA2EC53FD10780E00807A9F70E9477268C
:100250000C94FB2ED5CECF93DF93882349F0EB018E
:1002600081500E941A2A99838883DF91CF91089543
:10027000FB0111821082F9CF0F931F938B019C0118
:1002800083E036952795179507958A95D1F7025201
:100290001D4F462F477021E030E0F90102C0EE0FFC
:1002A000FF1F4A95E2F7AF01F80120812423CB011B
:1002B0000196211102C090E080E01F910F910895F6
:1002C0000F931F938B019C0183E03695279517951B
:1002D00007958A95D1F7677081E090E001C0880F9B
:1002E0006A95EAF7F801E252FD4F2081452B31F47F
:1002F0008095822380831F910F910895822BFACFDE
:10030000CF92DF92EF92FF92CF93DF936B017C014C
:1003100060E086E3C816D104E104F10490F486E3BA
:100320008C0D0E94A32AE6012196AE01C701B601F9
:10033000C7DFCE01DF91CF91FF90EF90DF90CF909C
:1003400008958C2DEECF882341F08150682F70E006
:1003500090E080E050E040E0B3CF0895611102C02A
:100360000C94A32A6130E1F362E0FACF662319F01E
:1003700061E00C94DF2A60E0FCCF90E080E008951B
:100380000F931F93009709F487C06115710509F455
:1003900083C000912002109121022091220230910D
:1003A00023020E3F1F4F2F4F3F4F09F066C04FEF04
:1003B0005FEFBA0140932002509321026093220222
:1003C00070932302409120025091210260912202F9
:1003D00070912302DC011296ED91FC918081918154
:1003E000A281B38180935D0390935E03A0935F032A
:1003F000B093600384819581A681B781809359036E
:1004000090935A03A0935B03B0935C03808591851E
:10041000A285B3858093550390935603A093570309
:10042000B093580384859585A685B785809351033D
:1004300090935203A0935303B093540310924D032F
:1004400010924E0310924F031092500336D782E859
:1004500099E09093E8028093E7029093EA028093F8
:10046000E9021AD6009731F421E030E030936203BC
:10047000209361031F910F91089500912002109124
:1004800021022091220230912302DB010D931D9362
:100490002D933C93139796CF8FEF9FEFEBCF8F92D7
:1004A0009F92AF92BF92CF92DF92EF92FF921F93F3
:1004B000CF93DF934B015C011091640382E090E0E5
:1004C000909362038093610381149104A104B104A9
:1004D00041F480916403811104C080916303C1E001
:1004E0008111C0E0C12CD12C76018091640381116F
:1004F00006C080916303811102C0CC23D9F083E050
:1005000090E09093620380936103CC2379F1CCE96E
:10051000DFEF111102C00E94E60CCE01DF91CF91F6
:100520001F91FF90EF90DF90CF90BF90AF909F9082
:100530008F9008956AE070E080E090E00E94822948
:1005400080E1C80E87E2D81EE11CF11C8FEF8816EF
:100550009806A806B80631F0C1E08C149D04AE04DC
:10056000BF0408F0C0E080E0CBD5BFCFD0E0C0E052
:10057000D0CFCF92DF92EF92FF920F931F93CF9342
:10058000DF938F3F910511F008F050C02091610377
:10059000309162032330310539F0209161033091AD
:1005A00062032130310531F424E030E030936203FE
:1005B000209361036A017B01EC0182309105A0F078
:1005C00011E0AE01C701B60166D5AB01BC01CE0199
:1005D0001123F9F0DF91CF911F910F91FF90EF90D0
:1005E000DF90CF900C940F0F8C01000F111F095159
:1005F0001D4FD8018D919C91892B11F30E94190FE9
:100600000297F1F6D801ED91FC91CE011995182FC2
:10061000D8CF0E94310F90E080E0DF91CF911F9101
:100620000F91FF90EF90DF90CF9008958FEF9FEFA5
:10063000F4CF80E065C5CF93DF9386E090E09093A0
:10064000620380936103B5D5EC01E7EEF2E084E04C
:10065000DF011D928A95E9F70E947E0C10926203D9
:1006600010926103CE01DF91CF91089580916303D1
:10067000089580914C0308956093200270932102A5
:10068000809322029093230290E080E00895CF921D
:10069000DF92EF92FF926B017C019F7720E030E0C8
:1006A00040E859E50E94772787FF2BC020E030E023
:1006B00040E05FE3C701B6010E94AC2887FD0EC091
:1006C00020E030E040E05FE3C701B6010E94002770
:1006D000FF90EF90DF90CF900C94E42720E030E083
:1006E00040E05FEBC701B6010E94AC28181684F405
:1006F00020E030E0A901C701B6010E94B0286B01DB
:100700007C01C701B601FF90EF90DF90CF90089574
:1007100020E030E040E05FE3C701B6010E94FF2621
:10072000FF90EF90DF90CF900C946427CF92DF92F0
:10073000EF92FF92C0900002D0900102E09002027E
:10074000F0900302A70196016091730870917408FC
:1007500080917508909176080E947727882341F050
:10076000C0927308D0927408E0927508F0927608EF
:1007700066E370E080E090E07FDD90937208809304
:10078000710843E050E06DE278E065DDC09004025E
:10079000D0900502E0900602F0900702A7019601B2
:1007A00060916708709168088091690890916A0863
:1007B0000E947727882341F0C0926708D09268088A
:1007C000E0926908F0926A0867E370E080E090E0E8
:1007D00053DD909366088093650843E050E06BE238
:1007E00078E039DDC0900802D0900902E0900A025A
:1007F000F0900B02A701960160915B0870915C0874
:1008000080915D0890915E080E947727882341F0CF
:10081000C0925B08D0925C08E0925D08F0925E089E
:1008200068E370E080E090E027DD90935A088093C1
:10083000590843E050E069E278E00DDDC0900C0219
:10084000D0900D02E0900E02F0900F02A7019601E9
:1008500060914F0870915008809151089091520812
:100860000E947727882341F0C0924F08D092500809
:10087000E0925108F092520869E370E080E090E065
:10088000FBDC90934E0880934D0843E050E067E214
:1008900078E0E1DCC0901002D0901102E0901202EA
:1008A000F0901302A70196016091430870914408EB
:1008B00080914508909146080E947727882341F04F
:1008C000C0924308D0924408E0924508F09246084E
:1008D0006AE370E080E090E0CFDC90934208809380
:1008E000410843E050E065E278E0B5DCC0901402D6
:1008F000D0901502E0901602F0901702A701960121
:1009000060913708709138088091390890913A08C1
:100910000E947727882341F0C0923708D092380888
:10092000E0923908F0923A086BE370E080E090E0E2
:10093000A3DC909336088093350843E050E063E2EF
:1009400078E089DC80912D0890912E08909318080A
:100950008093170880912B0890912C0890931A0887
:10096000809319088091290890912A0890931C0877
:1009700080931B08809127089091280890931E0867
:1009800080931D0880912508909126089093200857
:1009900080931F0880912308909124089093220847
:1009A00080932108609118027091190280911A02B7
:1009B00090911B026CDE6B017C0120E030E040E88E
:1009C00053E40E9477276FEF87FF0EC020E030E0EE
:1009D000A901C701B6010E94AC2860E087FD04C0F0
:1009E000C701B6010E947B278AE0C0DC60911C022F
:1009F00070911D0280911E0290911F0248DE6B01D2
:100A00007C0120E030E040E853E40E9477276FEF5C
:100A100087FF0EC020E030E0A901C701B6010E94A7
:100A2000AC2860E087FD04C0C701B6010E947B27A7
:100A30008BE09CDC6091230370912403809125035B
:100A4000909126036F5F7F4F8F4F9F4F60932303DB
:100A50007093240380932503909326030E94A72775
:100A60009B01AC01609127037091280380912903B9
:100A700090912A030E94B02860931F037093200373
:100A80008093210390932203FF90EF90DF90CF900B
:100A90000895AF92BF92CF92DF92EF92FF921F9391
:100AA000CF93DF93E9E0F3E080E090E0A0E8BFEBD4
:100AB00082A393A3A4A3B5A38AE097EDA3E2BCE32A
:100AC000868F978FA0A3B1A381ED96E2ACE7B8E340
:100AD00084839583A683B78389EF96E0AFE4BFE56F
:100AE00080879187A287B3878EEE97EDA5E0B0E669
:100AF00084879587A687B7878EE29DECA3EDB4E047
:100B0000808B918BA28BB38BADEFB2E0B383A283CA
:100B1000EBEEF2E01196FC93EE938AE492E091837F
:100B2000808393838283958384839783868391874D
:100B30008087938782879587848797878687918B1D
:100B4000808B8DE193E015969C938E9314978DE0A6
:100B500093E013969C938E9312978FE193E01796F0
:100B60009C938E931697CFE2D8E01CAE80E0A82E1F
:100B700082E0B82EF50180819181A281B3818093BA
:100B8000730890937408A0937508B0937608C12CED
:100B9000D12C7601C394C0926C08D0926D08E0927B
:100BA0006E08F0926F0866E370E080E090E0A8DBEA
:100BB000909372088093710811E01093700818AA3E
:100BC000F50184819581A681B78188AF99AFAAAFDD
:100BD000BBAFC9AADAAAEBAAFCAA67E370E080E07F
:100BE00090E08EDB9FAB8EAB1DAB1CA2F501808528
:100BF0009185A285B3858CA79DA7AEA7BFA7CDA2DF
:100C0000DEA2EFA2F8A668E370E080E090E078DB77
:100C10009BA78AA719A7188EF50184859585A685B7
:100C2000B78588A399A3AAA3BBA3C98EDA8EEB8E3E
:100C3000FC8E69E370E080E090E062DB9F8F8E8F36
:100C40001D8F1C86F50180899189A289B3898C8BBF
:100C50009D8BAE8BBF8BCD86DE86EF86F88A6AE3EE
:100C600070E080E090E04CDB9B8B8A8B198B1882C4
:100C7000F50184899589A689B78988879987AA8784
:100C8000BB87C982DA82EB82FC826BE370E080E092
:100C900090E036DB9F838E831D8310927F08C09285
:100CA0008008D0928108E0928208F092830861E087
:100CB0008AE054DB1093840810927708C092780879
:100CC000D0927908E0927A08F0927B0861E08BE09C
:100CD00045DB10937C08DF91CF911F91FF90EF903F
:100CE000DF90CF90BF90AF90089580916B088111F5
:100CF0001DC081E080936B0880916C0890916D0815
:100D0000A0916E08B0916F080197A105B10571F42B
:100D100080917008882351F066E370E080E090E0F5
:100D2000ABDA90937208809371080DDB80915F08B5
:100D300081111DC081E080935F08809160089091CF
:100D40006108A0916208B09163080197A105B105FF
:100D500071F480916408882351F067E370E080E0CB
:100D600090E08ADA9093660880936508ECDA8091C7
:100D7000530881111DC081E080935308809154086D
:100D800090915508A0915608B09157080197A10578
:100D9000B10571F480915808882351F068E370E040
:100DA00080E090E069DA90935A0880935908CBDA92
:100DB0008091470881111DC081E080934708809190
:100DC000480890914908A0914A08B0914B080197B2
:100DD000A105B10571F480914C08882351F069E3B5
:100DE00070E080E090E048DA90934E0880934D08E0
:100DF000AADA80913B0881111DC081E080933B08F5
:100E000080913C0890913D08A0913E08B0913F0828
:100E10000197A105B10571F480914008882351F034
:100E20006AE370E080E090E027DA909342088093D4
:100E3000410889DA80912F0881111DC081E08093DB
:100E40002F088091300890913108A0913208B0911C
:100E500033080197A105B10571F480913408882306
:100E600051F06BE370E080E090E006DA9093360892
:100E70008093350868DA80917F08811103C081E092
:100E800080937F0880917708811103C081E080936F
:100E9000770808954F925F926F927F928F929F9200
:100EA000AF92BF92CF92DF92EF92FF920F931F9378
:100EB000F89440903C0350903D0360903E03709046
:100EC0003F03C0903003D0903103E0903203F090A4
:100ED0003303452B09F0A4C09B01AC01241935094B
:100EE0004609570929013A01009138031091390345
:100EF00020913A0330913B0348015901840C951C21
:100F0000A61CB71C80169106A206B306A0F4009199
:100F100034031091350320913603309137030F5F6E
:100F20001F4F2F4F3F4F00933403109335032093EF
:100F30003603309337038092380390923903A0929E
:100F40003A03B0923B030091340310913503209192
:100F50003603309137038092400390924103A09270
:100F60004203B0924303009344031093450320933C
:100F700046033093470360933C0370933D03809393
:100F80003E0390933F03A0E1B7E2A30192010E94C8
:100F9000D22E6C0D7D1D8E1D9F1D609330037093AE
:100FA0003103809332039093330300912002109118
:100FB000210220912202309123020F3F1F4F2F4F19
:100FC0003F4FF1F000912002109121022091220266
:100FD000309123020E3F1F4F2F4F3F4F89F0C0909B
:100FE0002002D0902102E0902202F090230221E022
:100FF0008C149D04AE04BF0408F420E020934C033D
:1010000078941F910F91FF90EF90DF90CF90BF9059
:10101000AF909F908F907F906F905F904F900895CA
:101020004B015C0184189508A608B708A30192013A
:10103000261B370B480B590B64157505860597055C
:10104000D0F082169306A406B50640F420E030E006
:10105000A90181149104A104B10491F4A0E1B7E2C3
:101060000E94D22EA7019601261B370B480B590B65
:10107000CA01B901C5CF82169306A406B50670F75A
:10108000A0E1B7E2A50194010E94D22E6C0D7D1D56
:101090008E1D9F1DB5CFFECECF93DF9300D01F9244
:1010A000CDB7DEB71C821B821A82198210924803C8
:1010B0001092490310924A0310924B03BE016F5FD6
:1010C0007F4FCE0103960E94452569817A818B81ED
:1010D0009C810E94351E009761F4BE016F5F7F4FB7
:1010E000CE0103960E94512569817A818B819C8172
:1010F0002ED50F900F900F900F90DF91CF91089504
:10110000FF920F931F93CF93DF93082F60E070E05F
:10111000CB010E948229FF24F3940E941E1DEC0142
:10112000892B89F010E0CE3F8FEFD80769F00023BC
:1011300061F160E070E0CB010E94822981E090E0E3
:10114000892B59F322C011E025D5EC01892B21F020
:10115000CE3F8FEFD80759F711111EC011E022962C
:1011600009F410E00E94CE1CEC01892B21F0CE3F47
:101170008FEFD807E1F6111111C011E0CE3F8FEFCC
:10118000D80709F410E001110BC0CE01DF91CF9117
:101190001F910F91FF90089511E0E4CF11E0F3CF7C
:1011A00060E070E0CB010E9482291F25812F90E032
:1011B000C7CFCF93DF9380914C03882321F060E069
:1011C00070E0CB014CD635D6D0E0C0E0892B71F071
:1011D0006AE070E080E090E00E94822981E090DF88
:1011E00028D62196C03D27E0D20781F727D60E9456
:1011F000891E109264031092630310925D03109293
:101200005E0310925F0310926003109259031092D4
:101210005A0310925B0310925C03109255031092D4
:1012200056031092570310925803109251031092D4
:101230005203109253031092540310924D031092D4
:101240004E0310924F03109250034EEF5FEF6FEF7B
:101250007FEF40932002509321026093220270930B
:10126000230210924C03E0E4F3E028E0DF011D923A
:101270002A95E9F710923C0310923D0310923E0329
:1012800010923F03109238031092390310923A03E0
:1012900010923B03109234031092350310923603E0
:1012A00010923703109230031092310310923203E0
:1012B00010923303DF91CF91089510927003109232
:1012C0007103109272031092730310926F03809156
:1012D00078039091790390936E0380936D0310923D
:1012E0006C0310926B0310926703109268031092C4
:1012F000690310926A03109275031092740390E0D0
:1013000080E00895CF92DF92EF92FF920F931F93A8
:10131000CF938C01892B09F055C02091780330912F
:10132000790380916D0390916E0340917803509101
:10133000790350936E0340936D032817390781F0AA
:1013400010926C0310926B03109267031092680363
:101350001092690310926A0310927503109274033D
:101360008091780390917903019761F580917403DE
:1013700090917503892B21F480912402811112C070
:1013800080917403909175030197E1F48091670354
:1013900090916803A0916903B0916A030197A10538
:1013A000B10581F4109267031092680310926903EB
:1013B00010926A031092240282E090E090937503E9
:1013C000809374038091780390917903019709F0D9
:1013D0001CC180918E0390918F038017910709F0B3
:1013E00014C180918A0390918B03A0918C03B091DA
:1013F0008D03009709F409C12091890321110DC0C3
:1014000040918A0350918B0360918C0370918D03FE
:10141000452B462B472B09F4F8C0209174033091DB
:1014200075032230310509F0F0C020916B032111C2
:10143000ECC0FC01C080D180E280F38080916F031A
:10144000882309F4D3C080917B0390917C03892B7E
:1014500009F4FDC020917B0330917C0381E02230B0
:10146000310509F080E020917B0330917C03C1E0DD
:101470002130310549F020917B0330917C03C1E09C
:101480002230310509F0C0E0882309F456C02091CC
:101490008503309186034091870350918803C701EB
:1014A000B6010E94AC2887FD14C0209185033091BD
:1014B0008603409187035091880360917003709177
:1014C000710380917203909173030E94772787FDC7
:1014D00022C020918503309186034091870350916B
:1014E0008803C701B6010E94AC28181634F5209174
:1014F0008503309186034091870350918803609162
:1015000070037091710380917203909173030E9434
:101510007727811112C080917D0390917E03A09165
:101520007F03B0918003892B8A2B8B2B19F481E0E8
:1015300080936C0381E080936B03CC2309F456C045
:101540002091850330918603409187035091880351
:10155000C701B6010E94772787FF14C02091850339
:101560003091860340918703509188036091700306
:101570007091710380917203909173030E94AC2863
:1015800087FF22C020918503309186034091870315
:1015900050918803C701B6010E947727811126C0A8
:1015A00020918503309186034091870350918803F1
:1015B0006091700370917103809172039091730335
:1015C0000E94AC28181694F480917D0390917E03BC
:1015D000A0917F03B0918003892B8A2B8B2B19F468
:1015E00081E080936C0381E080936B0381E09091B4
:1015F0006B03911180E080936F03C0927003D092CF
:101600007103E0927203F0927303012B09F067C13A
:101610008091740390917503892BD9F410927A0309
:1016200010926B0380912402882379F082E090E08D
:101630009093750380937403109224022091780391
:101640003091790381E0232BE9F080E01BC081E039
:101650000ACF1092240280917A03882349F01092D5
:101660006C03109275031092740310927A03EDCFFD
:101670008091780390917903892BE1F080916B033D
:1016800010926B0320917403309175032230310561
:1016900009F45EC088F42115310509F448C02130F1
:1016A000310509F4F3C010926C0310926B03109291
:1016B0007A0338C081E0E6CF2330310509F4B1C0A8
:1016C0002430310581F740916703509168036091A0
:1016D000690370916A03411551056105710561F057
:1016E00041505109610971094093670350936803A0
:1016F0006093690370936A03409167035091680394
:101700006091690370916A03452B462B472BD9F4EE
:1017100020917603309177032130310509F046C0DE
:1017200010926C0310927503109274030CC0809198
:101730002402882341F082E090E090937503809327
:101740007403109224021092650380916C03CEC042
:101750008823C9F380917D0390917E03A0917F033C
:10176000B0918003181619061A061B060CF07DC0EE
:101770008091780390917903019709F076C0809168
:101780007D0390917E03A0917F03B09180038093AD
:10179000670390936803A0936903B0936A0383E09F
:1017A00090E09093750380937403CDCF40918103B3
:1017B000509182036091830370918403452B462BE3
:1017C000472BA9F010926C038091810390918203C2
:1017D000A0918303B091840380936703909368037F
:1017E000A0936903B0936A0381E090E0DACF882385
:1017F00099F08091250290912602A0912702B09144
:1018000028028093670390936803A0936903B093C1
:101810006A0384E090E0C5CF10926C0382E090E010
:10182000C0CF8091670390916803A0916903B09144
:101830006A030097A105B10559F00197A109B10903
:101840008093670390936803A0936903B0936A033E
:101850008091670390916803A0916903B0916A0336
:10186000892B8A2B8B2B09F06ECF809125029091CA
:101870002602A0912702B0912802892B8A2B8B2B5C
:1018800009F44ECF81E080936C03B3CF409167039E
:10189000509168036091690370916A034115510585
:1018A0006105710561F04150510961097109409369
:1018B0006703509368036093690370936A034091D0
:1018C0006703509168036091690370916A03452B27
:1018D000462B472B09F037CF8111C7CF9FCF80917F
:1018E0006503882309F431CF80916603CF911F915E
:1018F0000F91FF90EF90DF90CF90089510927003BA
:1019000010927103109272031092730310926F037E
:10191000109275031092740310926E0310926D036F
:1019200010928F0310928E0310926C0310926B032F
:1019300010926703109268031092690310926A0371
:10194000109266031092650310928A0310928B0323
:1019500010928C0310928D031092890310928503CC
:1019600010928603109287031092880388EE93E00A
:10197000A0E0B0E08093250290932602A093270276
:10198000B093280210928103109282031092830375
:101990001092840310927D0310927E0310927F03B5
:1019A0001092800310927C0310927B0381E080935D
:1019B000240210927A031092790310927803109205
:1019C00077031092760390E080E008958091780389
:1019D00090917903892B19F580912402882351F085
:1019E00080917A03811106C081E080936603809321
:1019F0006503089520917A033091240281E090E0FC
:101A0000332311F090E080E030E082239323892B90
:101A100021F01092660381E0EACF109265030895E9
:101A200082E090E0FA01918380838FEF9FEF089529
:101A3000CF93DF93EA01009711F00E94A91F19824A
:101A4000188290E080E0DF91CF910895DB0100974C
:101A500019F48FEF8C9308952EEF2C93FC013F9691
:101A6000EF30F10508F034C08827E65CF24F8F4F65
:101A70000C94CA2E660D640D620D600D5E0D5A0D3C
:101A80005C0D580D560D540D510D4D0D490D4F0D5A
:101A9000680D80E311968C93089589E2FBCF82E272
:101AA000F9CF11961C92089583E2F4CF81E2F2CF30
:101AB00081E1F0CF87E2EECF8AE2ECCF80E1EACF9E
:101AC00084E2E8CF88E2E6CF86E2E4CF81E3E2CFAA
:101AD00080E2E0CF80919C0390919D0308959093C4
:101AE0009D0380939C03089580919B03089590919A
:101AF0009B03892B80939B030895982F9095809149
:101B00009B03892380939B03089580919A030895F2
:101B1000809198039091990308956115710559F08A
:101B2000FB0130E020E070E060E02417350719F099
:101B30006115710511F0CB010895A081B181A8173D
:101B4000B90709F4BF012F5F3F4F3696EECF809162
:101B50009E0381111CC060D266D290939103809342
:101B600090030E94A7170E94B91790939503809342
:101B700094030E94361C0E943D1C90939303809313
:101B8000920381E080939E0390E080E0089584EFCB
:101B90009FEF08958F929F92AF92BF92CF92DF9264
:101BA000EF92FF920F931F93CF93DF9300D000D05B
:101BB00000D01F92CDB7DEB71A86198618861F820D
:101BC0001E821D821C821B821A82198280919E03B2
:101BD00007EF1FEF882309F49CC08E010D5F1F4F94
:101BE0009E012B5F3F4FAE01495F5F4FBE01675FB4
:101BF0007F4F90E080E00E94BA1D8C01009721F099
:101C00000596029708F0DBC029853A852115310534
:101C100009F402C1ED80FE804B815C81B701640F45
:101C2000751F8F8198858617970708F4F5C0E20E17
:101C3000F31ED7019C91903C09F07FC042305105C2
:101C400008F47BC011968C9140919C0350919D03A8
:101C5000452B09F49CC0913F08F071C02CE1290F7D
:101C60002D3008F48BC02DE2290F203108F489C0F3
:101C7000903C21F48150823008F483C088E3890FBE
:101C80008B3008F481C096E2C92E9DE0D92EE0E1A8
:101C9000FDE06D817E81AE014F5F5F4F89859A8542
:101CA00019955C01C114D104A1F189809A80811435
:101CB000910479F18B819C818815990508F487C07E
:101CC00010E000E04B815C8170E060E0C7010E94A1
:101CD000F42E01151105E9F449815A8169857A8547
:101CE0008D819E81680F791FC501F6011995E980E4
:101CF000FA800D811E812F81388549855A856FEFC5
:101D00007FEF81E090E00E94551D8C01892B09F046
:101D100056C0C8012A960FB6F894DEBF0FBECDBFDD
:101D2000DF91CF911F910F91FF90EF90DF90CF90B7
:101D3000BF90AF909F908F90089580E085CF30E066
:101D400020E0220F331FF901E057FC4F0190F08192
:101D5000E02D309709F497CF892F90E019950097DF
:101D600009F491CFDC011296ED91FC911397149632
:101D7000CD90DC90309709F08CCF1FC021E030E08F
:101D8000E0CF22E030E0DDCF23E030E0DACFD12C2D
:101D9000C12CE8E1FDE09F3F09F07BCFE09190038B
:101DA000F0919103309721F4C90104EF1FEF0CC0AB
:101DB0008FEF90E019950097A9F604EF1FEF898542
:101DC0009A85009709F4A5CF0E94A91FA2CF0E946F
:101DD000841E8C0189859A850E94A91F70E060E0AD
:101DE000C4010E941D1E98878F830E94521D9E83EE
:101DF0008D836F8178856115710559F0C8010E9446
:101E000035219A87898706EF1FEF892B09F058CF74
:101E100059CF08EF1FEF56CF08EF1FEFD0CF20911B
:101E20009E03222319F020E00C94BE1787EF9FEF4A
:101E3000089580919C0390919D0308950E94421CF7
:101E40000E949C1BF5D0E0E9F3E088E0DF011D92E1
:101E50008A95E9F710929E0390E080E008950C9433
:101E6000FA1921E040E050E0BA010C94BE1786E078
:101E700090E0FA019183808390E080E0089547E04C
:101E800050E06DE472E049CEDF92EF92FF920F9343
:101E90001F93CF93DF938A01EC01C60FD71FE09009
:101EA000A203F090A303D9800E946C1ED8161906D5
:101EB00078F082E090E0F801918380838EEF9FEFCD
:101EC000DF91CF911F910F91FF90EF90DF900895D8
:101ED000EF2841F482E090E0F8019183808384EF61
:101EE0009FEFEECF89818093A10390E00196F801E6
:101EF0009183808390E080E0E3CFCF93DF93EA018A
:101F00000E94AB1A882321F00E94791E0E94AC1A0D
:101F100082E090E0998388838BEF9FEFDF91CF91F0
:101F20000895CF93DF93EB0186E0FB0111928A9530
:101F3000E9F78FEF8883D8DD8983E7DD8A83E8DDE1
:101F40009D838C83DF91CF910895CF93DF93EA0136
:101F50000E94AE1A811109C082E090E099838883C3
:101F600085EF9FEFDF91CF91089590E080E0B7DD9E
:101F700081E090E09983888390E080E0F3CF0F9335
:101F80001F93CF93DF93EA018C01060F171F0E9466
:101F9000AE1A81110BC082E090E09983888385EFAF
:101FA0009FEFDF91CF911F910F910895F8018181EB
:101FB000823038F082E090E0998388838EEF9FEF43
:101FC000F0CF81E090E08BDD88E090E0998388831A
:101FD00090E080E0E6CFCF93DF930097D1F4EB0160
:101FE000FB01329686E0DF011D928A95E9F78FEFBB
:101FF000888385E089831A820E946C1E8B830E94ED
:102000006B1E9D838C8381E08E838F83DF91CF91C4
:102010000895DF91CF911ACD8FE39FE09093A003B5
:1020200080939F03089580919F039091A00308954A
:102030001092A00310929F0308958091A2039091A3
:10204000A3030895411105C061157105810591052E
:1020500061F06093A2037093A3038093A403909311
:10206000A5034093A60381E0089580E00895FF92C0
:102070000F931F93CF93DF938A01EC01C60FD71FF5
:10208000F9800E946C1EF816190668F082E090E054
:10209000F801918380838EEF9FEFDF91CF911F91A5
:1020A0000F91FF9008956C817D818E819F814B817E
:1020B000C9DF811108C082E090E0F801918380833C
:1020C00084EF9FEFEACF89818093A10390E001968E
:1020D000F8019183808390E080E0DFCFCF93DF939E
:1020E000EA01FC01E60FF71F648175818681978103
:1020F0004381A8DF811109C082E090E09983888341
:1021000084EF9FEFDF91CF91089581E090E0998374
:10211000888390E080E0F6CFE2EAF3E040815181ED
:1021200062817381480F511D611D711D4083518370
:10213000628373830895CF93C091A1034C2F50E025
:102140006091A2037091A30301960E94EB2E8C2F45
:10215000E3DF1092A103CF910895009799F4809145
:10216000A2039091A3032FEFFB012083892B59F049
:102170002091A10330E02F5F3F4F2417350719F45A
:10218000CB01D9CF63CC0895009799F48091A20335
:102190009091A3032FEFFB012083892B59F020910D
:1021A000A10330E02F5F3F4F2417350719F4CB010F
:1021B000C2CF4CCC089523E1AC01249FC001259FE0
:1021C000900D1124E091AB03F091AC03E80FF91FDF
:1021D000238134812250310981E02230310508F019
:1021E00080E008950F931F93CF93DF930091AD0389
:1021F0001091AE03D0E0C0E080E00C171D0749F459
:1022000091E0811190E0892FDF91CF911F910F9183
:1022100008958111F5CFCE01CEDF2196EECFA091AA
:10222000AB03B091AC03109729F12091AD0330912D
:10223000AE0382179307F0F453E1589F9001599F22
:10224000300D1124A20FB31FED91FC91119730971F
:1022500089F012968C91681768F48DE0689FE00D04
:10226000F11D112480819181892B21F081E09281DF
:10227000491708F080E008959C0143E1429FC001A6
:10228000439F900D1124E091AB03F091AC03E80F54
:10229000F91F8385823091F481E090E06581768139
:1022A0004091290250912A026417750711F490E0B9
:1022B00080E0892B19F081E0232B09F080E008955C
:1022C000FC01A081B1818DE0689FA00DB11D11249A
:1022D00013964D915C9185859685489F9001499F05
:1022E000300D589F300D1124C9010196611103C0B2
:1022F000478144FD04960895EF92FF920F931F9338
:10230000CF93DF93EA01FC01E60FF71F02811381EF
:10231000E480F5804F2D6E2DC80181DF81110DC045
:1023200082E090E0998388838EEF9FEFDF91CF91D9
:102330001F910F91FF90EF900895C8013CDF882313
:1023400039F082E090E09983888388EF9FEFEECFA9
:102350001093300200932F02E0923102F092320289
:1023600081E090E09983888390E080E0DFCFCF9296
:10237000DF92EF92FF920F931F93CF93DF937A0137
:10238000EC01C60FD71FC0902F02D09030020091F1
:10239000310210913202412F602FC60140DF8111BE
:1023A00010C082E090E0F701918380838AEF9FEF75
:1023B000DF91CF911F910F91FF90EF90DF90CF9021
:1023C0000895C601F8DE882341F082E090E0F7012D
:1023D0009183808388EF9FEFEBCF4C815D816E818D
:1023E0007F819A8189818F3F41F082E090E0F701FF
:1023F000918380838EEF9FEFDBCFE3E1EC9D900133
:10240000ED9D300D1124E091AB03F091AC03E20F90
:10241000F31F0190F081E02D2DE0029FE00DF11DF2
:1024200011240190F081E02D27E0129FE00DF11DB5
:102430001124808391838B818283438354836583BA
:1024400076831F5F1093320281E090E0F701918361
:10245000808390E080E0ACCFEF92FF920F931F93C8
:10246000CF93DF937A018C01060F171FC091AB0346
:10247000D091AC03209781F021E030E0F801828117
:1024800093814091AD035091AE038417950710F0EE
:1024900030E020E0232B71F482E090E0F70191839B
:1024A00080838EEF9FEFDF91CF911F910F91FF906F
:1024B000EF90089543E1489F9001499F300D11240A
:1024C000C20FD31F78DE882341F082E090E0F7014D
:1024D0009183808388EF9FEFE6CFF80124813581D7
:1024E00020383105C8F687818111D6CF4181842FEC
:1024F00090E08F7E009741F082E090E0F7019183B9
:10250000808386EF9FEFCFCF4F833E832D8326813D
:1025100028871986223010F421E0288721E030E056
:10252000F70131832083BFCF88E090E0FA019183E7
:10253000808390E080E00895FB018FEF808381E14C
:1025400081838FEF9FEF9383828380E890E0958370
:102550008483168217820895FB018FEF808391E0B8
:10256000918382839383848384E3858381E090E0F5
:10257000978386830895DF92EF92FF920F931F93C4
:10258000CF93DF93EA01FC01E60FF71F81818130D1
:1025900071F082E090E0998388838FEF9FEFDF9165
:1025A000CF911F910F91FF90EF90DF90089582815E
:1025B0009381D4802581E680F7800091AB03109150
:1025C000AC030115110539F482E090E0998388830A
:1025D0008CEF9FEFE4CF4091AD035091AE03841791
:1025E000950738F082E090E0998388838EEF9FEF23
:1025F000D6CF892B39F082E090E09983888386EFEB
:102600009FEFCDCF8D2D8D7FB1F72130A1F781E0E8
:10261000D11006C091E0E916F10431F080E004C069
:10262000E2E0EE16F104D0F3882329F390E080E095
:10263000C2DD882339F082E090E09983888388EFB7
:102640009FEFADCFF801D38681E08487F686E586DB
:10265000108A178681E090E09983888390E080E07B
:102660009ECF4CE050E067E772E057CA8F929F928E
:10267000BF92CF92DF92EF92FF920F931F93CF936F
:10268000DF93EA01FC01E60FF71F82819381048149
:10269000B580E091AB03F091AC03309791F482E008
:1026A00090E0998388838CEF9FEFDF91CF911F910A
:1026B0000F91FF90EF90DF90CF90BF909F908F9001
:1026C00008952091AD033091AE038217930738F03F
:1026D00082E090E0998388838EEF9FEFE6CF23E13D
:1026E000289F6001299FD00C1124EC0DFD1DE08076
:1026F000F180E114F10499F28281081748F78DE026
:10270000089F80011124E00EF11EF7018081918164
:10271000892B29F6BB20E1F2F7E0BF9E400111248E
:10272000C4010E94701FF70191838083E091AB0385
:10273000F091AC03EC0DFD1D0190F081E02DE00F58
:10274000F11F80819181009739F482E090E09983B4
:1027500088838DEF9FEFA9CFA40170E060E00E9415
:10276000F42E8091AB039091AC03C80ED91EF601F4
:1027700080819181080F191FF801B28281E090E0F9
:102780009983888390E080E090CFAF92BF92CF9200
:10279000DF92FF920F931F93CF93DF93EA01FC0127
:1027A000E60FF71F82819381F4800091AB031091B3
:1027B000AC030115110581F482E090E099838883D0
:1027C0008CEF9FEFDF91CF911F910F91FF90DF90E2
:1027D000CF90BF90AF9008952091AD033091AE039C
:1027E0008217930738F082E090E0998388838EEF18
:1027F0009FEFE8CF2FEF2F0D2C3FA8F723E1289F65
:102800006001299FD00C11240C0D1D1DF801808141
:102810009181892B89F6FDE0FF9E50011124C501AD
:102820000E94701FF80191838083E091AB03F091C7
:10283000AC03EC0DFD1D80819181009739F482E09D
:1028400090E0998388838DEF9FEFBCCFA50170E066
:1028500060E00E94F42EE091AB03F091AC03EC0D2C
:10286000FD1DF28281E090E09983888390E080E012
:10287000A9CFCF92DF92EF92FF920F931F93CF9346
:10288000DF93860F971FFC01028113818091AB03B8
:102890009091AC03892B81F082E090E0FA01918362
:1028A00080838CEF9FEFDF91CF911F910F91FF906D
:1028B000EF90DF90CF900895C801B0E0A0E00197BD
:1028C000A109B1098F3F9F4FA105B10540F082E0FA
:1028D00090E0FA01918380838EEF9FEFE4CF7A013D
:1028E00083E1809F6001819FD00C1124C6010E946A
:1028F000701FEC01009741F482E090E0F7019183B2
:1029000080838DEF9FEFCFCFA60170E060E00E9443
:10291000F42ED093AC03C093AB031093AE0300939B
:10292000AD0390E080E02FEF3FEF41E061E070E029
:102930008017910741F481E090E0F7019183808353
:1029400090E080E0B0CF3A8B298B1B864C877E8746
:102950006D87188A1F8601966396EACFEF92FF92E1
:102960001F93CF93DF93EC0110E0F12CE12C6A81EF
:102970001617B0F083E0689FB0011124AE014F5EDE
:102980005F4FC7010E94D51F009721F02FEF3FEF47
:102990003A8B298BDF91CF911F91FF90EF90089593
:1029A000612FCE018DDC61E070E00E941D1EE816F3
:1029B000F90608F47C011F5FDACFF8942091A9038F
:1029C0003091AA0381E02115310509F080E0232B25
:1029D00009F0789408952F923F924F925F926F92F0
:1029E0007F928F929F92AF92BF92CF92DF92EF929F
:1029F000FF920F931F93CF93DF933C01660E771ED8
:102A0000F301828193814C01B12CA12CC091AB03C5
:102A1000D091AC03209769F021E030E06091AD03E4
:102A20007091AE038617970710F030E020E0232B5B
:102A3000D1F482E090E0FA01918380838EEF9FEFE2
:102A4000DF91CF911F910F91FF90EF90DF90CF908A
:102A5000BF90AF909F908F907F906F905F904F90BE
:102A60003F902F9008958092330290923402A0926A
:102A70003502B092360263E1689F9001699F300D84
:102A80001124C20FD31FF3018181833040F082E013
:102A900090E0FA019183808386EF9FEFD1CF2A01E6
:102AA0002B813C81232BF1F4288139819F8191FF77
:102AB0002EC0232B09F46FC02091B0039A81422FBE
:102AC000490F5527551FBA0141E050E061387105A3
:102AD00014F050E040E0452B09F45DC02A87920FC6
:102AE0009093B0038150823008F481C066DF882360
:102AF00009F4D8C0F3018181813009F48DC008F454
:102B00007BC0823009F4C6C090E080E0ADC0232BCA
:102B100009F441C02091AF039A81E22FE90FFF270A
:102B2000FF1F41E050E0ED3FF10514F050E040E0C0
:102B3000452B89F12A87920F9093AF03D3CFA081C1
:102B4000B181A20FB31F11966C91060F111D019652
:102B5000295F3F4F8417950794F38D859E85089FC5
:102B60001001099F300C189F300C1124C114D1049E
:102B7000D1F48F8184FF17C00E946B1EF5E02F0EE9
:102B8000311C21E08215930508F420E0A701435F82
:102B90005F4F21110EC082E090E0F20191838083AB
:102BA00087EF9FEF4DCF0E946B1E2FEF221A320A44
:102BB000E8CF88819981E80EF91EF7011483038319
:102BC000FFEFCF1ADF0A7A018A818C151D0409F004
:102BD0000CF48CCFE881F981EE0DFF1D428150E0AD
:102BE00030E020E010E000E090E080E0B3CFF12C96
:102BF000E12CD12CC12CE8CF81E090E09C838B8329
:102C0000F1DA882309F480CF81E090E00E946F0D13
:102C100080E40E947D0D78CF89899A89019661F0C0
:102C200083E090E09C838B8382E090E00E946F0DB4
:102C300080E40E94770D68CF8D819E8120912902CA
:102C400030912A0282179307D1F460912D0270917E
:102C50002E02AE014F5E5F4F80912B0290912C02AD
:102C60000E94F4200097E1F2789422E030E0F20133
:102C700031832083892B99F08DEF9FEFE1CE892856
:102C80008A288B2869F6892B59F6CE0167DE188AC7
:102C90001F86E8CF82E090E09C838B8335CF90E065
:102CA00080E0CECE82E090E0F2019183808385EFD8
:102CB0009FEFC6CE8F929F92AF92BF92CF92DF923C
:102CC000EF92FF920F931F93CF93DF93EA018C0152
:102CD000060F171FF8018181833098F082E090E0A1
:102CE0009983888386EF9FEFDF91CF911F910F919A
:102CF000FF90EF90DF90CF90BF90AF909F908F901C
:102D000008958091AB039091AC03892B61F081E031
:102D100090E02091AD033091AE03232B11F490E0AD
:102D200080E0892B39F482E090E0998388838EEFEC
:102D30009FEFDACF42DE882309F4DFC0F8018181FA
:102D4000813009F495C0E8F0823099F42091AD0308
:102D50003091AE03E091AB03F091AC0390E080E0E2
:102D600041E050E02817390709F0BDC03BDA811176
:102D700017C0789481E090E09983888390E080E0A8
:102D8000B3CF2091AD033091AE03E091AB03F0914E
:102D9000AC0390E080E041E050E02817390741F4AF
:102DA00081E090E00E946F0D80E40E947D0DE1CFF4
:102DB00063817481672B11F054834383019673966A
:102DC000ECCFE091AB03F091AC03E00FF11F238156
:102DD000348122303105D9F4218932892F3F3F4F88
:102DE000B1F4258136814091290250912A0224179D
:102DF000350761F5AF014F5E5F4F60912D02709115
:102E00002E0280912B0290912C020E94F420EFEF71
:102E1000CE1ADE0AEE0AFE0A0D5E1F4F4091AD0388
:102E20005091AE0370E060E0C416D506E606F706E2
:102E30003CF5009731F27894892B09F49BCF82E01E
:102E400090E0998388838DEF9FEF4ECFC114D1041A
:102E5000E104F104E1F6232BD1F6CF017FDDE0910F
:102E6000AB03F091AC03E00FF11F108A1786CFCFB0
:102E700010E000E090E080E0C12CD12C7601CECFB4
:102E80000097C9F610E000E0812C912C540183E0FA
:102E9000E82EF12C1AC0E091AB03F091AC03E00FE7
:102EA000F11F83819481029749F4F482E38282E0E6
:102EB00090E00E946F0D80E40E94770DFFEF8F1A63
:102EC0009F0AAF0ABF0A0D5E1F4F8091AD0390911C
:102ED000AE03B0E0A0E088169906AA06BB06DCF2B5
:102EE00090E080E0A8CF638174816230710511F4B5
:102EF000548343830196739635CF82E090E09983A3
:102F0000888385EF9FEFF0CE0097B9F48FEFFB0138
:102F10008083209133023091340243E1429FC0010B
:102F2000439F900D1124E091AB03F091AC03E80FA7
:102F3000F91F8285FB01818308950C94260D88E09A
:102F400090E0FA019183808390E080E008951092F0
:102F5000AA031092A903EBEAF3E086E0DF011D92D9
:102F60008A95E9F781E393E19093A8038093A703FF
:102F700008958091A7039091A80308952F923F92FE
:102F80004F925F926F927F928F929F92AF92BF9279
:102F9000CF92DF92EF92FF920F931F93CF93DF9325
:102FA000CDB7DEB72F970FB6F894DEBF0FBECDBFFB
:102FB000F894E091A903F091AA033196F093AA0343
:102FC000E093A90378944090AB035090AC03411474
:102FD000510409F40CC2E091AD03F091AE03EF2B64
:102FE00009F405C22D8749875A876B877C879887A4
:102FF0008F831201B12CA12C10E000E08091AD0371
:103000009091AE03A816B90618F40115110529F11F
:10301000F8948091A9039091AA0301979093AA0331
:103020008093A9037894C8012F960FB6F894DEBF59
:103030000FBECDBFDF91CF911F910F91FF90EF9009
:10304000DF90CF90BF90AF909F908F907F906F90C8
:103050005F904F903F902F9008957101E418F5080C
:10306000D10117968C91179781FD54C013968D91BD
:103070009C911497039709F04DC015968D919C91E2
:10308000EF81F8858E179F0709F044C0B50190E0E5
:1030900080E07FD48A832091AB033091AC033D83E1
:1030A0002C833D85332309F44CC04C815D81452B35
:1030B00009F49AC18091AD039091AE03A816B906A8
:1030C00008F092C1C501D8D88823E9F06C817D81D0
:1030D0006E0D7F1D7D836C83DB011F968D919C910E
:1030E000892B89F0D12CC12CF12CE12CAC81BD8134
:1030F00012968C9112978E151F0409F094F4509635
:103100001C921E921F972A81222321F0B50190E084
:1031100080E041D43FEFA31AB30A43E1240E311CEF
:103120006DCFAC81BD81ED91FC91EC0DFD1D8581D4
:1031300096810FD7BFEFEB1AFB0AEDE0CE0ED11C44
:10314000D5CFEC81FD81309709F44EC18091AD035C
:103150009091AE03A816B90608F046C1EE0DFF1D0A
:10316000FF87EE87C50188D88B83882339F1AE8528
:10317000BF851F968D919C915097019621E01D96D9
:103180004D915C918417950709F020E02E831982F8
:10319000712C10E000E0AE85BF8512968C917816F8
:1031A00008F45DC0EE85FF85878590890196658569
:1031B00076850E94942E908B8787A5CFB1E0BE8341
:1031C000E6CF992493946BC08BD6F60196838583C2
:1031D00082C0D601ED90FC90B7E06B9EE00CF11C34
:1031E0001124F7016381748180818F3F61F121E0B7
:1031F00030E002C0220F331F8A95E2F7C901092E81
:10320000000CAA0BBB0BFB014081518162817381D1
:1032100084239523A623B72321E0892B8A2B8B2B8C
:1032200009F420E0D4012C93D70111968C91F6017A
:1032300023853485820F932F911D880E991E148645
:10324000138663949BC0418150E0C4010E94EB2E21
:10325000EBCF998206EF1FEFC5C01982C3C0F98179
:10326000F111A0CFEDE07E9E70011124AE85BF85E7
:10327000CD90DC90CE0CDF1C15D49D838C83BB815C
:10328000BB2309F49ECF81E0EE85FF852785308939
:10329000232B09F080E0982E882309F458C0672D6D
:1032A0008E859F850DD8D60118969C938E9317977F
:1032B00061E070E0C2D4EE85FF85218932892F3F1D
:1032C000320709F481CFBC01C901CFD7D6011696C8
:1032D0009C938E931597D60115968D919C91169778
:1032E000009709F4B6CFEC81FD818E0F9F1F1A96CF
:1032F0009C938E931997AE85BF85ED91FC911197A4
:10330000EE0EFF1EF70121853285148613861A966C
:103310008C91870DD9018D93711016C0EE85FF85B4
:10332000878184FF11C049855A856B857C85F901A9
:103330004183528363837483F70183859485049664
:10334000A80FB91F14861386F701B287A187D6018B
:1033500015968D919C911697892B09F443C0EE85A3
:10336000FF85258136818091290290912A022817B4
:10337000390779F019968D909C90612CD6011296A0
:103380008C911297681608F424CF1A969C928E920C
:103390001997BE81BB2309F460CF61E070E0F601AC
:1033A000878190854AD4D6011796ED90FC901897A6
:1033B00015964D915C91E1E0F0E0BA81BB2311F0EC
:1033C000F0E0E0E00C811D819C01B5018827992780
:1033D0008E1B9F0B6AD38C01892B21F0F60185810E
:1033E0009681B7D57394D7CE0FEF1FEF8CCE10E038
:1033F00000E00ECE2F923F924F925F926F927F929B
:103400008F929F92AF92BF92CF92DF92EF92FF92F4
:103410000F931F93CF93DF938091AB039091AC03F5
:1034200010E000E0892BA9F0C8DA0AEF1FEF88232B
:1034300081F02090AD033090AE03C091AB03D091EA
:10344000AC03D12CC12C10E000E02C143D04A9F4F5
:103450007894C801DF91CF911F910F91FF90EF9069
:10346000DF90CF90BF90AF909F908F907F906F90A4
:103470005F904F903F902F900895C6010E943C119D
:10348000882309F18B819C810397E9F48F859889C2
:10349000892BC9F0B60190E080E07BD221E030E0DA
:1034A000882311F030E020E044245524421A530AC6
:1034B000B12CA12C912C812C8A818815190409F03A
:1034C00038F4188A1F864FEFC41AD40A6396BDCF0A
:1034D000E881F981EA0DFB1D85819681892BA1F197
:1034E00061E070E087819085A8D33C01DBD28C013C
:1034F000E881F981EA0DFB1D818592852581368160
:10350000200F311FAC01421B530B9A01478150859C
:10351000421B530B70E060E00E94F42EE881F981B9
:10352000EA0DFB1DE780F084458156819301B601C9
:10353000C201BBD28C01892B39F0E881F981EA0DF7
:10354000FB1D8581968105D55FEF851A950A8DE073
:10355000A80EB11CB1CF31CA789408952F923F9232
:103560004F925F926F927F929F92AF92BF92CF9253
:10357000DF92EF92FF920F931F93CF93DF9300D0D0
:1035800000D0CDB7DEB70091AB031091AC03992406
:1035900093940115110509F43EC0A090AD03B090BD
:1035A000AE030BDA982E8823B1F11092AC0310927F
:1035B000AB031092AE031092AD031092AF031092C2
:1035C000B0038FEF9FEFDC018093330290933402BE
:1035D000A0933502B093360278947FD31E830D8377
:1035E000C12CD12C7601C501B0E0A0E089839A837B
:1035F000AB83BC8322242A94322C89819A81AB81AB
:10360000BC81C816D906EA06FB06F4F0C801A1D4AD
:1036100080E40E947D0D892D26960FB6F894DEBFBA
:103620000FBECDBFDF91CF911F910F91FF90EF9013
:10363000DF90CF90BF90AF909F907F906F905F9002
:103640004F903F902F900895AD81BE8115968D913A
:103650009C9116972091290230912A028217930794
:10366000D1F451968D919C91EED5ED81FE818081B2
:103670009181B12CA12C412C512C3201892B89F53F
:10368000BFEFCB1ADB0AEB0AFB0AED81FE817396D2
:10369000FE83ED83B2CFC114D104E104F10429F714
:1036A000892B19F7ED81FE81818992898F3F9807D7
:1036B00009F029D5AD81BE8152963C922E92519748
:1036C000D4CF8A0D9B1DDC018D919C91009709F050
:1036D00040D4BFEF4B1A5B0A6B0A7B0AEDE0AE0EDB
:1036E000B11CAD81BE818D919C91119712964C9128
:1036F00050E070E060E044165506660677060CF36D
:1037000028D4BECFCF93DF93EA0128DF811109C00F
:1037100082E090E09983888385EF9FEFDF91CF91DE
:10372000089581E090E00E946F0D81E090E0998320
:10373000888390E080E0F2CF11DF1092A80310920E
:10374000A703089542E050E06FEB72E00C948D0DFA
:10375000FF920F931F93CF93DF938A01EC01C60F63
:10376000D71FF980B9D20897F816190671F068F0DA
:1037700082E090E0F801918380838EEF9FEFDF91EC
:10378000CF911F910F91FF9008956C817D818E8163
:103790009F814B810E942210811108C082E090E03D
:1037A000F8019183808384EF9FEFE9CFF9800E9435
:1037B0001D104F2D50E0BE01685F7F4F0E94EB2E21
:1037C00089810E948C1081E090E0F80191838083D0
:1037D00090E080E0D4CFDF92EF92FF920F931F939F
:1037E000CF93DF938A01EC01C60FD71F0E941D10F3
:1037F0007C01D98071D2DD2059F0029721E030E0C0
:10380000D816190619F010F030E020E0232B79F4D7
:1038100082E090E0F801918380838EEF9FEFDF914B
:10382000CF911F910F91FF90EF90DF900895EF28B7
:1038300041F482E090E0F8019183808384EF9FEF70
:10384000EECFF9800E941D104F2D50E0BE016E5F3B
:103850007F4F0E94EB2E89810E948C1081E090E0C6
:10386000F8019183808390E080E0D9CF82EA9BE1E8
:103870009093B2038093B10308958091B103909126
:10388000B20308950895FC0111821082938382830C
:103890000895DB011D921C92DC011296ED91FC91C2
:1038A00013977183608313967C936E931297089598
:1038B000FC0180819181DB018D939C93A081B1817A
:1038C000109741F08D919C9191838083892B11F405
:1038D000F383E2830895FC0180819181DB018D9364
:1038E0009C93892B11F473836283718360830895A1
:1038F000FC0111821082938382830895CF93DF931A
:103900001F921F92CDB7DEB71A821982F894BE01BA
:103910006F5F7F4F88EB93E0CBDF89819A810097BF
:1039200009F017D389819A81892B89F7BE016F5FCE
:103930007F4F8CEB93E0BCDF89819A81009709F07F
:1039400008D389819A81892B89F778940F900F90F9
:10395000DF91CF910895CF93DF931F921F92CDB740
:10396000DEB71A821982F894BE016F5F7F4F84EB35
:1039700093E09EDF89819A81009709F0EAD28981DC
:103980009A81892B89F778940F900F90DF91CF91CE
:10399000089581E0089590E080E00895EF92FF920D
:1039A0000F931F93CF93DF931F921F92CDB7DEB774
:1039B0001A8219828091B30307EF1FEF8823A1F1C8
:1039C000F894BE016F5F7F4F8CEB93E071DF7894CA
:1039D00089819A81EE24E394F12C892B51F4F89497
:1039E000BE016F5F7F4F88EB93E062DF7894F12C2C
:1039F000E12C89819A810EEF1FEF0097A9F0FC015D
:103A00004281538164E070E074D68C01892B61F0AF
:103A1000F89469817A81C701880F991F880F991FCF
:103A200088549C4F58DF7894C8010F900F90DF9115
:103A3000CF911F910F91FF90EF9008950F931F93D7
:103A4000CF93DF9300D01F92CDB7DEB71C821B82CD
:103A50001A8219828091B30307EF1FEF8823C1F008
:103A6000AE014D5F5F4F64E070E0CE010196B4D6C9
:103A70008C01892B69F4E981FA818B819C81938384
:103A80008283F89469817A8184EB93E002DF7894F1
:103A9000C8010F900F900F900F90DF91CF911F9161
:103AA0000F910895B9D7049608958F929F92AF927F
:103AB000BF92CF92DF92EF92FF920F931F93CF931B
:103AC000DF931F921F92CDB7DEB71A821982BC0115
:103AD0006F5F7F4F6330710598F0AA24AA94BA2CC7
:103AE000C5010F900F90DF91CF911F910F91FF9023
:103AF000EF90DF90CF90BF90AF909F908F90089500
:103B00004115510551F3480159018A016C01CADF81
:103B10008815990511F7E114F104F9F28E0D9F1D36
:103B2000A816B906D0F28091B3038823F1F0F89477
:103B3000B501645071099701AE014F5F5F4FC80135
:103B40000496DFD65C01892B71F489819A81F80192
:103B500093838283C601880F991F880F991FB8012C
:103B600088549C4F96DE7894BBCF87EFA82EBB2459
:103B7000BA94B6CFAF92BF92CF92DF92EF92FF92FC
:103B80000F931F93CF93DF931F921F92CDB7DEB792
:103B90001A821982892B09F047C06115710509F451
:103BA00043C04115510509F43FC02115310509F401
:103BB0003BC001151105C1F18091B3038823B9F110
:103BC00079016A015B01F894BE016F5F7F4F84EB5E
:103BD00093E06EDE789489819A81009759F1DC0137
:103BE00012966D917C91A8010496A4D68C01E9816E
:103BF000FA81D501ED93FC93828193810496F601BD
:103C0000918380834FDFD7018D939C93C8010F90E0
:103C10000F90DF91CF911F910F91FF90EF90DF9068
:103C2000CF90BF90AF9008950FEF1FEFEFCF07EF4A
:103C30001FEFECCF0EEF1FEFE9CFCF93DF93EC0137
:103C4000672B71F4F2D68C179D0760F0E5D62496A9
:103C5000C80FD91FE4D68C0F9D1FDF91CF91089517
:103C6000E1D6F1CF90E080E0F8CF0F931F93CF9390
:103C7000DF932091B30321112BC08B01EC0188EB62
:103C800093E001DE8CEB93E0FEDD84EB93E0FBDD63
:103C900097D00097C1F4C9D670E060E0CEDF47E36B
:103CA00052E062E070E081D1009769F480913702C0
:103CB00090913802CCD6B801CE0101D5009719F405
:103CC00021E02093B303DF91CF911F910F910895CD
:103CD00084EF9FEFF8CFA6C6A8C6CF93DF93A8D6F0
:103CE000EC01892B11F40ADE36DECE01DF91CF9193
:103CF0000895CF93DF939CD6EC01892B09F4FEDD68
:103D0000CE01DF91CF9108958091370290913802D2
:103D10000895CF93DF938091B303D0E0C0E0882370
:103D2000D1F09AD6EC01892BB1F4E8DD14DE809154
:103D3000370290913802E7D1E8D2EC01892B59F48F
:103D400088EB93E0D5DD8CEB93E0D2DD84EB93E060
:103D5000CFDD1092B303CE01DF91CF910895EF92A2
:103D6000FF920F931F93CF93DF93EC017A018B01A6
:103D70000F5F1F4F0E9DA0010F9D500D1E9D500DFA
:103D8000112470E060E00E94F42E90E080E0F0E00A
:103D9000E0E02FEFE816F90639F4DF91CF911F919B
:103DA0000F91FF90EF9008951A821982288330971F
:103DB00011F0D283C1830196FE01C00FD11FEACF5B
:103DC000CF92DF92EF92FF920F931F93CF93DF93E7
:103DD00005EF14E00C7F43E050E069E372E08FE30D
:103DE00092E01AD489E3E82E82E0F82E9FE3C92EF0
:103DF00092E0D92ECCE5D5E0D7014D915D917D01C2
:103E0000F601619171916F01198308835D834C8381
:103E10005B834A837F836E839B012F5F3F4F249F89
:103E2000C001259F900D349F900D1124998788879C
:103E30000115110511F0C80192DF88859985080FD9
:103E4000191F2A96FFE3EF16F2E0FF06A9F6E2EC4F
:103E5000F3E080E391E0DF019C011D9221503040AE
:103E6000E1F71092C1031092C00310927B051092EB
:103E70007A0510927F0510927E0510927D051092B2
:103E80007C05109281051092800510928305109296
:103E90008205109285051092840510928905109272
:103EA0008805109287051092860510928B05109256
:103EB0008A0510928D0510928C051092590510926A
:103EC000580510925B0510925A0590E080E0DF9152
:103ED000CF911F910F91FF90EF90DF90CF900895B9
:103EE0000097F1F0F894AFE3B2E0ECE5F5E030E0F4
:103EF00020E04D915D9148175907A8F04281538108
:103F00004115510581F08AE0829FF001839FF00DF9
:103F10001124E45AFA4F80819181009759F47894E2
:103F200090E080E008952F5F3F4F3A9623303105AF
:103F300001F7F5CFDC0111966D917C91718360835F
:103F40004150510953834283FC012193CF0178945E
:103F50000895009749F1DC018E91853041F4E0919C
:103F60005A05F0915B053097F9F0CD011994853031
:103F7000D8F4282F30E0F8948FEF8C938AE0829F5A
:103F8000F001839FF00D1124E45AFA4F8081918152
:103F900012969C938E931197B183A0838281938113
:103FA00001969383828378940895CF92DF92EF9263
:103FB000FF920F931F93CF93DF939C0185EC93E0C7
:103FC0008C7F4115510509F49BC02115310509F479
:103FD00097C06115710509F493C07A01AB01B9016D
:103FE0006D5F7F4F6C7F9B012F5F3F4F249F800150
:103FF000259F100D349F100D1124F89420917A05FF
:1040000030917B05232B59F4209182053091830553
:104010002115310569F12017310708F058C02091AA
:10402000840530918505232B91F4209182053091F0
:104030008305820F931F20918C0530918D052115EA
:10404000310509F441C02017310708F056C07894B3
:10405000CFEFDFEF86EF9FEFF701D183C083DF91D2
:10406000CF911F910F91FF90EF90DF90CF90089527
:10407000C3E0D0E0C090C003D090C1032DE231E096
:104080002C193D092017310710F32AE02C9FF0016D
:104090002D9FF00D1124E45AFA4F918380835583AC
:1040A0004483538342837783668311870087009715
:1040B00009F055DE0C0D1D1D1093C1030093C003C4
:1040C000789490E080E0C8CFC4E0D0E0D3CFC3E0E4
:1040D000D0E02AE02C9FF0012D9FF00D1124E45A2E
:1040E000FA4F91838083558344835383428377833C
:1040F0006683009729F333DEE3CFC4E0D0E0E9CF55
:104100008FEF9FEFACCF9C010397029708F069C037
:10411000F89484E09AE0482F50E0241735070CF417
:104120004DC091E08AE0829FF001839FF00D112441
:10413000E45AFA4F1182108215821482138212827D
:10414000178216829923B1F180917A0590917B05AF
:10415000892BA9F420918205309183052115310521
:1041600071F08091C0039091C103821B930B9093D7
:10417000C1038093C0031092830510928205809141
:10418000840590918505892BA9F420918C053091A7
:104190008D052115310571F08091C0039091C10307
:1041A000821B930B9093C1038093C00310928D05E3
:1041B00010928C05789490E080E00895949FF0012F
:1041C000959FF00D1124E45AFA4F40815181452BFF
:1041D00031F440855185452B11F481509CCF90E0FE
:1041E000A1CF8FEF9FEF08954115510549F1009739
:1041F00039F16115710521F1F8942091580530913C
:104200005905232BB9F420915A0530915B05232BD6
:1042100089F4909359058093580570935B056093DA
:104220005A05789425E030E090E080E0FA0131838F
:104230002083089578942FEF3FEF86EF9FEFF6CF1E
:104240008FEF9FEF0895059769F4F8941092590540
:104250001092580510925B0510925A05789490E0E0
:1042600080E008958FEF9FEF08956115710519F4AF
:10427000F0E0E0E011C08530910581F4E09158054F
:10428000F09159053097A1F3CB010196199500974C
:1042900079F3FC0185E08193CF0108959C012350BF
:1042A00031092230310520F72AE0289FD001299FCB
:1042B000B00D1124A45ABA4F2D913C911197232B84
:1042C000B9F216962D913C9117972617370780F271
:1042D000F89412962D913C9113972115310529F0F0
:1042E000ED91FC911197309711F47894C1CF4181F1
:1042F000528111965C934E932150310913963C9351
:104300002E93129781937894C7CFE2EFF4E086E67C
:10431000DF011D928A95E9F7E2ECF3E080E391E09A
:10432000DF019C011D9221503040E1F71092C10342
:104330001092C003ECE5F5E082E3DF011D928A955F
:10434000E9F7E8E5F5E084E0DF011D928A95E9F7F9
:1043500090E080E00895CF93DF93C0914502D09123
:104360004602CF3FDC0759F420D490934602809355
:10437000450297FF09C0D0934602C093450284EFDF
:104380009FEFDF91CF91089590E080E0FACF8230E7
:10439000910528F480938E0590E080E008958FEFDA
:1043A0009FEF08954F925F926F927F92AF92BF926C
:1043B000CF92DF92EF92FF920F931F93CF93DF93F1
:1043C0001F921F92CDB7DEB71A821982009709F4A7
:1043D00078C06115710509F474C0209145023091CF
:1043E000460207EF1FEF2F3F3F4F09F444C06B0118
:1043F0005C01412C512C3201F12CE12C10E000E049
:104400009E012F5F3F4FA6014E195F09B5016E0D4A
:104410007F1D809145029091460226D4892B09F098
:104420004AC089819A81009741F4E114F10429F48A
:1044300020918E05222309F441C0E80EF91EEC14E8
:10444000FD04C8F480E8481684E858068EE1680642
:10445000710418F560E070E0CB0154D72AE0420EF9
:10446000511C611C711C0A3F4FEF140721F0043FDF
:104470008FEF1807A1F4C8010F900F90DF91CF9133
:104480001F910F91FF90EF90DF90CF90BF90AF9072
:104490007F906F905F904F90089501EF1FEF81E044
:1044A00090E0013F2FEF120711F090E080E0892BA0
:1044B00009F4A6CFE0CF04EF1FEFDDCF0AEF1FEF27
:1044C000DACF0FEF1FEFD7CF4F925F926F927F92AD
:1044D000AF92BF92CF92DF92EF92FF920F931F9312
:1044E000CF93DF931F921F92CDB7DEB71A82198246
:1044F000009709F478C06115710509F474C0209122
:1045000045023091460207EF1FEF2F3F3F4F09F45E
:1045100044C06B015C01412C512C3201F12CE12C87
:1045200010E000E09E012F5F3F4FA6014E195F098A
:10453000B5016E0D7F1D80914502909146024AD3D0
:10454000892B09F04AC089819A81009741F4E114CE
:10455000F10429F420918E05222309F441C0E80ECC
:10456000F91EEC14FD04C8F480E4481682E45806F1
:104570008FE06806710418F560E070E0CB01C2D6E8
:104580002AE0420E511C611C711C0E3F4FEF1407B4
:1045900021F0043F8FEF1807A1F4C8010F900F908E
:1045A000DF91CF911F910F91FF90EF90DF90CF900F
:1045B000BF90AF907F906F905F904F90089502EF03
:1045C0001FEF81E090E0023F2FEF120711F090E023
:1045D00080E0892B09F4A6CFE0CF04EF1FEFDDCFF9
:1045E0000EEF1FEFDACF0FEF1FEFD7CF809145020D
:1045F000909146028F3F980749F0CFD2892B49F41A
:104600008FEF9FEF909346028093450290E080E009
:10461000089584EF9FEF0895CF92DF92EF92FF927B
:104620000F931F93CF93DF9321E04115510509F0BC
:1046300020E04150510921112CC0DC01FB01D12C9B
:10464000C12C21E022C03FEFC31AD30A7D010D9196
:104650001D91E701EA80FB80E016F106A8F42081B5
:104660003181E280F380F182E08233832283ED9016
:10467000FC9011979D0122503109E901F982E882ED
:1046800011961C930E9320E03296C416D506D8F2EC
:10469000D2CFDF91CF911F910F91FF90EF90DF90DC
:1046A000CF900895FC01680F791F90E080E0E61735
:1046B000F70709F408952191820F911DF8CF2091F9
:1046C0008F05211113C047DE009791F410929505D4
:1046D00010929405109293051092920510929105F4
:1046E0001092900521E020938F05089584EF9FEFAD
:1046F0000895AF92BF92CF92DF92EF92FF920F9305
:104700001F93CF93DF93009709F460C046305105A3
:1047100008F45CC020918F05C7EFDFEF222309F476
:1047200049C08C01060F171FF801C080D180C11449
:10473000D10409F44EC096012A5F3F4F4217530738
:1047400008F447C07C01809194059091950593836E
:104750008283B6016C5F7F4F5801A60EB71EC80159
:10476000A1DFF5019183808364E070E0C8011ADE67
:10477000EC01892BF9F481E090E009DEB601C80173
:10478000049610DEEC01892B91F462E070E0C50123
:1047900009DEEC01892B59F4C701DBDB809194051C
:1047A000909195050196909395058093940590E0DE
:1047B00080E0EDDDCE01DF91CF911F910F91FF9051
:1047C000EF90DF90CF90BF90AF900895CFEFDFEFE5
:1047D000F1CFC9EFDFEFEECF6F927F928F929F9272
:1047E000AF92BF92CF92DF92EF92FF920F931F93FF
:1047F000CF93DF9300D01F92CDB7DEB7009709F4B7
:104800007AC04115510509F476C020918F0507EF54
:104810001FEF222309F44DC03A017B015C0164E0E3
:1048200070E0CE01019650DE8C01892B09F041C069
:1048300009811A810115110509F45AC0480186E061
:10484000880E911CB701680D791D809147029091E7
:1048500048020BDD6C01009709F450C0A70170E01D
:1048600060E00E94F42E89819A81AB81BC81EC0CBE
:10487000FD1CF70181939193A193B1937F0181E096
:1048800090E085DDB801C7011FDE892B31F562E0BC
:1048900070E0C701800F911F17DE8C01892BE9F4AE
:1048A00090E080E074DDF501D182C082F301918255
:1048B0008082C8010F900F900F900F90DF91CF91E1
:1048C0001F910F91FF90EF90DF90CF90BF90AF902E
:1048D0009F908F907F906F90089590E080E057DDDB
:1048E000F50111821082F30111821082C60131DBC1
:1048F00009EF1FEFDECF0FEF1FEFDBCF06EF1FEF4C
:10490000D8CF0097A1F04115510589F02115310547
:1049100071F0F90136966E177F0748F0DC012D9390
:104920003C93DA01ED93FC9390E080E008958FEFE3
:104930009FEF0895AF92BF92CF92DF92EF92FF92D6
:104940000F931F93CF93DF93009709F45FC0411536
:10495000510509F45BC06530710508F457C020911A
:104960008F05C7EFDFEF222391F1DC01CD90DC90C2
:1049700011971296ED91FC9196012A5F3F4FC9EF76
:10498000DFEF2617370719F5C0919005D0919105F3
:10499000209749F521E030E0309391052093900570
:1049A0007A018C01F0939305E09392055601B4E0EF
:1049B000AB0EB11CB50176DE0A0D1B1DF80120817E
:1049C00031818217930729F5D701CD92DC92CE0170
:1049D000DF91CF911F910F91FF90EF90DF90CF90DB
:1049E000BF90AF90089520919205309193052F5F6D
:1049F0003F4FCCEFDFEFE217F30790F2CBEFDFEFA3
:104A00002E173F0768F2D0E0C0E0CACFCFEFDFEF4C
:104A1000DECFC3EFDFEFDBCF84E090E0089582E0EC
:104A200090E008958CEF9FEF089580E290E0089564
:104A3000109295051092940510929305109292058C
:104A4000109291051092900590E080E00895909367
:104A5000480280934702089580918F05882391F042
:104A6000C5DD009789F41092950510929405109277
:104A70009305109292051092910510929005109254
:104A80008F05089590E080E00895009749F0611542
:104A9000710531F0FC0111821082FB01118210823C
:104AA0000895F3CF26E030E040E855E260E070E0A2
:104AB00090E080E000C08130910569F01CF4892B02
:104AC00039F008958230910549F0039751F0089527
:104AD00083EA95E06BC680E496E0FCCF8DED96E02E
:104AE000F9CF8AE797E0F6CF1F920F920FB60F9299
:104AF00011240BB60F922F933F934F935F936F93B5
:104B00007F938F939F93AF93BF93EF93FF938FE820
:104B10009DEF9093250180932401BAD0FF91EF91EE
:104B2000BF91AF919F918F917F916F915F914F91C5
:104B30003F912F910F900BBE0F900FBE0F901F90C3
:104B400018958FE89DEF9093250180932401A3E7AA
:104B5000B0E08C918E7F8C93E0E2F1E080818C7FDD
:104B60008083E1E2F1E08081877E808380818460C0
:104B7000808380818C7F80838C9181608C93089569
:104B8000E3E7F0E0808190819E7F908381700895BB
:104B900081E0089510929605089568EE73E080E034
:104BA00090E0B0D390E080E0089526E030E040E06F
:104BB00050E16EE070E090E080E07DDF83EA95E018
:104BC0002BD5892B21F083EA95E040D5F7CF90E0F3
:104BD00080E00895CF92DF92EF92FF920F931F93A0
:104BE000CF93DF936B017A01E9011982188283EA7E
:104BF00095E012D5892B69F18601CC24C39482E01B
:104C0000D82E80919605811110C083EA95E01ED5BB
:104C10000297B9F7C0929605F801D1928F01888169
:104C20009981019699838883ECCF888199818E152B
:104C30009F0578F483EA95E009D58F3F9807A9F39B
:104C4000F80181938F0188819981019699838883E6
:104C5000ECCF90E080E0DF91CF911F910F91FF901A
:104C6000EF90DF90CF9008950F931F93CF93DF9332
:104C7000EA01890183EA95E00E94662EF801D1835A
:104C8000C08390E080E0DF91CF911F910F91089554
:104C9000CF92DF92EF92FF928091970591E0980F6B
:104CA00090939705882369F021E030E030939905CF
:104CB0002093980580939705FF90EF90DF90CF9019
:104CC00008957894E0914B02F0914C02C28CD38C01
:104CD000E48CF58C0E949603B701A60190E080E079
:104CE0000E94B902F894809197058150E3CF0F9309
:104CF0001F93CF93DF9310928A081092890838D3BC
:104D0000D1DEC0914B02D0914C02198218826FEF14
:104D10007FEFCB010E943C0370E060E090E080E018
:104D20000E94BD01009709F03AC00E944905F8941D
:104D30007894BE016E5D7F4F8A819B810E94C00185
:104D4000892B59F46FEF7FEFCB010E944F020E9435
:104D50003603882311F081E08EA3F894F2DE0E94DE
:104D60003903882311F080E008C00E9436038111C6
:104D7000FACF81E09EA19111F6CF809389087894B3
:104D80000E946A0D8C0178948091890881110CC071
:104D90000E9475060E941B03F89490E080E0DF916A
:104DA000CF911F910F9108950E9419030E9439031A
:104DB0008823D9F081E080938A0890918A0881E065
:104DC000911180E08093890880918A088111D8DE52
:104DD0000130110529F40E946A0D892B09F4DADEED
:104DE0000E946A0D8C01D4DECFCF0E943603811160
:104DF000E1CF81E09EA19111DECF80E0DCCF505861
:104E0000BB27AA270ED057C148D130F04DD120F092
:104E100031F49F3F11F41EF43DC10EF4E095E7FB21
:104E20000AC1E92F59D180F3BA17620773078407C3
:104E3000950718F071F49EF588C10EF4E0950B2EDD
:104E4000BA2FA02D0B01B90190010C01CA01A001DC
:104E50001124FF27591B99F0593F50F4503E68F137
:104E60001A16F040A22F232F342F4427585FF3CF78
:104E7000469537952795A795F0405395C9F77EF449
:104E80001F16BA0B620B730B840BBAF09150A1F092
:104E9000FF0FBB1F661F771F881FC2F70EC0BA0F18
:104EA000621F731F841F48F4879577956795B795A0
:104EB000F7959E3F08F0B3CF9395880F08F0992798
:104EC000EE0F97958795089529D180F09F3740F48C
:104ED00091110EF43BC160E070E080E89FE308951B
:104EE00026F01B16611D711D811DABC0C5C07FD092
:104EF00008F481E00895F8D088F09F5790F0B92F1A
:104F00009927B751A0F0D1F0660F771F881F991F1E
:104F10001AF0BA95C9F712C0B13081F016D1B1E0DC
:104F2000089513C1672F782F8827B85F39F0B93FEC
:104F3000CCF3869577956795B395D9F73EF4909520
:104F40008095709561957F4F8F4F9F4F0895E8949E
:104F500009C097FB3EF490958095709561957F4FC1
:104F60008F4F9F4F9923A9F0F92F96E9BB2793956F
:104F7000F695879577956795B795F111F8CFFAF47F
:104F8000BB0F11F460FF1BC06F5F7F4F8F4F9F4FB0
:104F900016C0882311F096E911C0772321F09EE80E
:104FA000872F762F05C0662371F096E8862F70E074
:104FB00060E02AF09A95660F771F881FDAF7880F4E
:104FC0009695879597F90895A9D080F09F3740F47A
:104FD00091110EF0BBC060E070E080E89FEB089597
:104FE00026F41B16611D711D811D2BC045C0990F34
:104FF0000008550FAA0BE0E8FEEF16161706E807A3
:10500000F907C0F012161306E407F50798F0621BC3
:10501000730B840B950B39F40A2661F0232B242B98
:10502000252B21F408950A2609F4A140A6958FEFB7
:10503000811D811D089597F99F6780E870E060E009
:105040000895882371F4772321F09850872B762FC9
:1050500007C0662311F499270DC09051862B70E08C
:1050600060E02AF09A95660F771F881FDAF7880F9D
:105070009695879597F908959F3F31F0915020F4C8
:10508000879577956795B795880F911D9695879524
:1050900097F908959FEF80EC089500240A9416165E
:1050A000170618060906089500240A941216130616
:1050B000140605060895092E0394000C11F48823A4
:1050C00052F0BB0F40F4BF2B11F460FF04C06F5FC0
:1050D0007F4F8F4F9F4F089557FD9058440F551F96
:1050E00059F05F3F71F04795880F97FB991F61F06A
:1050F0009F3F79F087950895121613061406551FE1
:10510000F2CF4695F1DF08C0161617061806991F4C
:10511000F1CF86957105610508940895E5DFA0F04B
:10512000BEE7B91788F4BB279F3860F41616B11D87
:10513000672F782F8827985FF7CF869577956795A3
:10514000B11D93959639C8F30895E894BB27662757
:105150007727CB0197F908954ADF08F48FEF089578
:105160000BD0A9CF9ADF28F09FDF18F0952309F024
:1051700062CF90CF1124EACFAFDFA0F3959FD1F398
:10518000950F50E0551F629FF001729FBB27F00DF5
:10519000B11D639FAA27F00DB11DAA1F649F66274A
:1051A000B00DA11D661F829F2227B00DA11D621F99
:1051B000739FB00DA11D621F839FA00D611D221F53
:1051C000749F3327A00D611D231F849F600D211D37
:1051D000822F762F6A2F11249F5750408AF0E1F0DA
:1051E00088234AF0EE0FFF1FBB1F661F771F881F23
:1051F00091505040A9F79E3F510570F01CCFA6CFAB
:105200005F3FECF3983EDCF3869577956795B7950D
:10521000F795E7959F5FC1F7FE2B880F911D969537
:10522000879597F908951F920F920FB60F92112448
:105230002F933F938F939F93AF93BF9380919B0541
:1052400090919C05A0919D05B0919E0530919A0585
:1052500023E0230F2D3758F50196A11DB11D209392
:105260009A0580939B0590939C05A0939D05B09310
:105270009E0580919F059091A005A091A105B091F8
:10528000A2050196A11DB11D80939F059093A005D5
:10529000A093A105B093A205BF91AF919F918F916B
:1052A0003F912F910F900FBE0F901F90189526E8F9
:1052B000230F0296A11DB11DD2CF3FB7F894809164
:1052C0009F059091A005A091A105B091A20526B5DA
:1052D000A89B05C02F3F19F00196A11DB11D3FBF2E
:1052E000BA2FA92F982F8827BC01CD01620F711DFD
:1052F000811D911D42E0660F771F881F991F4A95F7
:10530000D1F708958F929F92AF92BF92CF92DF9282
:10531000EF92FF926B017C01D0DF4B015C01C11465
:10532000D104E104F104D9F0FED4C7DF681979098A
:105330008A099B09683E73408105910580F321E04D
:10534000C21AD108E108F10888EE880E83E0981EA1
:10535000A11CB11CC114D104E104F10431F7FF9088
:10536000EF90DF90CF90BF90AF909F908F90089577
:10537000789484B5826084BD84B5816084BD85B530
:10538000826085BD85B5816085BDEEE6F0E08081F7
:1053900081608083E1E8F0E0108280818260808318
:1053A000808181608083E0E8F0E08081816080839B
:1053B000E1EBF0E0808184608083E0EBF0E08081CD
:1053C00081608083E1E9F0E0808182608083808178
:1053D00081608083E0E9F0E0808181608083E1EAA0
:1053E000F0E0808182608083808181608083E0EA58
:1053F000F0E0808181608083E1E2F1E08081826081
:105400008083808181608083E0E2F1E0808181603F
:105410008083EAE7F0E0808184608083808182601D
:105420008083808181608083808180688083109206
:10543000C1000895863308F0865320917B00982F91
:105440009870277F922B90937B002091490290E4E3
:10545000299F900111248770822B80937C0080917A
:105460007A00806480937A0080917A0086FDFCCF78
:10547000809178009091790008958150823108F0F0
:1054800059C0E82FF0E08827E85BF54D8F4F82C4C4
:10549000682A6C2A5A2A602A642A9A2A6F2A752A4C
:1054A000792A7F2A832A872A8D2A912A9A2A952A5D
:1054B0009B2A9F2A809180008F7780938000089597
:1054C000809180008F7DF9CF80918000877FF5CF1C
:1054D00084B58F7784BD089584B58F7DFBCF80918F
:1054E000B0008F778093B00008958091B0008F7DD9
:1054F000F9CF809190008F778093900008958091EC
:1055000090008F7DF9CF80919000877FF5CF8091BB
:10551000A0008F778093A00008958091A0008F7DD8
:10552000F9CF8091A000877FF5CF809120018F7700
:10553000809320010895809120018F7DF9CF809183
:105540002001877FF5CFCF93DF9390E0FC01E65DEC
:10555000FE4F249180599E4FFC0184918823C9F00D
:1055600090E0880F991FFC01E053FE4FA591B49184
:10557000FC01EA54FE4FC591D49161110DC09FB753
:10558000F8948C91209582238C93888128232883FA
:105590009FBFDF91CF910895623051F49FB7F89487
:1055A0003C91822F809583238C93E8812E2BEFCF23
:1055B0008FB7F894EC912E2B2C938FBFEACF1F93CB
:1055C000CF93DF93282F30E0F901EC51FF4F849106
:1055D000F901E65DFE4FD491F901E059FE4FC49107
:1055E000CC23A1F0162F811148DFEC2FF0E0EE0F55
:1055F000FF1FEA54FE4FA591B4918FB7F894EC9138
:10560000111108C0D095DE23DC938FBFDF91CF91BD
:105610001F910895DE2BF8CFFC01918D228D892FEB
:1056200090E0805C9F4F821B91098F7399270895AA
:10563000FC01918D828D981731F0828DE80FF11D5C
:10564000858D90E008958FEF9FEF0895FC01918D77
:10565000828D981761F0A28DAE0FBF2FB11D5D96A0
:105660008C91928D9F5F9F73928F90E008958FEF42
:105670009FEF0895FC01538D448D252F30E0842F3A
:1056800090E0821B930B541710F0CF96089501976A
:105690000895FC01A48DA80FB92FB11DA35ABF4FC7
:1056A0002C91848D90E001968F739927848FA68921
:1056B000B7892C93A089B1898C91837080648C9375
:1056C000938D848D981306C00288F389E02D808124
:1056D0008F7D80830895CF93DF93EC01888D88239D
:1056E000B1F0AA89BB89E889F9898C9185FD03C04D
:1056F000808186FD0CC00FB607FCF7CF8C9185FF2B
:10570000F2CF808185FFEDCFCE01C3DFEACFDF91FD
:10571000CF910895EF92FF920F931F93CF93DF9352
:10572000EC0181E0888F9B8D8C8D98131AC0E889DD
:10573000F989808185FF15C09FB7F894EE89FF89AC
:105740006083E889F98980818370806480839FBF4A
:1057500081E090E0DF91CF911F910F91FF90EF904A
:105760000895F62E0B8D10E00F5F1F4F0F7311275A
:10577000E02E8C8D8E110BC00FB607FCFACFE88996
:10578000F989808185FFF5CFCE0183DFF2CFEB8DE4
:10579000EC0FFD2FF11DE35AFF4FF0829FB7F894F5
:1057A0000B8FEA89FB8980818062D0CFCF92DF9214
:1057B000EF92FF921F93CF93DF93EC016A017B017D
:1057C000122FE889F98982E08083C11481EED8061E
:1057D000E104F10499F060E079E08DE390E0A70145
:1057E0009601B6D221503109410951095695479584
:1057F00037952795211580E1380790F0E889F989D8
:10580000108260E874E88EE190E0A7019601A0D2D2
:1058100021503109410951095695479537952795EA
:10582000EC85FD853083EE85FF852083188EEC891D
:10583000FD891083EA89FB89808180618083EA8900
:10584000FB89808188608083EA89FB898081806808
:105850008083EA89FB8980818F7D8083DF91CF916E
:105860001F91FF90EF90DF90CF9008951F920F92BD
:105870000FB60F9211240BB60F922F938F939F9315
:10588000EF93FF93E091B305F091B4058081E0912F
:10589000B905F091BA0582FD1DC090818091BC05CB
:1058A0008F5F8F732091BD05821741F0E091BC0599
:1058B000F0E0ED55FA4F958F8093BC05FF91EF9185
:1058C0009F918F912F910F900BBE0F900FBE0F9055
:1058D0001F9018958081F2CF1F920F920FB60F92F2
:1058E00011240BB60F922F933F934F935F936F93B7
:1058F0007F938F939F93AF93BF93EF93FF9383EA2D
:1059000095E0C7DEFF91EF91BF91AF919F918F918D
:105910007F916F915F914F913F912F910F900BBEAF
:105920000F900FBE0F901F901895E3EAF5E01382D9
:10593000128288EE93E0A0E0B0E084839583A68392
:10594000B7838FEC92E09183808385EC90E095871C
:10595000848784EC90E09787868780EC90E0918B39
:10596000808B81EC90E0938B828B82EC90E0958B26
:10597000848B86EC90E0978B868B118E128E138E23
:10598000148E08951F920F920FB60F9211240BB62A
:105990000F922F938F939F93EF93FF93E091500675
:1059A000F09151068081E0915606F091570682FDF4
:1059B0001DC09081809159068F5F8F7320915A0688
:1059C000821741F0E0915906F0E0E05CF94F958FC5
:1059D00080935906FF91EF919F918F912F910F9096
:1059E0000BBE0F900FBE0F901F9018958081F2CFC5
:1059F0001F920F920FB60F9211240BB60F922F9396
:105A00003F934F935F936F937F938F939F93AF9346
:105A1000BF93EF93FF9380E496E03BDEFF91EF911D
:105A2000BF91AF919F918F917F916F915F914F91B6
:105A30003F912F910F900BBE0F900FBE0F901F90B4
:105A40001895E0E4F6E01382128288EE93E0A0E07D
:105A5000B0E084839583A683B7838FEC92E0918333
:105A600080838DEC90E0958784878CEC90E097871D
:105A7000868788EC90E0918B808B89EC90E0938B0B
:105A8000828B8AEC90E0958B848B8EEC90E0978BE8
:105A9000868B118E128E138E148E08951F920F9284
:105AA0000FB60F9211240BB60F922F938F939F93E3
:105AB000EF93FF93E091ED06F091EE068081E09187
:105AC000F306F091F40682FD1DC090818091F606E8
:105AD0008F5F8F732091F706821741F0E091F606F1
