:1000000048C1000077C1000075C1000073C1000045
:1000100071C100006FC100006DC100006BC1000024
:1000200069C1000067C1000065C1000063C1000034
:1000300061C100005FC100005DC100005BC1000044
:1000400059C1000057C1000055C1000053C1000054
:1000500051C100004FC100004DC100000C9471540B
:1000600049C100000C9468580C949E5843C100008C
:1000700041C100003FC100003DC100003BC1000084
:1000800039C1000037C1000035C1000033C1000094
:100090000C94F4580C942A592DC100002BC1000077
:1000A00029C1000027C1000025C1000023C10000B4
:1000B00021C100001FC100001DC100001BC10000C4
:1000C00019C1000017C1000015C100000C9480592F
:1000D0000C94B6590FC100000C940C5A0C94425A5F
:1000E00009C1000005A84CCDB2D44EB93836A902DA
:1000F0000C50B9918688083CA6AAAA2ABE00000026
:10010000803F07634236B79BD8A71A39685618AEA6
:10011000BAAB558C1D3CB7CC5763BD6DEDFD753E3C
:10012000F6177231BF000000803F08000000BE9249
:100130002449123EABAAAA2ABECDCCCC4C3E00002C
:100140000080BEABAAAAAA3E00000000BF000000CB
:10015000803F0000000000084178D3BB4387D113E3
:100160003D190E3CC3BD4282AD2B3E68EC8276BE8B
:10017000D98FE1A93E4C80EFFFBE01C4FF7F3F0055
:100180000000000000000A0B02090C0D0E08070316
:10019000040100000000000000000000000000005A
:1001A000000000000000000000000000000000004F
:1001B000121110000000000000000000000000000C
:1001C00000000000000000000000010210202008D4
:1001D00008102040102040800201020108040201A2
:1001E0000102040810204080804020100804020111
:1001F000800402018040201008040201080402016A
:1002000001020408102040800102040810204080F0
:1002100005050505070508080808020202020A0A82
:1002200008080404040401010101010101010303A0
:10023000030303030303040707070C0C0C0C0C0C4B
:100240000C0C0202020206060606060606060B0B48
:100250000B0B0B0B0B0B00002200250028002B00C2
:100260002E003100340002010000050108010B01DD
:1002700000002100240027002A002D003000330058
:1002800001010000040107010A01C7585359DF5951
:100290006B5A11241FBECFEFD1E2DEBFCDBF00E00D
:1002A0000CBF14E0A0E0B2E0EEE5F6EB00E00BBF1F
:1002B00002C007900D92AA3FB107D9F722E1AAEF39
:1002C000B4E001C01D92A433B207E1F711E0C9E424
:1002D000D1E000E006C021970109802FFE010E94B5
:1002E000FC5AC534D10780E00807A9F70E94324FB5
:1002F0000C942D5B85CE611102C00C94D5566130F3
:10030000E1F362E0FACF662319F061E00C94115733
:1003100060E0FCCFCF93282F8823E1F0CB01BA0116
:10032000CFEFC20FEC2FF0E0E650FB4F20812130E1
:1003300059F490580E949B509B01AC016C2F70E0C7
:1003400090E080E0CF91A2C00E9496508C2FCF9178
:100350000C949B55CF9108950F931F938B019C0193
:1003600083E036952795179507958A95D1F7005C18
:100370001A4F462F477021E030E0F90102C0EE0F1E
:10038000FF1F4A95E2F7AF01F80120812423CB013A
:100390000196211102C090E080E01F910F91089515
:1003A0000F931F938B019C0183E03695279517953A
:1003B00007958A95D1F7677081E090E001C0880FBA
:1003C0006A95EAF7F801E05CFA4F2081452B31F499
:1003D0008095822380831F910F910895822BFACFFD
:1003E0004F925F926F927F928F929F92AF92BF9245
:1003F000CF92DF92EF92FF920F931F93CF93DF93F1
:100400004B015C0129013A01670161E0882D0E94DE
:10041000D556E4012196AE01C501B401C1DF20E04B
:1004200030E0A901C801B6010E94535218168CF49D
:10043000F401E650FB4F81E08083C801B6010E94C1
:100440009B506B01C301B2010E949B50A601C401E5
:1004500021D0CE01DF91CF911F910F91FF90EF90AE
:10046000DF90CF90BF90AF909F908F907F906F90D4
:100470005F904F900895882341F08150682F70E07D
:1004800090E080E050E040E08BCF0895862FB901E6
:100490000C949B559C01FC01EC57FE4FE491E150FC
:1004A000E231E0F4F0E08827E75AFD4F8F4F0C94DB
:1004B000FC5A6B02720275028C02A1026E02B60235
:1004C000C202C602DD02F20207031E0333036E02FC
:1004D00048035F03740384B5806884BD60E0822FA5
:1004E0000C94115784B58062F8CF809180008C7F86
:1004F00082608093800080918100807E8061682B83
:100500006093810050938700409386008091800023
:10051000806880938000E2CF809180008C7F826031
:100520008093800080918100807E8061682B609341
:100530008100509387004093860080918000806204
:10054000E8CF809180008C7F8260809380008091D2
:100550008100807E8061682B6093810050938700CA
:1005600040938600809180008860D3CF8091B00056
:1005700080688093B0008091B100887F682B609381
:10058000B100ACCF8091B0008062F3CF8091900039
:100590008C7F82608093900080919100807E80614A
:1005A000682B609391005093970040939600809140
:1005B000900080688093900091CF809190008C7F14
:1005C00082608093900080919100807E8061682B92
:1005D0006093910050939700409396008091900013
:1005E0008062E8CF809190008C7F82608093900041
:1005F00080919100807E8061682B60939100509380
:10060000970040939600809190008860D3CF8091AE
:10061000A0008C7F82608093A0008091A100807EEA
:100620008061682B6093A1005093A7004093A600BF
:100630008091A00080688093A00050CF8091A0009E
:100640008C7F82608093A0008091A100807E806179
:10065000682B6093A1005093A7004093A60080915F
:10066000A0008062E8CF8091A0008C7F82608093A0
:10067000A0008091A100807E8061682B6093A10022
:100680005093A7004093A6008091A0008860D3CF2C
:10069000809120018C7F82608093200180912101D4
:1006A000807E8061682B60932101509327014093E5
:1006B0002601809120018068809320010FCF8091D6
:1006C00020018C7F82608093200180912101807EB7
:1006D0008061682B6093210150932701409326018C
:1006E000809120018062E8CF809120018C7F826020
:1006F0008093200180912101807E8061682B60932E
:1007000021015093270140932601809120018860A8
:10071000D3CFCF93DF93882349F0EB0181500E9420
:10072000785599838883DF91CF910895FB011182D9
:100730001082F9CF0F931F938B019C0183E03695B4
:100740002795179507958A95D1F7075B1A4F462F7E
:10075000477021E030E0F90102C0EE0FFF1F4A951B
:10076000E2F7AF01F80120812423CB01019621118A
:1007700002C090E080E01F910F9108950F931F93A6
:100780008B019C0183E036952795179507958A95EF
:10079000D1F7677081E090E001C0880F6A95EAF7B1
:1007A000F801E75BFA4F2081452B31F480958223D5
:1007B00080831F910F910895822BFACFCF92DF9201
:1007C000EF92FF92CF93DF936B017C0160E086E3B1
:1007D000C816D104E104F10490F486E38C0D0E9464
:1007E000D556E6012196AE01C701B601C7DFCE019D
:1007F000DF91CF91FF90EF90DF90CF9008958C2DF7
:10080000EECF882341F08150682F70E090E080E0C7
:1008100050E040E0B3CF089590E080E008950F935A
:100820001F93009709F48EC06115710509F48AC001
:100830000091F4031091F5032091F6033091F70332
:100840000E3F1F4F2F4F3F4F09F06EC0DB014D9100
:100850005D916D917C914093F4035093F503609307
:10086000F6037093F7034091F4035091F503609100
:10087000F6037091F703DC011296ED91FC918081F3
:100880009181A281B3818093BC069093BD06A09311
:10089000BE06B093BF0684819581A681B7818093FF
:1008A000B8069093B906A093BA06B093BB068085AC
:1008B0009185A285B3858093B4069093B506A093E5
:1008C000B606B093B70684859585A685B7858093CF
:1008D000B0069093B106A093B206B093B3061092FF
:1008E000AC061092AD061092AE061092AF060E94B2
:1008F00007328CE292E390935305809352059093D4
:1009000055058093540590935705809356050E9492
:10091000E630009731F421E030E03093C1062093B7
:10092000C0061F910F9108950091F4031091F503F3
:100930002091F6033091F703FB010083118322839A
:10094000338391CF8FEF9FEFECCF8F929F92AF9237
:10095000BF92CF92DF92EF92FF921F93CF93DF93DC
:100960004B015C011091C30682E090E09093C106B8
:100970008093C00681149104A104B10441F48091D4
:10098000C306811104C08091C206C1E08111C0E09C
:10099000C12CD12C76018091C306811106C08091B3
:1009A000C206811102C0CC23D9F083E090E090937D
:1009B000C1068093C006CC2381F1CCE9DFEF111191
:1009C00002C00E949135CE01DF91CF911F91FF901F
:1009D000EF90DF90CF90BF90AF909F908F90089551
:1009E0006AE070E080E090E00E94E05480E1C80E90
:1009F00087E2D81EE11CF11C8FEF88169806A80626
:100A0000B80631F0C1E08C149D04AE04BF0408F0B8
:100A1000C0E080E00E942A31BECFD0E0C0E0CFCF5E
:100A2000CF92DF92EF92FF920F931F93CF93DF93BA
:100A30008F3F910511F008F051C02091C006309110
:100A4000C1062330310539F02091C0063091C1062E
:100A50002130310531F424E030E03093C106209399
:100A6000C0066A017B01EC0183309105A8F011E01A
:100A7000AE01C701B6010E94E530AB01BC01CE0159
:100A80001123F9F0DF91CF911F910F91FF90EF901B
:100A9000DF90CF900C94B6378C01000F111F0E5AC7
:100AA0001A4FD8018D919C91892B09F30E94C03770
:100AB0000297E9F6D801ED91FC91CE011995182F16
:100AC000D7CF0E94D83790E080E0DF91CF911F917F
:100AD0000F91FF90EF90DF90CF9008958FEF9FEFF1
:100AE000F4CF80E00C942A31CF93DF9386E090E03E
:100AF0009093C1068093C0060E948331EC01E2E529
:100B0000F5E086E0DF011D928A95E9F70E9429351C
:100B10001092C1061092C006CE01DF91CF910895C8
:100B20008091C20608958091AB0608956093F40306
:100B30007093F5038093F6039093F70390E080E0C1
:100B4000089560E070E080E89FE7089560E070E05D
:100B500080E89FE7089560E070E080E89FEF0895E7
:100B600060E070E080E89FEF089560E070E080EC66
:100B70009FEF089560E070E080EC9FEF0895F5DF4F
:100B800060937F0D7093800D8093810D9093820D03
:100B9000F1DF6093730D7093740D8093750D9093D6
:100BA000760DCFDF60937B0D70937C0D80937D0D70
:100BB00090937E0DCBDF6093770D7093780D8093CB
:100BC000790D90937A0DC7DF6093830D7093840D38
:100BD0008093850D9093860DC3DF6093870D70938E
:100BE000880D8093890D90938A0D0895CF92DF929E
:100BF000EF92FF92CF936B017C01AC019B0160915E
:100C00007B0D70917C0D80917D0D90917E0D0E94E9
:100C10002750C1E0882371F0A70196016091830DF0
:100C20007091840D8091850D9091860D0E942750C2
:100C30008111C0E08C2FCF91FF90EF90DF90CF908B
:100C400008950F931F938B019C0100271127207893
:100C50003F770115110520483F4749F4AB01BC011E
:100C60006F77772781E0452B462B472B09F480E0EF
:100C70001F910F910895E5CFCF92DF92EF92FF92EF
:100C8000CF93DF93EA01CC24CA94DC2C7601F901DE
:100C9000C082D182E282F38220E030E0A9010E948A
:100CA000535287FD13C080E090E0A0E8BFE3888343
:100CB0009983AA83BB831C821D821E821F82DF91BF
:100CC000CF91FF90EF90DF90CF9008951882198216
:100CD0001A821B8280E090E0A0E8BFE38C839D83B2
:100CE000AE83BF83ECCF8F929F92AF92BF92CF9291
:100CF000DF92EF92FF926B017C0149015A01BBDF49
:100D0000882349F0C0907F0DD090800DE090810D38
:100D1000F090820D33C0C501B401ADDF8111F2CF77
:100D2000C501B40163DF882309F43DC0E894F7F8F6
:100D300020E030E040E85FE3C701B6010E942750A1
:100D4000882309F4AAC020E030E040E85FE3C7014F
:100D5000B6010E94535220E030E0A9011816CCF4ED
:100D6000C501B4010E9453521816CCF4C0907B0DFB
:100D7000D0907C0DE0907D0DF0907E0DC701B60106
:100D8000FF90EF90DF90CF90BF90AF909F908F90AB
:100D90000895C501B4010E94535218163CF7C12CA6
:100DA000D12C7601EBCF20E030E0A901C501B401E0
:100DB0000E942750882309F470C020E030E040E80A
:100DC0005FE3C501B4019F770E942750811114C0D1
:100DD00020E030E0A901C501B4010E945352181669
:100DE0006CF2A701960160E070E080E89FE30E944A
:100DF0002E506B017C01C2CF20E030E040E050E497
:100E0000C501B4010E942750811107C0A7019601B6
:100E1000C701B6010E945752ECCF20E030E040E01D
:100E20005FE3C501B4010E94275020E030E0A90132
:100E3000811112C0C701B6010E94535287FD34C010
:100E4000C701B601FF90EF90DF90CF90BF90AF90B9
:100E50009F908F900C941053C701B6010E942750A9
:100E600087FF0DC0C501B4010E9404519B01AC0174
:100E7000C501B4010E94535218160CF443CFA501CA
:100E80009401C701B601FF90EF90DF90CF90BF9023
:100E9000AF909F908F900C94BA52C12CD12C80E8C7
:100EA000E82E8FE3F82E6ACF20E030E0A901C701D9
:100EB000B6010E94275087FFE2CF24CF2F923F92A6
:100EC0004F925F926F927F928F929F92AF92BF925A
:100ED000CF92DF92EF92FF920F931F93CF93DF9306
:100EE000CDB7DEB7A2970FB6F894DEBF0FBECDBF69
:100EF000E0917906F0917A06C080D180E280F3809B
:100F0000C092AF0FD092B00FE092B10FF092B20F3B
:100F10008FEF9FEFDC018093B9119093BA11A093EA
:100F2000BB11B093BC1120E030E040E251E4C701B6
:100F3000B6010E94275087FD02C00C94C210109287
:100F4000730F1092740F1092750F1092760F8FEF2F
:100F50009FEFDC018093B1119093B211A093B31174
:100F6000B093B4119CE7E92E92E0F92E23EDA22E66
:100F70002DE0B22E38EB832E32E0932E650110E087
:100F800000E0D7016D917D918D919D917D01F601DC
:100F900061937193819391936F0120E030E0A901F7
:100FA0000E942750882311F00F5F1F4F8E149F045B
:100FB00041F710928F0F1092900F1092910F109294
:100FC000920F1092930F1092940F1092950F10920F
:100FD000960F80E090ECA1EAB3E48093970F909392
:100FE000980FA093990FB0939A0F10929B0F1092A5
:100FF0009C0F10929D0F10929E0F10929F0F1092B7
:10100000A00F1092A10F1092A20F1092A30F109296
:10101000A40F1092A50F1092A60F10925B0F1092C2
:101020005C0F10925D0F10925E0F10925F0F109286
:10103000600F1092610F1092620F8093630F909374
:10104000640FA093650FB093660F1092670F109214
:10105000680F1092690F10926A0F10926B0F109226
:101060006C0F10926D0F10926E0F10926F0F109206
:10107000700F1092710F1092720F0115110509F483
:1010800011C1B801110F880B990B0E94C9504B0177
:101090006C0120E030E044E353E46091730F709101
:1010A000740F8091750F9091760F0E942E500E94C0
:1010B00004517B018C0120E030E0A901B401C6019C
:1010C0000E94275081110C94D41020E030E0A90137
:1010D000B701C8010E942750882311F40C94131102
:1010E00020E030E040E85FE3B701C8010E94C34F51
:1010F0002B013C014092A70F5092A80F6092A90FBC
:101100007092AA0F10E000E0F12CE12CD12CC12C40
:10111000D5016D917D918D919D915D01BFEFEB1A90
:10112000FB0A20E030E0A9010E942750882399F0B3
:10113000EFEFCE1ADE0AB6010D2C000C880B990BCE
:101140000E94C9509B01AC01C301B2010E9427500B
:10115000811101C08701FFE0EF16F104C9F680900C
:10116000730F9090740FA090750FB090760F20E0E1
:1011700030E044E353E4C501B4010E942E500E94C4
:10118000045120E030E044E353E40E9457529B01B5
:10119000AC01C501B4010E94C24F6B017C01C09239
:1011A000AB0FD092AC0FE092AD0FF092AE0F0130CA
:1011B000110511F00C9479112CE739ED40E25FE351
:1011C0000E9457520E94065320E030E048E452E467
:1011D0000E94575260938F0F7093900F8093910FDE
:1011E0009093920F80918F0F9091900FA091910FFB
:1011F000B091920F80935B0F90935C0FA0935D0F63
:10120000B0935E0F8091930F9091940FA091950FE2
:10121000B091960F80935F0F9093600FA093610F32
:10122000B093620F8091970F9091980FA091990FB2
:10123000B0919A0F8093630F9093640FA093650F02
:10124000B093660F80919B0F90919C0FA0919D0F82
:10125000B0919E0F8093670F9093680FA093690FD2
:10126000B0936A0F80919F0F9091A00FA091A10F52
:10127000B091A20F80936B0F90936C0FA0936D0FA2
:10128000B0936E0F8091A30F9091A40FA091A50F22
:10129000B091A60F80936F0F9093700FA093710F72
:1012A000B093720F2FEF3FEFA9012093BD11309340
:1012B000BE114093BF115093C01180915B0F90916C
:1012C0005C0FA0915D0FB0915E0F8093630E9093C1
:1012D000640EA093650EB093660E80915F0F90919F
:1012E000600FA091610FB091620F8093670E909391
:1012F000680EA093690EB0936A0E8091630F90916F
:10130000640FA091650FB091660F80936B0E909360
:101310006C0EA0936D0EB0936E0EC0906F0FD090B8
:10132000700FE090710FF090720FC701B6010E942C
:101330002B506B877C878D879E87C701B6010E94E3
:1013400006536B017C0180906B0F90906C0FA09006
:101350006D0FB0906E0FC501B4010E942B506F83CA
:10136000788789879A8760939F0F7093A00F8093E7
:10137000A10F9093A20FC501B4010E9406536F877D
:10138000788B898B9A8B60938F0F7093900F8093DB
:10139000910F9093920F8090670F9090680FA0909C
:1013A000690FB0906A0FC501B4010E942B502B0148
:1013B0003C014092930F5092940F6092950F70925F
:1013C000960FC501B4010E9406536B837C838D8305
:1013D0009E836093A70F7093A80F8093A90F90939B
:1013E000AA0F2F81388549855A856B857C858D8527
:1013F0009E850E94575260930F0E7093100E80933B
:10140000110E9093120E2F85388949895A896B8560
:101410007C858D859E850E9457524B015C01AC01F5
:101420009B016B817C818D819E810E9457526B8BC9
:101430007C8B8D8B9E8BA3019201C701B6010E940C
:1014400057529B01AC016B897C898D899E890E94D2
:10145000C24F60931B0E70931C0E80931D0E9093D1
:101460001E0EA5019401C301B2010E9457524B0107
:101470005C012B813C814D815E81C701B6010E94D8
:1014800057529B01AC01C501B4010E94C34F609348
:10149000270E7093280E8093290E90932A0E2F8189
:1014A000388549855A85C701B6010E945752609315
:1014B000130E7093140E8093150E9093160E2F85B5
:1014C000388949895A89C701B6010E9457526B0170
:1014D0007C01C092970FD092980FE092990FF092F2
:1014E0009A0FAC019B016B817C818D819E810E9452
:1014F00057524B015C01A30192016B857C858D8560
:101500009E850E9457529B01AC01C501B4010E9407
:10151000C34F60931F0E7093200E8093210E909303
:10152000220EA7019601C301B2010E9457526B011E
:101530007C012B813C814D815E816B857C858D8515
:101540009E850E9457529B01AC01C701B6010E94C3
:10155000C24F60932B0E70932C0E80932D0E9093A0
:101560002E0E8F859889A989BA89B0588093170E55
:101570009093180EA093190EB0931A0E2B813C81F4
:101580004D815E816F81788589859A850E94575249
:101590006093230E7093240E8093250E9093260E55
:1015A000A30192016F81788589859A850E9457529F
:1015B00060932F0E7093300E8093310E9093320E05
:1015C0008FEF9FEFDC018093B5119093B611A0933C
:1015D000B711B093B811A9E4B4E0BC87AB87E1E3DD
:1015E000F4E0FA8FE98F23E33EE03C832B8347E36B
:1015F00051E1588F4F8B38872F838BE8282E8DE051
:10160000382EAB85BC85CD90DD90ED90FD90BC87EC
:10161000AB87C701B6010E942B5020E030E049E3C0
:1016200053E40E945752F101608371838283938354
:10163000C701B6010E94065320E030E049E353E4BD
:101640000E945752D10114966D937D938D939C9374
:101650001797F1011086118612861386A98DBA8D0F
:10166000CD90DD90ED90FD90BA8FA98FC701B601A6
:101670000E942B5020E030E046E153E40E94575294
:101680002B013C01C701B6010E94065320E030E067
:1016900046E153E40E9457526B8B7C8B8D8B9E8B63
:1016A0000FE01EE0E3E6FEE0F88BEF873E8E2D8E26
:1016B0001C8F0B8F0C5F1F4FAF85B8898D909D904D
:1016C000AD90BD90B88BAF87AD8DBE8D2D913D9106
:1016D0004D915D91BE8FAD8F2F8F38A349A35AA333
:1016E000EB8DFC8D24853585468557856B897C89F6
:1016F0008D899E890E9457526B017C01AB8DBC8DF8
:101700002D913D914D915C91C301B2010E945752C0
:101710009B01AC01C701B6010E94C34F6B017C0164
:1017200020E030E0A901F8016489758986899789EC
:101730000E9457529B01AC01C701B6010E94C34FE2
:10174000A50194010E94C34F2F8D38A149A15AA130
:101750000E94C24FAF85B88918966D937D938D9383
:101760009C931B97EBE1FEE0E017F10709F0A0CF97
:1017700060916F0E7091700E8091710E9091720E4B
:101780008090730E9090740EA090750EB090760EAF
:10179000C090770ED090780EE090790EF0907A0E8F
:1017A0009B01AC010E9457522B013C01A501940101
:1017B000C501B4010E9457529B01AC01C301B201A3
:1017C0000E94C34F4B015C01A7019601C701B601FE
:1017D0000E9457529B01AC01C501B4010E94C34F46
:1017E0000E94105320E030E041E953E40E94C24FD0
:1017F000EF81F885EC5BFE4F608371838283938376
:10180000AF89B88D0D911D912D913D91B88FAF8B02
:10181000EF81F8850193119321933193F887EF833A
:10182000EC5BFF4F6083718382839383FCE02F0E18
:10183000311C21E634E04B855C852417350709F01F
:10184000E0CE6093A30F7093A40F8093A50F9093A5
:10185000A60F8B899C89AD89BE8980939B0F90933D
:101860009C0FA0939D0FB0939E0F68E370E080E003
:1018700090E00E949A03909316118093151143E013
:1018800050E0BE016F5F7F4F0E94890369817A81BA
:1018900090E080E00E94C7506B017C01C092DF0F96
:1018A000D092E00FE092E10FF092E20F20914F1101
:1018B0003091501140915111509152116091C002DC
:1018C0007091C1028091C2029091C3020E9457524E
:1018D0004B015C012091C4023091C5024091C602C7
:1018E0005091C702C701B6010E9457529B01AC013B
:1018F000C501B4010E94C34F6B017C0120915311BB
:101900003091541140915511509156116091CC0273
:101910007091CD028091CE029091CF020E945752D9
:101920009B01AC01C701B6010E94C34F6093231015
:101930007093241080932510909326102091D0024C
:101940003091D1024091D2025091D3020E9457525D
:101950009B01AC012093930E3093940E4093950E0F
:101960005093960E60918B0E70918C0E80918D0E1F
:1019700090918E0E0E94C24F6093970E7093980EB6
:101980008093990E90939A0EEBE4FEE083E69EE03E
:10199000DF01A05FBE4F4D915D916D917C914193B0
:1019A0005193619371938E179F0791F766E370E0EF
:1019B00080E090E00E949A03909336118093351155
:1019C00043E050E0BE016F5F7F4F0E948903698151
:1019D0007A8190E080E00E94C7506B017C01C09248
:1019E000DB0FD092DC0FE092DD0FF092DE0F209142
:1019F0005711309158114091591150915A116091DD
:101A0000D8027091D9028091DA029091DB020E9493
:101A100057524B015C012091DC023091DD02409174
:101A2000DE025091DF02C701B6010E9457529B01AE
:101A3000AC01C501B4010E94C34F6B017C01209130
:101A40005B1130915C1140915D1150915E1160917C
:101A5000E4027091E5028091E6029091E7020E9413
:101A600057529B01AC01C701B6010E94C34F60935E
:101A70001F107093201080932110909322102091BA
:101A8000E8023091E9024091EA025091EB020E9493
:101A900057529B01AC0120939B0E30939C0E4093B8
:101AA0009D0E50939E0E60917B0E70917C0E8091E6
:101AB0007D0E90917E0E0E94C24F60939F0E709398
:101AC000A00E8093A10E9093A20E6BE370E080E0D5
:101AD00090E00E949A0390932E1180932D1143E081
:101AE00050E0BE016F5F7F4F0E94890369817A8158
:101AF00090E080E00E94C7506B017C01C092D70F3C
:101B0000D092D80FE092D90FF092DA0F20915F11A6
:101B10003091601140916111509162116091F00219
:101B20007091F1028091F2029091F3020E9457525B
:101B30004B015C012091F4023091F5024091F602D4
:101B40005091F702C701B6010E9457529B01AC01A8
:101B5000C501B4010E94C34F6B017C012091631148
:101B60003091641140916511509166116091FC02B1
:101B70007091FD028091FE029091FF020E945752E7
:101B80009B01AC01C701B6010E94C34F60931B10BB
:101B900070931C1080931D1090931E1020910003D1
:101BA0003091010340910203509103030E94575268
:101BB0009B01AC012093A30E3093A40E4093A50E7D
:101BC0005093A60E60917F0E7091800E8091810ED1
:101BD0009091820E0E94C24F6093A70E7093A80E40
:101BE0008093A90E9093AA0E6AE370E080E090E0E3
:101BF0000E949A03909326118093251143E050E0B0
:101C0000BE016F5F7F4F0E94890369817A8190E0F6
:101C100080E00E94C7506B017C01C092D30FD0922C
:101C2000D40FE092D50FF092D60F2091671130912A
:101C300068114091691150916A1160910803709187
:101C4000090380910A0390910B030E9457524B01A4
:101C50005C0120910C0330910D0340910E035091D3
:101C60000F03C701B6010E9457529B01AC01C50189
:101C7000B4010E94C34F6B017C0120916B11309124
:101C80006C1140916D1150916E116091140370911F
:101C9000150380911603909117030E9457529B01E0
:101CA000AC01C701B6010E94C34F60931710709337
:101CB00018108093191090931A10209118033091E6
:101CC000190340911A0350911B030E9457529B0124
:101CD000AC012093AB0E3093AC0E4093AD0E5093FD
:101CE000AE0E6091830E7091840E8091850E90915E
:101CF000860E0E94C24F6093AF0E7093B00E809319
:101D0000B10E9093B20E69E370E080E090E00E9423
:101D10009A0390931E1180931D1143E050E0BE0181
:101D20006F5F7F4F0E94890369817A8190E080E034
:101D30000E94C7506B017C01C092CF0FD092D00F90
:101D4000E092D10FF092D20F20916F11309170116B
:101D50004091711150917211609120037091210393
:101D600080912203909123030E9457524B015C0102
:101D7000209124033091250340912603509127039D
:101D8000C701B6010E9457529B01AC01C501B401C5
:101D90000E94C34F6B017C0120917311309174112B
:101DA000409175115091761160912C0370912D0323
:101DB00080912E0390912F030E9457529B01AC01FA
:101DC000C701B6010E94C34F6093131070931410A3
:101DD00080931510909316102091300330913103A9
:101DE00040913203509133030E9457529B01AC0142
:101DF0002093B30E3093B40E4093B50E5093B60EAD
:101E00006091870E7091880E8091890E90918A0E54
:101E10000E94C24F6093B70E7093B80E8093B90EB4
:101E20009093BA0E67E370E080E090E00E949A031E
:101E300090930E1180930D1143E050E0BE016F5F4F
:101E40007F4F0E94890369817A8190E080E00E943F
:101E5000C7506B017C01C092CB0FD092CC0FE092A7
:101E6000CD0FF092CE0F20917711309178114091E3
:101E7000791150917A1160913803709139038091F2
:101E80003A0390913B030E9457524B015C01209111
:101E90003C0330913D0340913E0350913F03C70105
:101EA000B6010E9457529B01AC01C501B4010E94CA
:101EB000C34F6B017C0120917B1130917C114091CB
:101EC0007D1150917E116091440370914503809182
:101ED0004603909147030E9457529B01AC01C701F2
:101EE000B6010E94C34F60930F107093101080933F
:101EF00011109093121020914803309149034091A2
:101F00004A0350914B030E9457529B01AC0120930E
:101F1000BB0E3093BC0E4093BD0E5093BE0E60912D
:101F20008F0E7091900E8091910E9091920E0E9462
:101F3000C24F6093BF0E7093C00E8093C10E9093FA
:101F4000C20E20917106211191C00091730F109162
:101F5000740F2091750F3091760F0093C30E10937C
:101F6000C40E2093C50E3093C60EE7ECFEE02BE4C2
:101F70003EE0AB81BC815896CD90DD90ED90FC9019
:101F80005B97C192D192E192F192AC5BBE4FCD9042
:101F9000DD90ED90FC90C48AD58AE68AF78AAB8101
:101FA000BC81CD90DD90ED90FD90BC83AB83C4A649
:101FB000D5A6E6A6F7A62A173B07D9F600919F0EED
:101FC0001091A00E2091A10E3091A20E00930F0F40
:101FD0001093100F2093110F3093120F0091A70E42
:101FE0001091A80E2091A90E3091AA0E0093130F04
:101FF0001093140F2093150F3093160F0091AF0E0E
:102000001091B00E2091B10E3091B20E0093170FC7
:102010001093180F2093190F30931A0F0091B70ED9
:102020001091B80E2091B90E3091BA0E00931B0F8B
:1020300010931C0F20931D0F30931E0F0091970ECD
:102040001091980E2091990E30919A0E00931F0FC7
:102050001093200F2093210F3093220F6093230FB2
:102060007093240F8093250F9093260F6093270F72
:102070007093280F8093290F90932A0F22EE31E15D
:1020800047E450E10E943C06C090270FD090280FF3
:10209000E090290FF0902A0FE894F7F8C0922B0FE8
:1020A000D0922C0FE0922D0FF0922E0F2091000273
:1020B000309101024091020250910302C701B60122
:1020C0000E9457522091540330915503409156037A
:1020D000509157030E9457524B015C018092C30FED
:1020E0009092C40FA092C50FB092C60F20916402C7
:1020F000309165024091660250916702C701B601B6
:102100000E94575220917F1130918011409181118E
:10211000509182110E94C34F2B013C0120918311E9
:10212000309184114091851150918611C501B401FF
:102130000E94C24F9B01AC01C301B2010E94C34F78
:102140004B015C0180922F0F9092300FA092310FC3
:10215000B092320F409058035090590360905A0348
:1021600070905B03A30192010E94535218160CF069
:1021700057C740922F0F5092300F6092310F7092DC
:10218000320F5EC720E030E040E251E4C701B60103
:102190000E94C24F6093730F7093740F8093750FFA
:1021A0009093760F0C94A707B701C8010E943B06D5
:1021B000882351F0E0907F0DF090800D0091810D0B
:1021C0001091820D0C947008B401C6010E943B0668
:1021D0008111F0CFB701C8010E94F6058111EACF45
:1021E000B401C6010E94F6058823B9F120E030E071
:1021F000A901B401C6010E94535220E030E0A901B8
:10220000B7011816A4F4C8010E945352181614F40A
:102210000C94700820E030E0A901B701C8010E94C9
:10222000275087FF60C0740186010C947008C801B4
:102230000E9453521816BCF320E030E0A901B70108
:10224000C8010E94275087FF02C00C947008E12C3F
:10225000F12C00E010E80C9470089401A601B7017D
:10226000C8010E941E517B018C0120E030E0A901D1
:102270000E94275020E030E0A901811108C0B4017C
:10228000C6010E9457527B018C010C947008B70163
:10229000C8010E94275020E030E0A90187FF0FC04D
:1022A000B401C6010E945352181614F00C94700821
:1022B0009401A601B701C8010E94C34FE4CFB70142
:1022C000C8010E945352181614F00C94700820E0B4
:1022D00030E0A901B401C6010E94275087FD02C069
:1022E0000C947008E5CFE12CF12C00E010E00C9488
:1022F00070080230110579F42CE739ED40E25FE314
:102300000E9457520E94065320E030E04CE052E415
:102310000E945752C6C00330110509F52CE739ED6C
:1023200040E25FE30E9457526B017C010E9406531A
:1023300020E030E048E452E40E94575260938F0F4F
:102340007093900F8093910F9093920FC701B601F5
:102350000E942B5020E030E048EC51E4D9CF04300B
:10236000110529F52CE739ED40E25FE30E94575251
:102370000E94065320E030E040E252E40E945752AF
:1023800060938F0F7093900F8093910F9093920FA3
:102390002CE739ED40EA5FE3C701B6010E945752CE
:1023A0000E94065320E030E040EA51E4B1CF05300E
:1023B000110509F0DEC020E030E048E452E40E945C
:1023C0002E506B017C010E9404519B01AC01C7019E
:1023D000B6010E94C24F6B017C0120E030E040E872
:1023E0005EE30E94275087FF2AC020E030E040E8EB
:1023F00050E4C701B6010E94575220E030E048EC9B
:1024000052E40E94575220E030E048E452E40E9437
:10241000C24F60938F0F7093900F8093910F9093A2
:10242000920F80E090E4AEEAB3E48093970F90932C
:10243000980FA093990FB0939A0F0C94F20820E094
:1024400030E040E05FE3C701B6010E94275087FFFC
:1024500038C080E090E0A8E4B2E480938F0F9093BE
:10246000900FA093910FB093920F20E030E040E8DE
:102470005EE3C701B6010E94C24F20E030E040E8B1
:1024800050E40E94575220E030E048E452E40E94B9
:1024900057529B01AC0160E070E088EC91E40E942F
:1024A000C24F20E030EC41EA53E40E94C34F6093F6
:1024B000970F7093980F8093990F90939A0F0C94A5
:1024C000F20820E030E040E45FE3C701B6010E947B
:1024D000275087FF29C020E030E040E05FE3C701DC
:1024E000B6010E94C24F20E030E040E850E40E9474
:1024F000575220E030E048EC52E40E9457529B01D2
:10250000AC0160E070E088E492E40E94C24F609306
:102510008F0F7093900F8093910F9093920F80E0A4
:1025200090E4A5E9B3E481CF80E090E0A8E4B2ECC8
:1025300080938F0F9093900FA093910FB093920F71
:1025400020E030E040E45FE3C701B6010E94C24FE3
:1025500020E030E040E850E40E94575220E030E0B4
:1025600048E452E40E94575220E030E048EC51E445
:1025700096CF0630110509F09EC020E030E040EF14
:1025800051E40E942E506B017C010E9404519B017A
:10259000AC01C701B6010E94C24F6B017C012BEA5E
:1025A0003AEA4AEA5EE30E94275087FF21C02BEAFD
:1025B0003AEA4AEA5EE3C701B6010E942E5020E0E3
:1025C00030E040E752E40E94575220E030E040EF14
:1025D00051E40E94C24F60938F0F7093900F8093CD
:1025E000910F9093920F80E090E4AAE9B3E41DCF9D
:1025F0002BEA3AEA4AE25FE3C701B6010E9427509C
:1026000087FF2DC02BEA3AEA4AEA5EE3C701B6012A
:102610000E94C24F2BEA3AEA4AEA5EE30E942E5039
:1026200020E030E040EF51E40E9457526B017C0102
:10263000AC019B0160E070E080EF91E40E94C24F2A
:1026400060938F0F7093900F8093910F9093920FE0
:1026500020E030E040E751E4C701B60120CF2BEA8B
:102660003AEA4AE25FE3C701B6010E94C24F2BEA91
:102670003AEA4AEA5EE30E942E5020E030E040EF62
:1026800051E40E9457526B017C01AC019B0160E058
:1026900070E0CB010E94C24F60938F0F7093900F38
:1026A0008093910F9093920FA701960160E070E0E4
:1026B00080E791E4F4CE0730110561F52CE739EDA0
:1026C00040E25FE30E9457526B017C010E942B5055
:1026D00020E030E048EC51E40E94575260938F0FA5
:1026E0007093900F8093910F9093920FC701B60152
:1026F0000E94065320E030E048EC51E40E9457521B
:102700006093930F7093940F8093950F9093960F0F
:102710000C94F20808301105E9F52CE739ED40E298
:102720005FE30E9457520E94065320E030E040E7EA
:1027300051E40E94575260938F0F7093900F8093D3
:10274000910F9093920F2CE739ED40EA5FE3C701B8
:10275000B6010E9457520E94065320E030E040E04C
:1027600051E40E9457526093930F7093940F80939B
:10277000950F9093960F2AE336E441EF5FE3C7018C
:10278000B6010E9457520E942B5020E030E040E0FA
:1027900051E4BECD0930110509F045C020E030E01C
:1027A00040E752E40E942E504B015C010E9404510C
:1027B0009B01AC01C501B4010E94C24F4B015C01F9
:1027C0002CE739ED40EA5FE3C701B6010E9457529A
:1027D0006B017C010E942B502B013C0120E030E07A
:1027E00040EF51E4C501B4010E945752A301920188
:1027F0000E94575260938F0F7093900F8093910FA8
:102800009093920FC701B6010E9406536B017C01A1
:1028100020E030E040E751E4C501B4010E94575286
:10282000A701960175CD0A30110509F0D0C020E04E
:1028300030E040E251E40E942E506B017C01C092D6
:10284000970FD092980FE092990FF0929A0F20E094
:1028500030E0A9010E94275018160CF4B1C0109264
:10286000970F1092980F1092990F10929A0F20E0E4
:1028700030E040E85FE36091970F7091980F80918E
:10288000990F90919A0F0E94535287FD0CC080E0DF
:1028900090E0A0E8BFE38093970F9093980FA093E8
:1028A000990FB0939A0F8090AB0F9090AC0FA090BF
:1028B000AD0FB090AE0F2AE336E441E75FE3C50108
:1028C000B4010E9457520E9406532AE939E949E1AE
:1028D0005EE30E94575220E030E040E85FE30E9450
:1028E000C34F6B837C838D839E832CE739ED40EA55
:1028F0005EE3C501B4010E9457522B013C01C09018
:10290000970FD090980FE090990FF0909A0F0E9437
:102910002B506F83788789879A8720E030E048E4DE
:1029200052E4C701B6010E9457522B813C814D8170
:102930005E810E9457522F81388549855A850E94B1
:10294000575260938F0F7093900F8093910F9093D5
:10295000920FC301B2010E9406532B013C0120E0FB
:1029600030E040E252E4C701B6010E9457522B8189
:102970003C814D815E810E945752A30192010E94C9
:1029800057526093930F7093940F8093950F909389
:10299000960F2CE739ED40E25FE3C501B4010E94D8
:1029A00057520E9406534B015C0120E030E048EC96
:1029B00051E4C701B6010E945752A5019401A8CC69
:1029C000C701B6010E943B06811149CF50CF0B30A1
:1029D000110509F056C02CE739ED40E25FE30E9493
:1029E00057526B017C010E9406534B015C0120E0B1
:1029F00030E040E751E40E94575260938F0F70938C
:102A0000900F8093910F9093920FC701B6010E948F
:102A10002B506B017C0120E030E040E051E40E944B
:102A2000575220E030EC41EA53E40E94C34F6093D8
:102A3000970F7093980F8093990F90939A0F25E3B7
:102A40003AEF4EE05DE3C501B4010E945752609336
:102A50009B0F70939C0F80939D0F90939E0F25E387
:102A60003AEF4EE05DE3C701B6010E945752609312
:102A70009F0F7093A00F8093A10F9093A20F0C94BF
:102A8000F2080C30110509F048C02CE739ED40E29E
:102A90005FE30E9457520E9406534B015C0120E005
:102AA00030E040E751E40E94575260938F0F7093DB
:102AB000900F8093910F9093920F2CE739ED40EA9D
:102AC0005FE3C701B6010E9457520E94065320E0FF
:102AD00030E040E051E40E94575220E030EC41EAFF
:102AE00053E40E94C34F6093970F7093980F8093A5
:102AF000990F90939A0F25E33AEF4EE05DE3C501FD
:102B0000B4010E9457526093A30F7093A40F809357
:102B1000A50F9093A60F0C94F2080D301105A9F59E
:102B20002CE739ED40E25FE30E9457524B015C0114
:102B30000E942B5020E030E040E751E40E945752C1
:102B400060938F0F7093900F8093910F9093920FDB
:102B5000C501B4010E94065320E030E040E751E493
:102B60000E9457526093930F7093940F8093950F28
:102B70009093960F2CE739ED40EA5FE3C701B60169
:102B80000E9457520E94065300CE0E30110509F0E4
:102B9000BEC020E030E044EB52E4C501B4010E9425
:102BA0002E500E94045120E030E044EB52E40E9499
:102BB00057529B01AC01C501B4010E94C24F6B0189
:102BC0007C01C0928F0FD092900FE092910FF09203
:102BD000920F20E030E0A9010E94275018160CF453
:102BE0007FC01092970F1092980F1092990F109229
:102BF0009A0F20E030E040E85FE36091970F70911A
:102C0000980F8091990F90919A0F0E94535287FDCF
:102C10000CC080E090E0A0E8BFE38093970F909312
:102C2000980FA093990FB0939A0F20E030E044EBF7
:102C300052E460918F0F7091900F8091910F90915D
:102C4000920F0E942E506B017C01C092AB0FD0926C
:102C5000AC0FE092AD0FF092AE0F24EE3BEC46E9E4
:102C600051E40E9457522B013C0120E030E040E249
:102C700052E46091970F7091980F8091990F909105
:102C80009A0F0E9457524B015C01C301B2010E948E
:102C90002B509B01AC01C501B4010E9457526093B7
:102CA0008F0F7093900F8093910F9093920FC301A9
:102CB000B2010E9406539B01AC01C501B4010E9400
:102CC00057526093930F7093940F8093950F909346
:102CD000960F20E030E048E452E4C701B60118CB7B
:102CE000C701B6010E943B0681117BCF80918F0FF7
:102CF0009091900FA091910FB091920F8093970FA8
:102D00009093980FA093990FB0939A0F72CF0F30B2
:102D1000110511F00C94F20820E030E044E352E495
:102D2000C501B4010E942E500E94045120E030E001
:102D300044E352E40E9457529B01AC01C501B40127
:102D40000E94C24F6B017C01C092930FD092940FEE
:102D5000E092950FF092960F20E030E044E351E4CA
:102D60000E942E500E94045160938F0F7093900F19
:102D70008093910F9093920F20E030E044E351E470
:102D80000E9457529B01AC01C701B6010E94C24F7D
:102D900020E030E044E351E40E942E506B017C01BE
:102DA000C092AB0FD092AC0FE092AD0FF092AE0F8D
:102DB00020E030E040E450E40E9473064B015C01E7
:102DC000A7019601C701B6010E94575220E030E0EA
:102DD00040E450E40E9457526B017C01A50194012C
:102DE000C501B4010E94C34F9B01AC01C701B601EC
:102DF0000E94C24F6B017C0180908F0F9090900FCA
:102E0000A090910FB090920F20E030E0A901C50191
:102E1000B4010E942750811185C080E090E0A0E2BB
:102E2000B2EC8093630E9093640EA093650EB09302
:102E3000660E8093670E9093680EA093690EB09310
:102E40006A0E80E090E0A8ECB1EC80936B0E90935A
:102E50006C0EA0936D0EB0936E0E10E008ED68E25C
:102E60008090630E9090640EA090650EB090660EF8
:102E7000062E000C770B880B990B0E94C950A501F8
:102E800094010E94C24FA70196010E945752A501CA
:102E900094010E94C34F60938F0F7093900F8093A3
:102EA000910F9093920F8090670E9090680EA09073
:102EB000690EB0906A0E602F000F770B880B990B8C
:102EC0000E94C950A50194010E94C24FA70196011A
:102ED0000E945752A50194010E94C34F6093930F23
:102EE0007093940F8093950F9093960F80906B0E34
:102EF00090906C0EA0906D0EB0906E0E612F110F21
:102F0000770B880B990B0E94C950A50194010E9470
:102F1000C24FA70196010E945752A50194010E9439
:102F2000C34FBFCA20E030E040E85FE3C501B40111
:102F30000E942750811123C080E090E0A0E2B2E41B
:102F40008093630E9093640EA093650EB093660E0B
:102F500080E090E0A0E2B2EC8093670E9093680E60
:102F6000A093690EB0936A0E10926B0E10926C0EC5
:102F700010926D0E10926E0E19E108E270CF20E0F3
:102F800030E040E050E4C501B4010E9427508111B7
:102F900024C080E090E0A0E2B2E48093630E9093BE
:102FA000640EA093650EB093660E8093670E9093A7
:102FB000680EA093690EB0936A0E80E090E0A8ECD2
:102FC000B1E480936B0E90936C0EA0936D0EB09352
:102FD0006E0E10E008E268ED43CF80E090E0A0E2E2
:102FE000B2EC8093630E9093640EA093650EB09341
:102FF000660E80E090E0A0E2B2E48093670E9093CA
:10300000680EA093690EB0936A0E10926B0E109228
:103010006C0E10926D0E10926E0E17EE08EDDBCF57
:1030200040905C0350905D0360905E0370905F037E
:10303000A3019201C501B4010E94275087FD99C8E0
:1030400020916003309161034091620350916303CA
:10305000C701B6010E94535218160CF0B5C18091F9
:103060004C0390914D03A0914E03B0914F03809378
:10307000A30F9093A40FA093A50FB093A60F209138
:10308000A30F3091A40F4091A50F5091A60F60910E
:1030900064037091650380916603909167030E94B9
:1030A000575260930B1070930C1080930D109093F7
:1030B0000E102091471030914810409149105091C6
:1030C0004A10CC24CA94DC2C7601C092DD11D09237
:1030D000DE11E092DF11F092E0110E9457526093EE
:1030E000431070934410809345109093461066E00F
:1030F00070E080E090E00E94AC018C019093B610EB
:103100008093B510C0904310D0904410E0904510CB
:10311000F090461020E030E04FE753E4C701B601DD
:103120000E94275018160CF458C1C092A30FD092D9
:10313000A40FE092A50FF092A60F20E030E0A901C5
:103140006091A30F7091A40F8091A50F9091A60F8D
:103150000E94535287FF08C01092A30F1092A40F31
:103160001092A50F1092A60F4091A30F5091A40F9B
:103170006091A50F7091A60FC8010E948A0160910D
:103180000B1070910C1080910D1090910E102091E9
:103190004B1030914C1040914D1050914E10CC245A
:1031A000CA94DC2C7601C092D811D092D911E09249
:1031B000DA11F092DB110E94575260933F10709326
:1031C0004010809341109093421067E070E080E0DF
:1031D00090E00E94AC018C019093AE108093AD10F2
:1031E000C0903F10D0904010E0904110F0904210FD
:1031F00020E030E04FE753E4C701B6010E942750BA
:1032000018160CF4F7C0C092A30FD092A40FE0924E
:10321000A50FF092A60F20E030E0A9016091A30F66
:103220007091A40F8091A50F9091A60F0E94535208
:1032300087FF08C01092A30F1092A40F1092A50F41
:103240001092A60F4091A30F5091A40F6091A50F6B
:103250007091A60FC8010E948A0120912B0F309116
:103260002C0F40912D0F50912E0F60912C027091D8
:103270002D0280912E0290912F020E94575260934E
:103280002F10709330108093311090933210209152
:10329000B30E3091B40E4091B50E5091B60E6091C0
:1032A000870E7091880E8091890E90918A0E0E94EF
:1032B000C24F609307107093081080930910909389
:1032C0000A1020E032E147E650E10E943C06C0903F
:1032D0000710D0900810E0900910F0900A10E894C0
:1032E000F7F8C092330FD092340FE092350FF0927E
:1032F000360F209104023091050240910602509150
:103300000702C701B6010E94575220917003309105
:10331000710340917203509173030E9457524B0105
:103320005C018092BF0F9092C00FA092C10FB0922B
:10333000C20F209168023091690240916A02509157
:103340006B02C701B6010E9457522091871130913C
:1033500088114091891150918A110E94C34F2B010D
:103360003C0120918B1130918C1140918D11509125
:103370008E11C501B4010E94C24F9B01AC01C30173
:10338000B2010E94C34F4B015C018092370F9092B3
:10339000380FA092390FB0923A0F409074035090BA
:1033A00075036090760370907703A30192010E94E9
:1033B0005352181664F54092370F5092380F6092AE
:1033C000390F70923A0F33C080912F0F9091300FC8
:1033D000A091310FB091320F4ACE80E090E0AFE77C
:1033E000B3E48093A30F9093A40FA093A50FB09381
:1033F000A60FA3CE80E090E0AFE7B3E48093A30FE5
:103400009093A40FA093A50FB093A60F04CF409064
:1034100078035090790360907A0370907B03A30146
:103420009201C501B4010E94275087FDC4CF2091AD
:103430007C0330917D0340917E0350917F03C7014F
:10344000B6010E94535218160CF0B5C18091680362
:1034500090916903A0916A03B0916B038093A30FCD
:103460009093A40FA093A50FB093A60F2091A30F44
:103470003091A40F4091A50F5091A60F6091800349
:103480007091810380918203909183030E9457522F
:1034900060930310709304108093051090930610AE
:1034A00020916710309168104091691050916A1016
:1034B000CC24CA94DC2C7601C092FB11D092FC1172
:1034C000E092FD11F092FE110E945752609363103A
:1034D0007093641080936510909366106CE070E0B8
:1034E00080E090E00E94AC018C019093D610809314
:1034F000D510C0906310D0906410E0906510F090EB
:10350000661020E030E04FE753E4C701B6010E94A7
:10351000275018160CF458C1C092A30FD092A40FD4
:10352000E092A50FF092A60F20E030E0A901609193
:10353000A30F7091A40F8091A50F9091A60F0E94E8
:10354000535287FF08C01092A30F1092A40F10923D
:10355000A50F1092A60F4091A30F5091A40F609158
:10356000A50F7091A60FC8010E948A0160910310F7
:1035700070910410809105109091061020916B10AD
:1035800030916C1040916D1050916E10CC24CA9403
:10359000DC2C7601C092F611D092F711E092F8116E
:1035A000F092F9110E94575260935F10709360106F
:1035B00080936110909362106DE070E080E090E085
:1035C0000E94AC018C019093CE108093CD10C090DE
:1035D0005F10D0906010E0906110F090621020E0D9
:1035E00030E04FE753E4C701B6010E942750181698
:1035F0000CF4F7C0C092A30FD092A40FE092A50FD5
:10360000F092A60F20E030E0A9016091A30F709125
:10361000A40F8091A50F9091A60F0E94535287FF8F
:1036200008C01092A30F1092A40F1092A50F109231
:10363000A60F4091A30F5091A40F6091A50F709118
:10364000A60FC8010E948A012091330F3091340FD8
:103650004091350F5091360F6091300270913102D8
:1036600080913202909133020E945752609333103E
:103670007093341080933510909336102091AB0ED8
:103680003091AC0E4091AD0E5091AE0E6091830E14
:103690007091840E8091850E9091860E0E94C24F8B
:1036A0006093FF0F709300108093011090930210AD
:1036B0002FE032E147E750E10E943C06C090FF0F47
:1036C000D0900010E0900110F0900210E894F7F80C
:1036D000C0923B0FD0923C0FE0923D0FF0923E0F14
:1036E000209108023091090240910A0250910B0288
:1036F000C701B6010E94575220918C0330918D036F
:1037000040918E0350918F030E9457524B015C01F0
:103710008092BB0F9092BC0FA092BD0FB092BE0FD3
:1037200020916C0230916D0240916E0250916F02B7
:10373000C701B6010E94575220918F11309190110C
:1037400040919111509192110E94C34F2B013C0165
:1037500020919311309194114091951150919611AF
:10376000C501B4010E94C24F9B01AC01C301B2016B
:103770000E94C34F4B015C0180923F0F9092400F1B
:10378000A092410FB092420F40909003509091034D
:103790006090920370909303A30192010E94535290
:1037A000181664F540923F0F5092400F6092410FFF
:1037B0007092420F33C08091370F9091380FA091D3
:1037C000390FB0913A0F4ACE80E090E0AFE7B3E412
:1037D0008093A30F9093A40FA093A50FB093A60F6F
:1037E000A3CE80E090E0AFE7B3E48093A30F909383
:1037F000A40FA093A50FB093A60F04CF40909403FD
:10380000509095036090960370909703A3019201E6
:10381000C501B4010E94275087FDC4CF20919803B1
:103820003091990340919A0350919B03C701B601CF
:103830000E94535218160CF0B5C1809184039091E8
:103840008503A0918603B09187038093A30F909383
:10385000A40FA093A50FB093A60F2091A30F3091B2
:10386000A40F4091A50F5091A60F60919C037091F9
:103870009D0380919E0390919F030E9457526093F5
:10388000FB0F7093FC0F8093FD0F9093FE0F209120
:103890007710309178104091791050917A10CC24A3
:1038A000CA94DC2C7601C0920A12D0920B12E092DC
:1038B0000C12F0920D120E94575260937310709385
:1038C000741080937510909376106AE070E080E039
:1038D00090E00E94AC018C019093E6108093E5107B
:1038E000C0907310D0907410E0907510F090761026
:1038F00020E030E04FE753E4C701B6010E942750B3
:1039000018160CF458C1C092A30FD092A40FE092E5
:10391000A50FF092A60F20E030E0A9016091A30F5F
:103920007091A40F8091A50F9091A60F0E94535201
:1039300087FF08C01092A30F1092A40F1092A50F3A
:103940001092A60F4091A30F5091A40F6091A50F64
:103950007091A60FC8010E948A016091FB0F7091BF
:10396000FC0F8091FD0F9091FE0F20917B10309104
:103970007C1040917D1050917E10CC24CA94DC2C98
:103980007601C0920512D0920612E0920712F092D0
:1039900008120E94575260936F10709370108093BA
:1039A0007110909372106BE070E080E090E00E94E4
:1039B000AC018C019093DE108093DD10C0906F10ED
:1039C000D0907010E0907110F090721020E030E014
:1039D0004FE753E4C701B6010E94275018160CF4B4
:1039E000F7C0C092A30FD092A40FE092A50FF0925F
:1039F000A60F20E030E0A9016091A30F7091A40F01
:103A00008091A50F9091A60F0E94535287FF08C086
:103A10001092A30F1092A40F1092A50F1092A60F50
:103A20004091A30F5091A40F6091A50F7091A60F24
:103A3000C8010E948A0120913B0F30913C0F4091B8
:103A40003D0F50913E0F609134027091350280918C
:103A50003602909137020E9457526093371070934C
:103A600038108093391090933A102091A30E309122
:103A7000A40E4091A50E5091A60E60917F0E7091FC
:103A8000800E8091810E9091820E0E94C24F6093B1
:103A9000F70F7093F80F8093F90F9093FA0F2EE1C0
:103AA00032E147E850E10E943C06C090F70FD09009
:103AB000F80FE090F90FF090FA0FE894F7F8C09241
:103AC000430FD092440FE092450FF092460F2091A1
:103AD0000C0230910D0240910E0250910F02C7016D
:103AE000B6010E9457522091A8033091A90340913A
:103AF000AA035091AB030E9457524B015C01809284
:103B0000B70F9092B80FA092B90FB092BA0F209150
:103B10007002309171024091720250917302C7019C
:103B2000B6010E94575220919711309198114091FF
:103B3000991150919A110E94C34F2B013C01209181
:103B40009B1130919C1140919D1150919E11C50186
:103B5000B4010E94C24F9B01AC01C301B2010E949B
:103B6000C34F4B015C018092470F9092480FA09287
:103B7000490FB0924A0F4090AC035090AD03609053
:103B8000AE037090AF03A30192010E945352181626
:103B900064F54092470F5092480F6092490F70921F
:103BA0004A0F33C080913F0F9091400FA091410F79
:103BB000B091420F4ACE80E090E0AFE7B3E480934B
:103BC000A30F9093A40FA093A50FB093A60FA3CE1D
:103BD00080E090E0AFE7B3E48093A30F9093A40F4D
:103BE000A093A50FB093A60F04CF4090B0035090C0
:103BF000B1036090B2037090B303A3019201C501B9
:103C0000B4010E94275087FDC4CF2091B4033091A6
:103C1000B5034091B6035091B703C701B6010E94A6
:103C2000535218160CF0AFC18091A0039091A103DC
:103C3000A091A203B091A3038093A30F9093A40F2C
:103C4000A093A50FB093A60F2091A30F3091A40FBE
:103C50004091A50F5091A60F6091B8037091B903E0
:103C60008091BA039091BB030E9457526093F30F67
:103C70007093F40F8093F50F9093F60F20918710B7
:103C8000309188104091891050918A10CC24CA94A8
:103C9000DC2C7601C0921912D0921A12E0921B12FB
:103CA000F0921C120E9457526093831070938410FC
:103CB000809385109093861064E070E080E090E03F
:103CC0000E94AC018C019093F6108093F510C09087
:103CD0008310D0908410E0908510F090861020E042
:103CE00030E04FE753E4C701B6010E942750181691
:103CF0000CF452C1C092A30FD092A40FE092A50F72
:103D0000F092A60F20E030E0A9016091A30F70911E
:103D1000A40F8091A50F9091A60F0E94535287FF88
:103D200008C01092A30F1092A40F1092A50F10922A
:103D3000A60F4091A30F5091A40F6091A50F709111
:103D4000A60FC8010E948A016091F30F7091F40FD1
:103D50008091F50F9091F60F20918B1030918C107F
:103D600040918D1050918E10CC24CA94DC2C760199
:103D7000C0921412D0921512E0921612F0921712FD
:103D80000E94575260937F1070938010809381102F
:103D90009093821065E070E080E090E00E94AC01BA
:103DA0008C019093EE108093ED10C0907F10D09016
:103DB0008010E0908110F090821020E030E04FE71A
:103DC00053E4C701B6010E94275018160CF4F1C045
:103DD000C092A30FD092A40FE092A50FF092A60F6D
:103DE00020E030E0A9016091A30F7091A40F8091B1
:103DF000A50F9091A60F0E94535287FF08C0109202
:103E0000A30F1092A40F1092A50F1092A60F40912D
:103E1000A30F5091A40F6091A50F7091A60FC80138
:103E20000E948A012091430F3091440F4091450F29
:103E30005091460F609138027091390280913A0298
:103E400090913B020E94575260933B1070933C103C
:103E500080933D1090933E1020919B0E30919C0ECC
:103E600040919D0E50919E0E60917B0E70917C0E44
:103E700080917D0E90917E0E0E94C24F6093EF0F55
:103E80007093F00F8093F10F9093F20F2DE232E1D7
:103E900047E950E10E943C06C090EF0FD090F00F30
:103EA000E090F10FF090F20FE894F7F8C0924B0F0A
:103EB000D0924C0FE0924D0FF0924E0F20911002D5
:103EC000309111024091120250911302C701B601C4
:103ED0000E9457522091A3113091A4114091A51135
:103EE0005091A6110E94C24F209160023091610250
:103EF00040916202509163020E9457524B015C0153
:103F00008092C70F9092C80FA092C90FB092CA0FAB
:103F1000209174023091750240917602509177029F
:103F2000C701B6010E94575220919F113091A011F4
:103F30004091A1115091A2110E94C34FA50194017B
:103F40000E94C34F4B015C0180924F0F9092500F23
:103F5000A092510FB092520F4090C8035090C903E5
:103F60006090CA037090CB03A30192010E94535248
:103F7000181664F540924F0F5092500F6092510FF7
:103F80007092520F33C08091470F9091480FA091CB
:103F9000490FB0914A0F50CE80E090E0AFE7B3E414
:103FA0008093A30F9093A40FA093A50FB093A60F97
:103FB000A9CE80E090E0AFE7B3E48093A30F9093A5
:103FC000A40FA093A50FB093A60F0ACF4090CC03E7
:103FD0005090CD036090CE037090CF03A301920167
:103FE000C501B4010E94275087FDC4CF2091D003A2
:103FF0003091D1034091D2035091D303C701B60150
:104000000E94535218160CF0B5C18091BC039091D8
:10401000BD03A091BE03B091BF038093A30F909303
:10402000A40FA093A50FB093A60F2091A30F3091DA
:10403000A40F4091A50F5091A60F6091D4037091E9
:10404000D5038091D6039091D7030E945752609375
:10405000EB0F7093EC0F8093ED0F9093EE0F209188
:104060009710309198104091991050919A10CC244B
:10407000CA94DC2C7601C0922812D0922912E092C8
:104080002A12F0922B120E94575260939310709351
:104090009410809395109093961062E070E080E009
:1040A00090E00E94AC018C01909306118093051161
:1040B000C0909310D0909410E0909510F0909610CE
:1040C00020E030E04FE753E4C701B6010E942750DB
:1040D00018160CF458C1C092A30FD092A40FE0920E
:1040E000A50FF092A60F20E030E0A9016091A30F88
:1040F0007091A40F8091A50F9091A60F0E9453522A
:1041000087FF08C01092A30F1092A40F1092A50F62
:104110001092A60F4091A30F5091A40F6091A50F8C
:104120007091A60FC8010E948A016091EB0F7091F7
:10413000EC0F8091ED0F9091EE0F20919B1030913C
:104140009C1040919D1050919E10CC24CA94DC2C60
:104150007601C0922312D0922412E0922512F0929E
:1041600026120E94575260938F1070939010809384
:1041700091109093921063E070E080E090E00E94D4
:10418000AC018C019093FE108093FD10C0908F10B5
:10419000D0909010E0909110F090921020E030E0DC
:1041A0004FE753E4C701B6010E94275018160CF4DC
:1041B000F7C0C092A30FD092A40FE092A50FF09287
:1041C000A60F20E030E0A9016091A30F7091A40F29
:1041D0008091A50F9091A60F0E94535287FF08C0AF
:1041E0001092A30F1092A40F1092A50F1092A60F79
:1041F0004091A30F5091A40F6091A50F7091A60F4D
:10420000C8010E948A0120914B0F30914C0F4091C0
:104210004D0F50914E0F60913C0270913D02809184
:104220003E0290913F020E94575260932B10709370
:104230002C1080932D1090932E102091930E30917E
:10424000940E4091950E5091960E60918B0E709148
:104250008C0E80918D0E90918E0E0E94C24F6093B5
:10426000E70F7093E80F8093E90F9093EA0F21EF27
:1042700031E147E550E10E943C06C090E70FD09045
:10428000E80FE090E90FF090EA0FE894F7F8C09299
:10429000530FD092540FE092550FF092560F209189
:1042A0001402309115024091160250911702C70175
:1042B000B6010E9457522091E0033091E1034091F2
:1042C000E2035091E3030E9457524B015C0180923C
:1042D000B30F9092B40FA092B50FB092B60F209189
:1042E00078023091790240917A0250917B02C701A5
:1042F000B6010E9457522091A7113091A811409108
:10430000A9115091AA110E94C34F2B013C01209189
:10431000AB113091AC114091AD115091AE11C5016E
:10432000B4010E94C24F9B01AC01C301B2010E94C3
:10433000C34F4B015C018092570F9092580FA0928F
:10434000590FB0925A0F4090E4035090E5036090EB
:10435000E6037090E703A30192010E9453521816DE
:1043600064F54092570F5092580F6092590F709217
:104370005A0F33C080914F0F9091500FA091510F61
:10438000B091520F4ACE80E090E0AFE7B3E4809363
:10439000A30F9093A40FA093A50FB093A60FA3CE45
:1043A00080E090E0AFE7B3E48093A30F9093A40F75
:1043B000A093A50FB093A60F04CF4090E8035090B0
:1043C000E9036090EA037090EB03A3019201C50139
:1043D000B4010E94275087FDC4CF2091EC03309197
:1043E000ED034091EE035091EF03C701B6010E9427
:1043F000535218160CF0F5C48091D8039091D9034C
:10440000A091DA03B091DB038093A30F9093A40FE4
:10441000A093A50FB093A60F2091A30F3091A40FE6
:104420004091A50F5091A60F6091F0037091F10398
:104430008091F2039091F3030E9457526093E30F2F
:104440007093E40F8093E50F9093E60F209157103F
:10445000309158104091591050915A10CC24CA9460
:10446000DC2C7601C092EC11D092ED11E092EE11AD
:10447000F092EF110E9457526093531070935410B2
:10448000809355109093561068E070E080E090E0C3
:104490000E94AC018C019093C6108093C510C0900F
:1044A0005310D0905410E0905510F090561020E02A
:1044B00030E04FE753E4C701B6010E9427501816B9
:1044C0000CF498C4C092A30FD092A40FE092A50F51
:1044D000F092A60F20E030E0A9016091A30F709147
:1044E000A40F8091A50F9091A60F0E94535287FFB1
:1044F00008C01092A30F1092A40F1092A50F109253
:10450000A60F4091A30F5091A40F6091A50F709139
:10451000A60FC8010E948A016091E30F7091E40F19
:104520008091E50F9091E60F20915B1030915C1027
:1045300040915D1050915E10CC24CA94DC2C760121
:10454000C092E711D092E811E092E911F092EA11DD
:104550000E94575260934F107093501080935110E7
:104560009093521069E070E080E090E00E94AC010E
:104570008C019093BE108093BD10C0904F10D090CE
:104580005010E0905110F090521020E030E04FE7D2
:1045900053E4C701B6010E94275018160CF437C423
:1045A000C092A30FD092A40FE092A50FF092A60F95
:1045B00020E030E0A9016091A30F7091A40F8091D9
:1045C000A50F9091A60F0E94535287FF08C010922A
:1045D000A30F1092A40F1092A50F1092A60F409156
:1045E000A30F5091A40F6091A50F7091A60FC80161
:1045F0000E948A012091530F3091540F4091550F22
:104600005091560F60914002709141028091420298
:10461000909143020E945752609327107093281084
:104620008093291090932A10C090AF0FD090B00FB4
:10463000E090B10FF090B20F20E030E040E050E4A5
:10464000C701B6010E94275061E087FD17C020E036
:1046500030E040E850E4C701B6010E94275060E016
:1046600087FD0CC011E020E030E040E251E4C701DA
:10467000B6010E94275087FF10E0612F86E10E945B
:10468000830180919B0E90919C0EA0919D0EB09104
:104690009E0E8093371190933811A0933911B093E7
:1046A0003A118091A30E9091A40EA091A50EB09105
:1046B000A60E80933B1190933C11A0933D11B093B3
:1046C0003E118091AB0E9091AC0EA091AD0EB091C9
:1046D000AE0E80933F1190934011A0934111B0937F
:1046E00042118091B30E9091B40EA091B50EB0918D
:1046F000B60E8093431190934411A0934511B0934B
:1047000046118091930E9091940EA091950EB091C8
:10471000960E8093471190934811A0934911B0933E
:104720004A118091BB0E9091BC0EA091BD0EB0912C
:10473000BE0E80934B1190934C11A0934D11B093EA
:104740004E118091DF0F9091E00FA091E10FB09199
:10475000E20F80934F1190935011A0935111B09399
:1047600052118091231090912410A0912510B091A6
:1047700026108093531190935411A0935511B09328
:1047800056118091DB0F9091DC0FA091DD0FB0915D
:10479000DE0F8093571190935811A0935911B09345
:1047A0005A1180911F1090912010A0912110B0916A
:1047B000221080935B1190935C11A0935D11B093D4
:1047C0005E118091D70F9091D80FA091D90FB09121
:1047D000DA0F80935F1190936011A0936111B093F1
:1047E000621180911B1090911C10A0911D10B0912E
:1047F0001E108093631190936411A0936511B09380
:1048000066118091D30F9091D40FA091D50FB091E4
:10481000D60F8093671190936811A0936911B0939C
:104820006A118091171090911810A0911910B091F1
:104830001A1080936B1190936C11A0936D11B0932B
:104840006E118091CF0F9091D00FA091D10FB091A8
:10485000D20F80936F1190937011A0937111B09348
:1048600072118091131090911410A0911510B091B5
:1048700016108093731190937411A0937511B093D7
:1048800076118091CB0F9091CC0FA091CD0FB0916C
:10489000CE0F8093771190937811A0937911B093F4
:1048A0007A1180910F1090911010A0911110B09179
:1048B000121080937B1190937C11A0937D11B09383
:1048C0007E1120912F103091301040913110509175
:1048D0003210609150037091510380915203909176
:1048E00053030E94575220917F11309180114091C3
:1048F0008111509182110E94C34F60937F11709378
:10490000801180938111909382118091C30F9091B7
:10491000C40FA091C50FB091C60F809383119093DF
:104920008411A0938511B09386112091331030919A
:104930003410409135105091361060916C03709195
:104940006D0380916E0390916F030E9457522091E6
:104950008711309188114091891150918A110E94DC
:10496000C34F60938711709388118093891190933E
:104970008A118091BF0F9091C00FA091C10FB0918B
:10498000C20F80938B1190938C11A0938D11B093D3
:104990008E1120913710309138104091391050917C
:1049A0003A10609188037091890380918A039091F5
:1049B0008B030E94575220918F113091901140919A
:1049C0009111509192110E94C34F60938F11709377
:1049D000901180939111909392118091BB0F9091BF
:1049E000BC0FA091BD0FB091BE0F80939311909317
:1049F0009411A0939511B093961120913B10309192
:104A00003C1040913D1050913E106091A403709174
:104A1000A5038091A6039091A7030E94575220916D
:104A20009711309198114091991150919A110E94CB
:104A3000C34F60939711709398118093991190933D
:104A40009A118091B70F9091B80FA091B90FB091C2
:104A5000BA0F80939B1190939C11A0939D11B093DA
:104A60009E1120912B1030912C1040912D105091BF
:104A70002E106091C0037091C1038091C203909188
:104A8000C3030E94575220919F113091A011409171
:104A9000A1115091A2110E94C34F60939F11709376
:104AA000A0118093A1119093A2112091C70F309172
:104AB000C80F4091C90F5091CA0F6091C403709103
:104AC000C5038091C6039091C7030E94575220915D
:104AD000A3113091A4114091A5115091A6110E94EB
:104AE000C34F6093A3117093A4118093A511909369
:104AF000A611209127103091281040912910509133
:104B00002A106091DC037091DD038091DE039091A7
:104B1000DF030E9457522091A7113091A8114091B4
:104B2000A9115091AA110E94C34F6093A7117093CD
:104B3000A8118093A9119093AA118091B30F90911D
:104B4000B40FA091B50FB091B60F8093AB119093B5
:104B5000AC11A093AD11B093AE116091630670914A
:104B6000640680916506909166060E94C75020E019
:104B700030E040E85FE40E9457526B017C01609195
:104B80005F067091600680916106909162060E94B6
:104B9000C7509B01AC01C701B6010E94C34F20E082
:104BA00030E0A9010E94C34F0E949B50AB01BC01A1
:104BB00081E090E00E94100580917106811135C05E
:104BC00060916B0670916C0680916D0690916E06F7
:104BD0000E94C75020E030E040E85FE40E94575256
:104BE0006B017C016091670670916806809169068F
:104BF00090916A060E94C7509B01AC01C701B601A3
:104C00000E94C34F20E030E040E450E40E9457523D
:104C100020E030E0A9010E94C34F0E949B50AB01ED
:104C2000BC0182E090E00E941005C0905306D09035
:104C30005406E0905506F0905606BFEFCB1ADB0AFB
:104C4000EB0AFB0AC0925306D0925406E092550636
:104C5000F0925606C114D104E104F10499F4809154
:104C6000570690915806A0915906B0915A060196A0
:104C7000A11DB11D8093570690935806A093590625
:104C8000B0935A0680905B0690905C06A0905D06FB
:104C9000B0905E060091790610917A0660915706F1
:104CA000709158068091590690915A060E94C750FB
:104CB000A50194010E94575220E030E040E85FE4F3
:104CC0000E9457522B013C01C701B6010E94C750F8
:104CD000A50194010E9457529B01AC01C301B2018E
:104CE0000E94C34FF8016083718382839383809114
:104CF0005F0690916006A0916106B09162060196F0
:104D0000A11DB11D80935F0690936006A09361067C
:104D1000B0936206892B8A2B8B2B99F480916306C2
:104D200090916406A0916506B09166060196A11D5A
:104D3000B11D8093630690936406A0936506B093BB
:104D400066068091710681112DC0409167065091D1
:104D500068066091690670916A064F5F5F4F6F4FFA
:104D60007F4F40936706509368066093690670937F
:104D70006A06452B462B472B09F056C040916B061F
:104D800050916C0660916D0670916E064F5F5F4F9B
:104D90006F4F7F4F40936B0650936C0660936D0688
:104DA00070936E068F5F833008F040C08093710669
:104DB000A2960FB6F894DEBF0FBECDBFDF91CF91A4
:104DC0001F910F91FF90EF90DF90CF90BF90AF9029
:104DD0009F908F907F906F905F904F903F902F901B
:104DE00008958091570F9091580FA091590FB0914D
:104DF0005A0F0ACB80E090E0AFE7B3E48093A30FB3
:104E00009093A40FA093A50FB093A60F63CB80E05F
:104E100090E0AFE7B3E48093A30F9093A40FA09327
:104E2000A50FB093A60FC4CB81E0C0CF109271063E
:104E3000BFCF8F929F92AF92BF92EF92FF920F934C
:104E40001F93CF9384E090E00E94BF05E8EBF5E06C
:104E50008FECDF011D928A95E9F786E796E0909343
:104E6000BF058093BE0589E796E09093F90580938E
:104E7000F8058BE596E09093CD058093CC05F093F3
:104E80002306E0932206F093BD05E093BC0581E084
:104E900090E090937706809376068EE194E090936D
:104EA000C3058093C2058BE796E090937A068093C2
:104EB000790680E090E0A0E8BFEB809372069093C3
:104EC0007306A0937406B09375068AE097EDA3E28B
:104ED000BCE380935B0690935C06A0935D06B09361
:104EE0005E0682EF9FEBAEE7B9EA809341069093AE
:104EF0004206A0934306B093440685E699EFACEFD3
:104F0000BAE38093450690934606A0934706B09374
:104F100048068BE19CE4A3E4B1EA809349069093B0
:104F20004A06A0934B06B0934C068AE299E3A6E9A1
:104F3000BDE880934D0690934E06A0934F06B09324
:104F400050068CEA95E09093BB058093BA0588E5FE
:104F500095E09093AD058093AC0580E394E0909349
:104F600059058093580590935B0580935A0590935B
:104F70005D0580935C0590935F0580935E0590933B
:104F8000610580936005909363058093620590931B
:104F900065058093640590936705809366059093FB
:104FA00069058093680590936B0580936A059093DB
:104FB0006D0580936C0590936F0580936E059093BB
:104FC000710580937005909373058093720590939B
:104FD000750580937405909377058093760590937B
:104FE00079058093780590937B0580937A0590935B
:104FF0007D0580937C0590937F0580937E0590933B
:10500000810580938005909383058093820590931A
:1050100085058093840590938705809386059093FA
:1050200089058093880590938B0580938A059093DA
:105030008D0580938C0590938F0580938E059093BA
:10504000910580939005909393058093920590939A
:10505000950580939405909397058093960590937A
:1050600099058093980590939B0580939A0590935A
:105070009D0580939C0590939F0580939E0590933A
:10508000A1058093A0059093A3058093A20590931A
:10509000A5058093A4059093A7058093A6059093FA
:1050A000A9058093A8059093AB058093AA0581E597
:1050B00096E09093B1058093B00581E496E09093DB
:1050C000AF058093AE058FEF9FEFDC018093B405B1
:1050D0009093B505A093B605B093B705EBE8FDE056
:1050E00084E193E0DF019C011D9221503040E1F703
:1050F000EFE9F0E183E991E0DF019C011D9221508D
:105100003040E1F7C1E0C093C211812C912C5401D1
:1051100083948092101190921111A0921211B0926A
:10512000131168E370E080E090E00E94DE0390934A
:10513000161180931511C093141110922F11C09362
:10514000C6118092301190923111A0923211B0921A
:10515000331166E370E080E090E00E94DE039093FC
:10516000361180933511C093341110922711C093DA
:10517000C5118092281190922911A0922A11B09203
:105180002B116BE370E080E090E00E94DE039093CF
:105190002E1180932D11C0932C1110921F11C093CA
:1051A000C4118092201190922111A0922211B092EC
:1051B00023116AE370E080E090E00E94DE039093A8
:1051C000261180932511C093241110921711C093BA
:1051D000C3118092181190921911A0921A11B092D5
:1051E0001B1169E370E080E090E00E94DE03909381
:1051F0001E1180931D11C0931C1110920711C093B2
:10520000C1118092081190920911A0920A11B092D6
:105210000B1167E370E080E090E00E94DE03909362
:105220000E1180930D11C0930C111092AF10C0930A
:10523000C8118092B0109092B110A092B210B092AA
:10524000B310E12CF12C8701A801970166E070E012
:1052500080E090E00E94F0019093B6108093B5102A
:10526000C093B4101092A710C093C7118092A810D9
:105270009092A910A092AA10B092AB10A801970129
:1052800067E070E080E090E00E94F0019093AE1043
:105290008093AD10C093AC101092CF10C093CC117E
:1052A0008092D0109092D110A092D210B092D310D0
:1052B000A80197016CE070E080E090E00E94F001AE
:1052C0009093D6108093D510C093D4101092C7102D
:1052D000C093CB118092C8109092C910A092CA10AE
:1052E000B092CB10A80197016DE070E080E090E0F3
:1052F0000E94F0019093CE108093CD10C093CC10FB
:105300001092DF10C093CE118092E0109092E110C5
:10531000A092E210B092E310A80197016AE070E059
:1053200080E090E00E94F0019093E6108093E510F9
:10533000C093E4101092D710C093CD118092D81072
:105340009092D910A092DA10B092DB10A8019701C8
:105350006BE070E080E090E00E94F0019093DE103E
:105360008093DD10C093DC101092EF10C093D01129
:105370008092F0109092F110A092F210B092F3107F
:10538000A801970164E070E080E090E00E94F001E5
:105390009093F6108093F510C093F4101092E710DC
:1053A000C093CF118092E8109092E910A092EA1079
:1053B000B092EB10A801970165E070E080E090E00A
:1053C0000E94F0019093EE108093ED10C093EC10CA
:1053D0001092FF10C093D21180920011909201118F
:1053E000A0920211B0920311A801970162E070E04F
:1053F00080E090E00E94F0019093061180930511E7
:10540000C09304111092F710C093D1118092F8103C
:105410009092F910A092FA10B092FB10A801970197
:1054200063E070E080E090E00E94F0019093FE1055
:105430008093FD10C093FC101092BF10C093CA114E
:105440008092C0109092C110A092C210B092C3106E
:10545000A801970168E070E080E090E00E94F00110
:105460009093C6108093C510C093C4101092B710CB
:10547000C093C9118092B8109092B910A092BA103E
:10548000B092BB10A801970169E070E080E090E065
:105490000E94F0019093BE108093BD10C093BC1089
:1054A00010929F10C093D7118092A0109092A110DB
:1054B000A092A210B092A31061E086E10E947B014D
:1054C000C093A4108091B8029091B902A091BA0241
:1054D000B091BB02E7E3F1E181939193A193B19382
:1054E00031E1EF34F307C1F78091BC029091BD0226
:1054F000A091BE02B091BF0280934F1190935011C2
:10550000A0935111B09352118091C8029091C90299
:10551000A091CA02B091CB02809353119093541181
:10552000A0935511B09356118091D4029091D50259
:10553000A091D602B091D702809357119093581141
:10554000A0935911B0935A118091E0029091E10219
:10555000A091E202B091E30280935B1190935C1101
:10556000A0935D11B0935E118091EC029091ED02D9
:10557000A091EE02B091EF0280935F1190936011C1
:10558000A0936111B09362118091F8029091F90299
:10559000A091FA02B091FB02809363119093641181
:1055A000A0936511B0936611809104039091050357
:1055B000A0910603B091070380936711909368113F
:1055C000A0936911B0936A11809110039091110317
:1055D000A0911203B091130380936B1190936C11FF
:1055E000A0936D11B0936E1180911C0390911D03D7
:1055F000A0911E03B0911F0380936F1190937011BF
:10560000A0937111B0937211809128039091290396
:10561000A0912A03B0912B0380937311909374117E
:10562000A0937511B0937611809134039091350356
:10563000A0913603B091370380937711909378113E
:10564000A0937911B0937A11809140039091410316
:10565000A0914203B091430380937B1190937C11FE
:10566000A0937D11B0937E118091480290914902E0
:10567000A0914A02B0914B0280937F1190938011C8
:10568000A0938111B0938211809118029091190218
:10569000A0911A02B0911B02809383119093841100
:1056A000A0938511B093861180914C0290914D0288
:1056B000A0914E02B0914F02809387119093881170
:1056C000A0938911B0938A1180911C0290911D02C0
:1056D000A0911E02B0911F0280938B1190938C11A8
:1056E000A0938D11B0938E11809150029091510230
:1056F000A0915202B091530280938F119093901118
:10570000A0939111B0939211809120029091210267
:10571000A0912202B091230280939311909394114F
:10572000A0939511B09396118091540290915502D7
:10573000A0915602B09157028093971190939811BF
:10574000A0939911B0939A1180912402909125020F
:10575000A0912602B091270280939B1190939C11F7
:10576000A0939D11B0939E1180915802909159027F
:10577000A0915A02B0915B0280939F119093A01167
:10578000A093A111B093A21180914402909145027F
:10579000A0914602B09147028093A3119093A41167
:1057A000A093A511B093A61180915C0290915D0227
:1057B000A0915E02B0915F028093A7119093A8110F
:1057C000A093A911B093AA11809128029091290267
:1057D000A0912A02B0912B028093AB119093AC114F
:1057E000A093AD11B093AE118FEF9FEFDC018093CA
:1057F000B9119093BA11A093BB11B093BC118093CF
:10580000B1119093B211A093B311B093B4118093DE
:10581000BD119093BE11A093BF11B093C01180939E
:10582000B5119093B611A093B711B093B8118093AE
:10583000E2119093E311A093E411B093E5118093EA
:10584000DD119093DE11A093DF11B093E0118093EE
:10585000D8119093D911A093DA11B093DB118093F2
:10586000001290930112A0930212B093031280933E
:10587000FB119093FC11A093FD11B093FE11809346
:10588000F6119093F711A093F811B093F91180934A
:105890000F1290931012A0931112B09312128093D2
:1058A0000A1290930B12A0930C12B0930D128093D6
:1058B000051290930612A0930712B09308128093DA
:1058C0001E1290931F12A0932012B0932112809366
:1058D000191290931A12A0931B12B0931C1280936A
:1058E000141290931512A0931612B093171280936E
:1058F0002D1290932E12A0932F12B09330128093FA
:10590000281290932912A0932A12B0932B128093FD
:10591000231290932412A0932512B0932612809301
:10592000F1119093F211A093F311B093F4118093BD
:10593000EC119093ED11A093EE11B093EF118093C1
:10594000E7119093E811A093E911B093EA11CF9178
:105950001F910F91FF90EF90BF90AF909F908F900D
:10596000089580910F1181111FC081E080930F1164
:105970008091101190911111A0911211B0911311F9
:105980000197A105B10581F480911411882361F07C
:1059900068E370E080E090E00E949A039093161113
:1059A000809315110E94010480912F1181111FC055
:1059B00081E080932F118091301190913111A0914D
:1059C0003211B09133110197A105B10581F4809195
:1059D0003411882361F066E370E080E090E00E947B
:1059E0009A0390933611809335110E94010480919F
:1059F000271181111FC081E0809327118091281108
:105A000090912911A0912A11B0912B110197A10514
:105A1000B10581F480912C11882361F06BE370E073
:105A200080E090E00E949A0390932E1180932D11B4
:105A30000E94010480911F1181111FC081E0809399
:105A40001F118091201190912111A0912211B091EC
:105A500023110197A105B10581F4809124118823B8
:105A600061F06AE370E080E090E00E949A03909316
:105A70002611809325110E94010480911711811134
:105A80001FC081E080931711809118119091191116
:105A9000A0911A11B0911B110197A105B10581F4D4
:105AA00080911C11882361F069E370E080E090E050
:105AB0000E949A0390931E1180931D110E9401046D
:105AC0008091071181111FC081E08093071180919F
:105AD000081190910911A0910A11B0910B11019731
