:10000000F8C0000027C1000025C1000023C1000086
:1000100021C100001FC100001DC100001BC1000064
:1000200019C1000017C1000015C1000013C1000074
:1000300011C100000FC100000DC100000BC1000084
:1000400009C1000007C1000005C1000003C1000094
:1000500001C10000FFC00000FDC000000C94112B86
:10006000F9C000000C94342E0C946A2EF3C00000EA
:10007000F1C00000EFC00000EDC00000EBC00000C8
:10008000E9C00000E7C00000E5C00000E3C00000D8
:100090000C94C02E0C94F62EDDC00000DBC00000D6
:1000A000D9C00000D7C00000D5C00000D3C00000F8
:1000B000D1C00000CFC00000CDC00000CBC0000008
:1000C000C9C00000C7C000000C9458270C944C2FE6
:1000D0000C94822FBFC000000C94D82F0C940E30CB
:1000E000B9C0000000000A0B02090C0D0E0807033E
:1000F00004010000000000000000000000000000FB
:1001000000000000000000000000000000000000EF
:1001100012111000000000000000000000000000AC
:100120000000000000000000000001021020200874
:100130000810204010204080020102010804020142
:1001400001020408102040808040201008040201B1
:10015000800402018040201008040201080402010A
:100160000102040810204080010204081020408091
:1001700005050505070508080808020202020A0A23
:100180000808040404040101010101010101030341
:10019000030303030303040707070C0C0C0C0C0CEC
:1001A0000C0C0202020206060606060606060B0BE9
:1001B0000B0B0B0B0B0B00002200250028002B0063
:1001C0002E003100340002010000050108010B017E
:1001D00000002100240027002A002D0030003300F9
:1001E00001010000040107010A01932E1F2FAB2F0C
:1001F000373011241FBECFEFD1E2DEBFCDBF00E00C
:100200000CBF12E0A0E0B2E0E6EFF1E600E00BBFC9
:1002100002C007900D92A43FB107D9F729E0A4EFDF
:10022000B2E001C01D92A530B207E1F710E0C9EFBE
:10023000D0E000E006C021970109802FFE010E9456
:10024000C830C53FD10780E00807A9F70E9474288D
:100250000C94F930D5CECF93DF93882349F0EB018E
:1002600081500E94182C99838883DF91CF91089543
:10027000FB0111821082F9CF0F931F938B019C0118
:1002800083E036952795179507958A95D1F70C50F9
:100290001D4F462F477021E030E0F90102C0EE0FFC
:1002A000FF1F4A95E2F7AF01F80120812423CB011B
:1002B0000196211102C090E080E01F910F910895F6
:1002C0000F931F938B019C0183E03695279517951B
:1002D00007958A95D1F7677081E090E001C0880F9B
:1002E0006A95EAF7F801EC50FD4F2081452B31F477
:1002F0008095822380831F910F910895822BFACFDE
:10030000CF92DF92EF92FF92CF93DF936B017C014C
:1003100060E086E3C816D104E104F10490F486E3BA
:100320008C0D0E94A12CE6012196AE01C701B601F9
:10033000C7DFCE01DF91CF91FF90EF90DF90CF909C
:1003400008958C2DEECF882341F08150682F70E006
:1003500090E080E050E040E0B3CF0895611102C02A
:100360000C94A12C6130E1F362E0FACF662319F01E
:1003700061E00C94DD2C60E0FCCF90E080E008951B
:100380000F931F93009709F489C06115710509F453
:1003900085C00091300210913102209132023091DB
:1003A00033020E3F1F4F2F4F3F4F09F069C0DB0153
:1003B0004D915D916D917C9140933002509331024B
:1003C00060933202709333024091300250913102B7
:1003D0006091320270913302DC011296ED91FC9132
:1003E00080819181A281B38180938B0390938C0350
:1003F000A0938D03B0938E0384819581A681B781EC
:100400008093870390938803A0938903B0938A0312
:1004100080859185A285B38580938303909384031F
:10042000A0938503B093860384859585A685B785BB
:1004300080937F0390938003A0938103B093820302
:1004400010927B0310927C0310927D0310927E0326
:100450000E94000B85E29BE09093FE028093FD02D8
:10046000909300038093FF02AAD7009731F421E014
:1004700030E03093900320938F031F910F910895E4
:1004800000913002109131022091320230913302FA
:10049000FB01008311832283338396CF8FEF9FEF7D
:1004A000ECCF8F929F92AF92BF92CF92DF92EF925A
:1004B000FF921F93CF93DF934B015C011091920346
:1004C00082E090E09093900380938F0381149104D5
:1004D000A104B10441F480919203811104C0809180
:1004E0009103C1E08111C0E0C12CD12C7601809133
:1004F0009203811106C080919103811102C0CC2327
:10050000D9F083E090E09093900380938F03CC2305
:1005100079F1CCE9DFEF111102C00E94890ECE0102
:10052000DF91CF911F91FF90EF90DF90CF90BF9020
:10053000AF909F908F9008956AE070E080E090E027
:100540000E94802B80E1C80E87E2D81EE11CF11CBE
:100550008FEF88169806A806B80631F0C1E08C1413
:100560009D04AE04BF0408F0C0E080E06CD7BFCFAC
:10057000D0E0C0E0D0CFCF92DF92EF92FF920F9306
:100580001F93CF93DF938F3F910511F008F050C078
:1005900020918F03309190032330310539F0209161
:1005A0008F03309190032130310531F424E030E0A5
:1005B0003093900320938F036A017B01EC0182301A
:1005C0009105A0F011E0AE01C701B601F7D6AB016D
:1005D000BC01CE011123F9F0DF91CF911F910F9152
:1005E000FF90EF90DF90CF900C94AE108C01000F35
:1005F000111F03501D4FD8018D919C91892B11F330
:100600000E94B8100297F1F6D801ED91FC91CE014D
:100610001995182FD8CF0E94D01090E080E0DF917C
:10062000CF911F910F91FF90EF90DF90CF900895A1
:100630008FEF9FEFF4CF80E006C7CF93DF9386E084
:1006400090E09093900380938F0356D7EC01EDEFE9
:10065000F2E084E0DF011D928A95E9F70E94210E05
:100660001092900310928F03CE01DF91CF910895E5
:1006700080919103089580917A03089560933002E8
:1006800070933102809332029093330290E080E0C5
:100690000895CF92DF92EF92FF926B017C019F77DA
:1006A00020E030E040E859E50E94752987FF2BC023
:1006B00020E030E040E05FE3C701B6010E94AA2AD3
:1006C00087FD0EC020E030E040E05FE3C701B601E7
:1006D0000E94FE28FF90EF90DF90CF900C94E229CB
:1006E00020E030E040E05FEBC701B6010E94AA2A9B
:1006F000181684F420E030E0A901C701B6010E9479
:10070000AE2A6B017C01C701B601FF90EF90DF902C
:10071000CF90089520E030E040E05FE3C701B601EC
:100720000E94FD28FF90EF90DF90CF900C946229FB
:10073000CF92DF92EF92FF9266E370E080E090E06C
:100740009BDD909376088093750843E050E061E06C
:1007500079E081DD67E370E080E090E08DDD9093EB
:100760006E0880936D0843E050E06FEF78E073DD32
:1007700068E370E080E090E07FDD9093660880930E
:10078000650843E050E06DEF78E065DD69E370E017
:1007900080E090E071DD90935E0880935D0843E017
:1007A00050E06BEF78E057DD6AE370E080E090E0C6
:1007B00063DD909356088093550843E050E069EF5D
:1007C00078E049DD6BE370E080E090E055DD9093E8
:1007D0004E0880934D0843E050E067EF78E03BDD42
:1007E00080910109909102099093EC088093EB08A5
:1007F0008091FF08909100099093EE088093ED0896
:100800008091FD089091FE089093F0088093EF0886
:100810008091FB089091FC089093F2088093F10876
:100820008091F9089091FA089093F4088093F30866
:100830008091F7089091F8089093F6088093F50856
:100840006091000270910102809102029091030276
:1008500020DF6B017C0120E030E040E853E40E949F
:1008600075296FEF87FF0EC020E030E0A901C701B6
:10087000B6010E94AA2A60E087FD04C0C701B60144
:100880000E94792982E072DD609104027091050274
:100890008091060290910702FCDE6B017C0120E052
:1008A00030E040E853E40E9475296FEF87FF0EC0E7
:1008B00020E030E0A901C701B6010E94AA2A60E049
:1008C00087FD04C0C701B6010E9479298BE04EDD87
:1008D000609108027091090280910A0290910B02C6
:1008E000D8DE6B017C0120E030E040E853E40E9458
:1008F00075296FEF87FF0EC020E030E0A901C70126
:10090000B6010E94AA2A60E087FD04C0C701B601B3
:100910000E9479298CE02ADD60910C0270910D0211
:1009200080910E0290910F02B4DE6B017C0120E0F9
:1009300030E040E853E40E9475296FEF87FF0EC056
:1009400020E030E0A901C701B6010E94AA2A60E0B8
:1009500087FD04C0C701B6010E9479298DE006DD3C
:100960006091100270911102809112029091130215
:1009700090DE6B017C0120E030E040E853E40E940F
:1009800075296FEF87FF0EC020E030E0A901C70195
:10099000B6010E94AA2A60E087FD04C0C701B60123
:1009A0000E94792984E0E2DC6091140270911502C2
:1009B00080911602909117026CDE6B017C0120E0A1
:1009C00030E040E853E40E9475296FEF87FF0EC0C6
:1009D00020E030E0A901C701B6010E94AA2A60E028
:1009E00087FD04C0C701B6010E94792985E0BEDCFD
:1009F000609118027091190280911A0290911B0265
:100A000048DE6B017C0120E030E040E853E40E94C6
:100A100075296FEF87FF0EC020E030E0A901C70104
:100A2000B6010E94AA2A60E087FD04C0C701B60192
:100A30000E94792983E09ADC60911C0270911D026A
:100A400080911E0290911F0224DE6B017C0120E048
:100A500030E040E853E40E9475296FEF87FF0EC035
:100A600020E030E0A901C701B6010E94AA2A60E097
:100A700087FD04C0C701B6010E94792986E076DCB3
:100A800060912002709121028091220290912302B4
:100A900000DE6B017C0120E030E040E853E40E947E
:100AA00075296FEF87FF0EC020E030E0A901C70174
:100AB000B6010E94AA2A60E087FD04C0C701B60102
:100AC0000E94792987E052DC60912402709125020E
:100AD0008091260290912702DCDD6B017C0120E0F1
:100AE00030E040E853E40E9475296FEF87FF0EC0A5
:100AF00020E030E0A901C701B6010E94AA2A60E007
:100B000087FD04C0C701B6010E94792988E02EDC68
:100B1000609128027091290280912A0290912B0203
:100B2000B8DD6B017C0120E030E040E853E40E9436
:100B300075296FEF87FF0EC020E030E0A901C701E3
:100B4000B6010E94AA2A60E087FD04C0C701B60171
:100B50000E94792989E00ADC60912C0270912D02B3
:100B600080912E0290912F0294DD6B017C0120E098
:100B700030E040E853E40E9475296FEF87FF0EC014
:100B800020E030E0A901C701B6010E94AA2A60E076
:100B900087FD04C0C701B6010E9479298AE0E6DB1F
:100BA0008091490390914A03A0914B03B0914C036B
:100BB0000196A11DB11D8093490390934A03A09310
:100BC0004B03B0934C03892B8A2B8B2B99F4809188
:100BD0004D0390914E03A0914F03B09150030196A5
:100BE000A11DB11D80934D0390934E03A0934F031D
:100BF000B0935003FF90EF90DF90CF900895CF9285
:100C0000DF92EF92FF920F931F93CF93E3E3F3E012
:100C100083E2DF011D928A95E9F780E090E0A0E889
:100C2000BFEB868F978FA0A3B1A385E996E3A2EFD0
:100C3000BEE684839583A683B78389ED9AE1A5E612
:100C4000B2E780879187A287B3878FEA91EBA6E905
:100C5000B6E684879587A687B78787E59AE5A1E5F5
:100C6000B2E1808B918BA28BB38BA7E2B3E0B3830D
:100C7000A283E1E0F3E01196FC93EE938AE592E023
:100C800091838083938382839583848397838683F0
:100C900091878087938782879587848797878687C0
:100CA000918B808B938B828B958B848B978B868B90
:100CB000918F808F938F828F958F848F978F868F60
:100CC00091A380A393A382A395A384A387E493E035
:100CD00015969C938E93149787E393E013969C93B9
:100CE0008E9312974FEF5FEFBA0118964D935D9375
:100CF0006D937C931B97EBEEF8E088E1DF011D928A
:100D00008A95E9F707E418E084EAF80111928A95D8
:100D1000E9F7C1E0C093EA08C12CD12C7601C39455
:100D2000D8019996CD92DD92ED92FC929C9766E364
:100D300070E080E090E0E4DAF80197A786A7C5A705
:100D400010A2C093E908C1A2D2A2E3A2F4A267E371
:100D500070E080E090E0D4DAF80197A386A3C5A301
:100D6000108EC093E808C18ED28EE38EF48E68E3B5
:100D700070E080E090E0C4DAF801978F868FC58F2D
:100D8000108AC093E708C18AD28AE38AF48A69E3A9
:100D900070E080E090E0B4DAF801978B868BC58B29
:100DA0001086C093E608C186D286E386F4866AE39D
:100DB00070E080E090E0A4DAF80197878687C58725
:100DC0001082C093E508C182D282E382F4826BE391
:100DD00070E080E090E094DAF80197838683C58321
:100DE0001092CF08C093E408C092D008D092D108E6
:100DF000E092D208F092D30861E082E0AFDAC093CB
:100E0000D4081092C708C093E308C092C808D092D3
:100E1000C908E092CA08F092CB0861E08BE09EDA44
:100E2000C093CC081092BF08C093E208C092C008DB
:100E3000D092C108E092C208F092C30861E08CE051
:100E40008DDAC093C4081092B708C093E108C0922D
:100E5000B808D092B908E092BA08F092BB0861E0F5
:100E60008DE07CDAC093BC081092AF08C093E00814
:100E7000C092B008D092B108E092B208F092B308E4
:100E800061E084E06BDAC093B4081092A708C093C5
:100E9000DF08C092A808D092A908E092AA08F092B0
:100EA000AB0861E085E05ADAC093AC0810929F0865
:100EB000C093DE08C092A008D092A108E092A208D8
:100EC000F092A30861E083E049DAC093A40810928D
:100ED0009708C093DD08C0929808D0929908E092D4
:100EE0009A08F0929B0861E086E038DAC0939C088B
:100EF00010928F08C093DC08C0929008D09291089D
:100F0000E0929208F092930861E087E027DAC093BC
:100F1000940810928708C093DB08C0928808D0928A
:100F20008908E0928A08F0928B0861E088E016DA7E
:100F3000C0938C08D801D8961C92C093DA08F801A7
:100F4000C1AED2AEE3AEF4AE61E089E007DAD8011B
:100F5000DD96CC93DD97D0961C92C093D908F8010A
:100F6000C1AAD2AAE3AAF4AA61E08AE0F7D9D8011B
:100F7000D596CC93CF911F910F91FF90EF90DF907A
:100F8000CF90089580916F0881111DC081E08093FA
:100F90006F088091700890917108A0917208B091CB
:100FA00073080197A105B10571F480917408882335
:100FB00051F066E370E080E090E05ED990937608AF
:100FC00080937508C0D98091670881111DC081E0A8
:100FD000809367088091680890916908A0916A08D9
:100FE000B0916B080197A105B10571F480916C086F
:100FF000882351F067E370E080E090E03DD9909362
:101000006E0880936D089FD980915F0881111DC083
:1010100081E080935F088091600890916108A091C1
:101020006208B09163080197A105B10571F4809140
:101030006408882351F068E370E080E090E01CD9F8
:1010400090936608809365087ED980915708811136
:101050001DC081E0809357088091580890915908ED
:10106000A0915A08B0915B080197A105B10571F4F0
:1010700080915C08882351F069E370E080E090E0A3
:10108000FBD890935E0880935D085DD980914F08EE
:1010900081111DC081E080934F088091500890918C
:1010A0005108A0915208B09153080197A105B105CC
:1010B00071F480915408882351F06AE370E080E075
:1010C00090E0DAD890935608809355083CD98091E7
:1010D000470881111DC081E080934708809148082E
:1010E00090914908A0914A08B0914B080197A10539
:1010F000B10571F480914C08882351F06BE370E0E6
:1011000080E090E0B9D890934E0880934D081BD9A9
:101110008091CF08811103C081E08093CF08809136
:10112000C708811103C081E08093C7088091BF0880
:10113000811103C081E08093BF088091B7088111BD
:1011400003C081E08093B7088091AF08811103C08C
:1011500081E08093AF088091A708811103C081E0EE
:101160008093A70880919F08811103C081E080933C
:101170009F0880919708811103C081E080939708B0
:1011800080918F08811103C081E080938F08809146
:101190008708811103C081E08093870880917F08D0
:1011A000811103C081E080937F08809177088111CD
:1011B00003C081E08093770808954F925F926F9209
:1011C0007F928F929F92AF92BF92CF92DF92EF92D7
:1011D000FF920F931F93F894409062035090630323
:1011E0006090640370906503C0905603D0905703DD
:1011F000E0905803F0905903452B09F0A4C09B01DF
:10120000AC01241935094609570929013A01009111
:101210005E0310915F0320916003309161034801E8
:101220005901840C951CA61CB71C80169106A206B9
:10123000B306A0F400915A0310915B0320915C0364
:1012400030915D030F5F1F4F2F4F3F4F00935A03A5
:1012500010935B0320935C0330935D0380925E03E5
:1012600090925F03A0926003B092610300915A03D1
:1012700010915B0320915C0330915D0380926603C3
:1012800090926703A0926803B092690300936A0387
:1012900010936B0320936C0330936D036093620390
:1012A000709363038093640390936503A0E1B7E2B6
:1012B000A30192010E94D0306C0D7D1D8E1D9F1DDB
:1012C0006093560370935703809358039093590388
:1012D000009130021091310220913202309133029C
:1012E0000F3F1F4F2F4F3F4FF1F0009130021091F1
:1012F000310220913202309133020E3F1F4F2F4FA7
:101300003F4F89F0C0903002D0903102E09032021D
:10131000F090330221E08C149D04AE04BF0408F465
:1013200020E020937A0378941F910F91FF90EF9023
:10133000DF90CF90BF90AF909F908F907F906F90F5
:101340005F904F9008954B015C0184189508A608A2
:10135000B708A3019201261B370B480B590B6415E4
:10136000750586059705D0F082169306A406B50686
:1013700040F420E030E0A90181149104A104B104FB
:1013800091F4A0E1B7E20E94D030A7019601261B9C
:10139000370B480B590BCA01B901C5CF821693060A
:1013A000A406B50670F7A0E1B7E2A50194010E947A
:1013B000D0306C0D7D1D8E1D9F1DB5CFFECECF9301
:1013C000DF9300D01F92CDB7DEB71C821B821A823A
:1013D000198210927603109277031092780310927C
:1013E000790310926E0310926F03109270031092A3
:1013F000710310927203109273031092740310928F
:101400007503BE016F5F7F4FCE0103960E94EC26ED
:1014100069817A818B819C810E94DC1F009761F435
:10142000BE016F5F7F4FCE0103960E94F82669814F
:101430007A818B819C812AD50F900F900F900F900D
:10144000DF91CF910895FF920F931F93CF93DF9376
:10145000082F60E070E0CB010E94802BFF24F39402
:101460000E94C51EEC01892B89F010E0CE3F8FEF62
:10147000D80769F0002361F160E070E0CB010E94C1
:10148000802B81E090E0892B59F322C011E021D517
:10149000EC01892B21F0CE3F8FEFD80759F71111BE
:1014A0001EC011E0229609F410E00E94751EEC01A6
:1014B000892B21F0CE3F8FEFD807E1F6111111C033
:1014C00011E0CE3F8FEFD80709F410E001110BC0F7
:1014D000CE01DF91CF911F910F91FF90089511E000
:1014E000E4CF11E0F3CF60E070E0CB010E94802BED
:1014F0001F25812F90E0C7CFCF93DF9380917A0390
:10150000882321F060E070E0CB0148D631D6D0E0EE
:10151000C0E0892B71F06AE070E080E090E00E940A
:10152000802B81E090DF24D62196C03727E1D207B7
:1015300081F723D60E9430201092920310929103DB
:1015400010928B0310928C0310928D0310928E03D5
:1015500010928703109288031092890310928A03D5
:1015600010928303109284031092850310928603D5
:1015700010927F03109280031092810310928203D5
:1015800010927B0310927C0310927D0310927E03D5
:101590004EEF5FEF6FEF7FEF4093300250933102D9
:1015A000609332027093330210927A03E6E6F3E01E
:1015B00028E0DF011D922A95E9F71092620310924C
:1015C0006303109264031092650310925E031092FD
:1015D0005F03109260031092610310925A031092FD
:1015E0005B0310925C0310925D03109256031092FD
:1015F00057031092580310925903DF91CF91089529
:1016000010929E0310929F031092A0031092A103C8
:1016100010929D038091A6039091A70390939C0341
:1016200080939B0310929A03109299031092950352
:101630001092960310929703109298031092A303AE
:101640001092A20390E080E00895CF92DF92EF9293
:10165000FF920F931F93CF938C01892B09F055C0F4
:101660002091A6033091A70380919B0390919C0346
:101670004091A6035091A70350939C0340939B0372
:101680002817390781F010929A031092990310924B
:10169000950310929603109297031092980310925C
:1016A000A3031092A2038091A6039091A703019730
:1016B00061F58091A2039091A303892B21F480917D
:1016C0003402811112C08091A2039091A30301976B
:1016D000E1F48091950390919603A0919703B091C6
:1016E00098030197A105B10581F41092950310921A
:1016F000960310929703109298031092340282E09E
:1017000090E09093A3038093A2038091A60390910D
:10171000A703019709F01CC18091BC039091BD0300
:101720008017910709F014C18091B8039091B90313
:10173000A091BA03B091BB03009709F409C12091AD
:10174000B70321110DC04091B8035091B9036091C6
:10175000BA037091BB03452B462B472B09F4F8C005
:101760002091A2033091A3032230310509F0F0C08B
:10177000209199032111ECC0FC01C080D180E2804E
:10178000F38080919D03882309F4D3C08091A9033D
:101790009091AA03892B09F4FDC02091A9033091EF
:1017A000AA0381E02230310509F080E02091A903ED
:1017B0003091AA03C1E02130310549F02091A903FD
:1017C0003091AA03C1E02230310509F0C0E088233E
:1017D00009F456C02091B3033091B4034091B5038E
:1017E0005091B603C701B6010E94AA2A87FD14C012
:1017F0002091B3033091B4034091B5035091B603E7
:1018000060919E0370919F038091A0039091A1032A
:101810000E94752987FD22C02091B3033091B40343
:101820004091B5035091B603C701B6010E94AA2AA0
:10183000181634F52091B3033091B4034091B503E9
:101840005091B60360919E0370919F038091A00315
:101850009091A1030E947529811112C08091AB0360
:101860009091AC03A091AD03B091AE03892B8A2B6C
:101870008B2B19F481E080939A0381E08093990384
:10188000CC2309F456C02091B3033091B4034091A6
:10189000B5035091B603C701B6010E94752987FFB1
:1018A00014C02091B3033091B4034091B50350911B
:1018B000B60360919E0370919F038091A003909165
:1018C000A1030E94AA2A87FF22C02091B30330916E
:1018D000B4034091B5035091B603C701B6010E940D
:1018E0007529811126C02091B3033091B403409132
:1018F000B5035091B60360919E0370919F03809150
:10190000A0039091A1030E94AA2A181694F4809132
:10191000AB039091AC03A091AD03B091AE03892BC2
:101920008A2B8B2B19F481E080939A0381E08093BA
:10193000990381E090919903911180E080939D0338
:10194000C0929E03D0929F03E092A003F092A10365
:10195000012B09F067C18091A2039091A303892B09
:10196000D9F41092A803109299038091340288232D
:1019700079F082E090E09093A3038093A203109209
:1019800034022091A6033091A70381E0232BE9F0D4
:1019900080E01BC081E00ACF109234028091A8033E
:1019A000882349F010929A031092A3031092A20385
:1019B0001092A803EDCF8091A6039091A703892BE5
:1019C000E1F080919903109299032091A203309144
:1019D000A3032230310509F45EC088F421153105D6
:1019E00009F448C02130310509F4F3C010929A037C
:1019F000109299031092A80338C081E0E6CF2330FB
:101A0000310509F4B1C02430310581F740919503C7
:101A10005091960360919703709198034115510579
:101A20006105710561F041505109610971094093E7
:101A30009503509396036093970370939803409196
:101A40009503509196036091970370919803452BED
:101A5000462B472BD9F42091A4033091A5032130C4
:101A6000310509F046C010929A031092A303109218
:101A7000A2030CC080913402882341F082E090E000
:101A80009093A3038093A2031092340210929303C5
:101A900080919A03CEC08823C9F38091AB039091C3
:101AA000AC03A091AD03B091AE03181619061A0647
:101AB0001B060CF07DC08091A6039091A7030197AF
:101AC00009F076C08091AB039091AC03A091AD0377
:101AD000B091AE038093950390939603A0939703E0
:101AE000B093980383E090E09093A3038093A203C4
:101AF000CDCF4091AF035091B0036091B10370918D
:101B0000B203452B462B472BA9F010929A038091E4
:101B1000AF039091B003A091B103B091B203809351
:101B2000950390939603A0939703B093980381E055
:101B300090E0DACF882399F08091350290913602B7
:101B4000A0913702B0913802809395039093960349
:101B5000A0939703B093980384E090E0C5CF1092D0
:101B60009A0382E090E0C0CF809195039091960314
:101B7000A0919703B09198030097A105B10559F082
:101B80000197A109B1098093950390939603A093BF
:101B90009703B09398038091950390919603A09139
:101BA0009703B0919803892B8A2B8B2B09F06ECF6A
:101BB0008091350290913602A0913702B09138029F
:101BC000892B8A2B8B2B09F44ECF81E080939A03CB
:101BD000B3CF409195035091960360919703709114
:101BE0009803411551056105710561F04150510996
:101BF000610971094093950350939603609397038D
:101C000070939803409195035091960360919703C8
:101C100070919803452B462B472B09F037CF811144
:101C2000C7CF9FCF80919303882309F431CF809150
:101C30009403CF911F910F91FF90EF90DF90CF9081
:101C4000089510929E0310929F031092A003109289
:101C5000A10310929D031092A3031092A20310926D
:101C60009C0310929B031092BD031092BC03109230
:101C70009A03109299031092950310929603109272
:101C8000970310929803109294031092930310926A
:101C9000B8031092B9031092BA031092BB031092CA
:101CA000B7031092B3031092B4031092B5031092CD
:101CB000B60388EE93E0A0E0B0E080933502909305
:101CC0003602A0933702B09338021092AF031092FD
:101CD000B0031092B1031092B2031092AB031092B2
:101CE000AC031092AD031092AE031092AA031092AF
:101CF000A90381E0809334021092A8031092A703F5
:101D00001092A6031092A5031092A40390E080E025
:101D100008958091A6039091A703892BE1F4809107
:101D20003402882351F08091A803811106C081E01C
:101D3000809394038093930308958091A80388234C
:101D400041F080913402811104C01092940381E02B
:101D5000F1CF10929303089582E090E0FA0191830D
:101D600080838FEF9FEF0895CF93DF93EA01009771
:101D700011F00E9450211982188290E080E0DF91DA
:101D8000CF910895DB01009719F48FEF8C9308959C
:101D90002EEF2C93FC017096E031F10508F037C06E
:101DA0008827EA52F14F8F4F0C94C830050F030F6C
:101DB000010FFF0EFD0EFB0EF70EF90EF50EF30EE2
:101DC000F10EEE0EEA0EE60EEC0E070F80E3119612
:101DD0008C93089589E2FBCF82E2F9CF11961C9291
:101DE000089583E2F4CF81E2F2CF81E1F0CF87E280
:101DF000EECF8AE2ECCF80E1EACF84E2E8CF88E25E
:101E0000E6CF86E2E4CF81E3E2CF83E3E0CF80E276
:101E1000DECF8091CA039091CB0308959093CB03BA
:101E20008093CA0308958091C90308959091C903CE
:101E3000892B8093C9030895982F90958091C903A9
:101E400089238093C90308958091C80308958091E0
:101E5000C6039091C70308956115710559F0FB0100
:101E600030E020E070E060E02417350719F06115DC
:101E7000710511F0CB010895A081B181A817B907B0
:101E800009F4BF012F5F3F4F3696EECF8091CC0310
:101E900081111CC060D266D29093BF038093BE03B1
:101EA0000E944E190E9460199093C3038093C2034D
:101EB0000E94DD1D0E94E41D9093C1038093C00326
:101EC00081E08093CC0390E080E0089584EF9FEF61
:101ED00008958F929F92AF92BF92CF92DF92EF922E
:101EE000FF920F931F93CF93DF9300D000D000D0C9
:101EF0001F92CDB7DEB71A86198618861F821E82FA
:101F00001D821C821B821A8219828091CC0307EFEA
:101F10001FEF882309F49CC08E010D5F1F4F9E01A7
:101F20002B5F3F4FAE01495F5F4FBE01675F7F4F41
:101F300090E080E00E94611F8C01009721F00596DF
:101F4000029708F0DBC029853A852115310509F48F
:101F500002C1ED80FE804B815C81B701640F751F6B
:101F60008F8198858617970708F4F5C0E20EF31E57
:101F7000D7019C91903C09F07FC04230510508F494
:101F80007BC011968C914091CA035091CB03452B95
:101F900009F49CC0913F08F071C02CE1290F2D304D
:101FA00008F48BC02DE2290F203108F489C0903C41
:101FB00021F48150823008F483C088E3890F8B308C
:101FC00008F481C092ECC92E9EE0D92EECEAFEE026
:101FD0006D817E81AE014F5F5F4F89859A8519952E
:101FE0005C01C114D104A1F189809A80811491040B
:101FF00079F18B819C818815990508F487C010E0E0
:1020000000E04B815C8170E060E0C7010E94F2302B
:1020100001151105E9F449815A8169857A858D8117
:102020009E81680F791FC501F6011995E980FA8034
:102030000D811E812F81388549855A856FEF7FEF8D
:1020400081E090E00E94FC1E8C01892B09F056C0B3
:10205000C8012A960FB6F894DEBF0FBECDBFDF9140
:10206000CF911F910F91FF90EF90DF90CF90BF9095
:10207000AF909F908F90089580E085CF30E020E072
:10208000220F331FF901E254FC4F0190F081E02D43
:10209000309709F497CF892F90E01995009709F4AC
:1020A00091CFDC011296ED91FC9113971496CD908F
:1020B000DC90309709F08CCF1FC021E030E0E0CFFA
:1020C00022E030E0DDCF23E030E0DACFD12CC12CAC
:1020D000E4EBFEE09F3F09F07BCFE091BE03F0917F
:1020E000BF03309721F4C90104EF1FEF0CC08FEF3D
:1020F00090E019950097A9F604EF1FEF89859A855E
:10210000009709F4A5CF0E945021A2CF0E942B2056
:102110008C0189859A850E94502170E060E0C4019D
:102120000E94C41F98878F830E94F91E9E838D830F
:102130006F8178856115710559F0C8010E94DC2214
:102140009A87898706EF1FEF892B09F058CF59CF5F
:1021500008EF1FEF56CF08EF1FEFD0CF2091CC0331
:10216000222319F020E00C94651987EF9FEF089562
:102170008091CA039091CB0308950E94E91D0E94AB
:10218000431DF5D0EEEBF3E088E0DF011D928A9568
:10219000E9F71092CC0390E080E008950C94A11B25
:1021A00021E040E050E0BA010C94651986E090E02F
:1021B000FA019183808390E080E0089547E050E049
:1021C0006DE572E049CEDF92EF92FF920F931F937D
:1021D000CF93DF938A01EC01C60FD71FE090D003A5
:1021E000F090D103D9800E941320D816190678F0F8
:1021F00082E090E0F801918380838EEF9FEFDF9182
:10220000CF911F910F91FF90EF90DF900895EF28ED
:1022100041F482E090E0F8019183808384EF9FEFA6
:10222000EECF89818093CF0390E00196F8019183EE
:10223000808390E080E0E3CFCF93DF93EA010E94B8
:10224000521C882321F00E9420200E94531C82E00F
:1022500090E0998388838BEF9FEFDF91CF91089572
:10226000CF93DF93EB0186E0FB0111928A95E9F7AA
:102270008FEF8883D8DD8983E7DD8A83E8DD9D835E
:102280008C83DF91CF910895CF93DF93EA010E9471
:10229000551C811109C082E090E09983888385EF05
:1022A0009FEFDF91CF91089590E080E0B7DD81E06E
:1022B00090E09983888390E080E0F3CF0F931F93A1
:1022C000CF93DF93EA018C01060F171F0E94551C64
:1022D00081110BC082E090E09983888385EF9FEFA6
:1022E000DF91CF911F910F910895F8018181823084
:1022F00038F082E090E0998388838EEF9FEFF0CFF3
:1023000081E090E08BDD88E090E09983888390E025
:1023100080E0E6CFCF93DF930097D1F4EB01FB0190
:10232000329686E0DF011D928A95E9F78FEF888368
:1023300085E089831A820E9413208B830E941220D9
:102340009D838C8381E08E838F83DF91CF9108956D
:10235000DF91CF9117CD8EED90E19093CE038093D6
:10236000CD0308958091CD039091CE0308951092EE
:10237000CE031092CD0308958091D0039091D103A4
:102380000895411105C0611571058105910561F040
:102390006093D0037093D1038093D2039093D303BF
:1023A0004093D40381E0089580E00895FF920F9355
:1023B0001F93CF93DF938A01EC01C60FD71FF980DB
:1023C0000E941320F816190668F082E090E0F801E8
:1023D000918380838EEF9FEFDF91CF911F910F91BB
:1023E000FF9008956C817D818E819F814B81C9DF33
:1023F000811108C082E090E0F8019183808384EF2E
:102400009FEFEACF89818093CF0390E00196F80196
:102410009183808390E080E0DFCFCF93DF93EA0168
:10242000FC01E60FF71F64817581868197814381E6
:10243000A8DF811109C082E090E09983888384EF4E
:102440009FEFDF91CF91089581E090E09983888399
:1024500090E080E0F6CFE0EDF3E0408151816281D1
:102460007381480F511D611D711D4083518362832B
:1024700073830895CF93C091CF034C2F50E06091A8
:10248000D0037091D10301960E94E9308C2FE3DFD5
:102490001092CF03CF910895009799F48091D003C3
:1024A0009091D1032FEFFB012083892B59F02091CC
:1024B000CF0330E02F5F3F4F2417350719F4CB01CE
:1024C000D9CF60CC0895009799F48091D003909172
:1024D000D1032FEFFB012083892B59F02091CF03EB
:1024E00030E02F5F3F4F2417350719F4CB01C2CFDF
:1024F00049CC089523E1AC01249FC001259F900D94
:102500001124E091D903F091DA03E80FF91F238138
:1025100034812250310981E02230310508F080E019
:1025200008950F931F93CF93DF930091DB031091D6
:10253000DC03D0E0C0E080E00C171D0749F491E017
:10254000811190E0892FDF91CF911F910F91089514
:102550008111F5CFCE01CEDF2196EECFA091D90328
:10256000B091DA03109729F12091DB033091DC035D
:1025700082179307F0F453E1589F9001599F300D53
:102580001124A20FB31FED91FC911197309789F0A0
:1025900012968C91681768F48DE0689FE00DF11D2C
:1025A000112480819181892B21F081E0928149174A
:1025B00008F080E008959C0143E1429FC001439FE1
:1025C000900D1124E091D903F091DA03E80FF91F7F
:1025D0008385823091F481E090E06581768140913D
:1025E000390250913A026417750711F490E080E0C7
:1025F000892B19F081E0232B09F080E00895FC017C
:10260000A081B1818DE0689FA00DB11D11241396AA
:102610004D915C9185859685489F9001499F300D2D
:10262000589F300D1124C9010196611103C04781E3
:1026300044FD04960895EF92FF920F931F93CF935A
:10264000DF93EA01FC01E60FF71F02811381E480AA
:10265000F5804F2D6E2DC80181DF81110DC082E004
:1026600090E0998388838EEF9FEFDF91CF911F9148
:102670000F91FF90EF900895C8013CDF882339F057
:1026800082E090E09983888388EF9FEFEECF1093EC
:10269000400200933F02E0924102F092420281E048
:1026A00090E09983888390E080E0DFCFCF92DF9243
:1026B000EF92FF920F931F93CF93DF937A01EC0178
:1026C000C60FD71FC0903F02D09040020091410238
:1026D00010914202412F602FC60140DF811110C0CE
:1026E00082E090E0F701918380838AEF9FEFDF9192
:1026F000CF911F910F91FF90EF90DF90CF900895B1
:10270000C601F8DE882341F082E090E0F701918372
:10271000808388EF9FEFEBCF4C815D816E817F815D
:102720009A8189818F3F41F082E090E0F7019183A7
:1027300080838EEF9FEFDBCFE3E1EC9D9001ED9D79
:10274000300D1124E091D903F091DA03E20FF31F69
:102750000190F081E02D2DE0029FE00DF11D11248C
:102760000190F081E02D27E0129FE00DF11D112472
:10277000808391838B8182834383548365837683B3
:102780001F5F1093420281E090E0F7019183808304
:1027900090E080E0ACCFEF92FF920F931F93CF9326
:1027A000DF937A018C01060F171FC091D903D091D6
:1027B000DA03209781F021E030E0F80182819381F3
:1027C0004091DB035091DC038417950710F030E053
:1027D00020E0232B71F482E090E0F7019183808365
:1027E0008EEF9FEFDF91CF911F910F91FF90EF90B0
:1027F000089543E1489F9001499F300D1124C20F75
:10280000D31F78DE882341F082E090E0F7019183C6
:10281000808388EF9FEFE6CFF8012481358120384F
:102820003105C8F687818111D6CF4181842F90E090
:102830008F7E009741F082E090E0F70191838083E2
:1028400086EF9FEFCFCF4F833E832D83268128874E
:102850001986223010F421E0288721E030E0F701CA
:1028600031832083BFCF88E090E0FA019183808399
:1028700090E080E00895FB018FEF808381E1818308
:102880008FEF9FEF9383828380E890E0958384832A
:10289000168217820895FB018FEF808391E0918368
:1028A00082839383848384E3858381E090E09783AC
:1028B0008683089582E090E0FA019183808380EF1F
:1028C0009FEF0895DF92EF92FF920F931F93CF93A4
:1028D000DF93EA01FC01E60FF71F8181813071F07F
:1028E00082E090E0998388838FEF9FEFDF91CF9113
:1028F0001F910F91FF90EF90DF9008958281938157
:10290000D4802581E680F7800091D9031091DA0305
:102910000115110539F482E090E0998388838CEFEA
:102920009FEFE4CF4091DB035091DC0384179507C0
:1029300038F082E090E0998388838EEF9FEFD6CFC6
:10294000892B39F082E090E09983888386EF9FEFAE
:10295000CDCF8D2D8D7FB1F72130A1F781E0D11042
:1029600006C091E0E916F10431F080E004C0E2E035
:10297000EE16F104D0F3882329F390E080E0BADD6D
:10298000882339F082E090E09983888388EF9FEF75
:10299000ADCFF801D38681E08487F686E586108A7C
:1029A000178681E090E09983888390E080E09ECF55
:1029B0004DE050E067E872E04FCA8F929F92BF925D
:1029C000CF92DF92EF92FF920F931F93CF93DF93FB
:1029D000EA01FC01E60FF71F828193810481B58033
:1029E000E091D903F091DA03309791F482E090E01E
:1029F000998388838CEF9FEFDF91CF911F910F9187
:102A0000FF90EF90DF90CF90BF909F908F900895B0
:102A10002091DB033091DC038217930738F082E0CA
:102A200090E0998388838EEF9FEFE6CF23E1289F84
:102A30006001299FD00C1124EC0DFD1DE080F18078
:102A4000E114F10499F28281081748F78DE0089F9C
:102A500080011124E00EF11EF70180819181892B04
:102A600029F6BB20E1F2F7E0BF9E40011124C4012A
:102A70000E941721F70191838083E091D903F0919F
:102A8000DA03EC0DFD1D0190F081E02DE00FF11F48
:102A900080819181009739F482E090E09983888366
:102AA0008DEF9FEFA9CFA40170E060E00E94F230AB
:102AB0008091D9039091DA03C80ED91EF601808166
:102AC0009181080F191FF801B28281E090E099838B
:102AD000888390E080E090CFAF92BF92CF92DF9258
:102AE000FF920F931F93CF93DF93EA01FC01E60F50
:102AF000F71F82819381F4800091D9031091DA034A
:102B00000115110581F482E090E0998388838CEFB0
:102B10009FEFDF91CF911F910F91FF90DF90CF90AA
:102B2000BF90AF9008952091DB033091DC038217B2
:102B3000930738F082E090E0998388838EEF9FEFCF
:102B4000E8CF2FEF2F0D2C3FA8F723E1289F60013E
:102B5000299FD00C11240C0D1D1DF801808191813D
:102B6000892B89F6FDE0FF9E50011124C5010E94CA
:102B70001721F80191838083E091D903F091DA0362
:102B8000EC0DFD1D80819181009739F482E090E089
:102B9000998388838DEF9FEFBCCFA50170E060E043
:102BA0000E94F230E091D903F091DA03EC0DFD1DA3
:102BB000F28281E090E09983888390E080E0A9CF61
:102BC000CF92DF92EF92FF920F931F93CF93DF93F9
:102BD000860F971FFC01028113818091D903909188
:102BE000DA03892B81F082E090E0FA0191838083FF
:102BF0008CEF9FEFDF91CF911F910F91FF90EF909E
:102C0000DF90CF900895C801B0E0A0E00197A1093E
:102C1000B1098F3F9F4FA105B10540F082E090E0E0
:102C2000FA01918380838EEF9FEFE4CF7A0183E1F5
:102C3000809F6001819FD00C1124C6010E94172142
:102C4000EC01009741F482E090E0F70191838083EA
:102C50008DEF9FEFCFCFA60170E060E00E94F230D1
:102C6000D093DA03C093D9031093DC030093DB0302
:102C700090E080E02FEF3FEF41E061E070E08017EF
:102C8000910741F481E090E0F7019183808390E027
:102C900080E0B0CF3A8B298B1B864C877E876D876F
:102CA000188A1F8601966396EACFEF92FF921F93D0
:102CB000CF93DF93EC0110E0F12CE12C6A81161721
:102CC000B0F083E0689FB0011124AE014F5E5F4F0A
:102CD000C7010E947C21009721F02FEF3FEF3A8B34
:102CE000298BDF91CF911F91FF90EF900895612F75
:102CF000CE0185DC61E070E00E94C41FE816F90691
:102D000008F47C011F5FDACFF8942091D70330914B
:102D1000D80381E02115310509F080E0232B09F06B
:102D2000789408952F923F924F925F926F927F9284
:102D30008F929F92AF92BF92CF92DF92EF92FF92CB
:102D40000F931F93CF93DF933C01660E771EF30121
:102D5000828193814C01B12CA12CC091D903D091D7
:102D6000DA03209769F021E030E06091DB03709195
:102D7000DC038617970710F030E020E0232BD1F416
:102D800082E090E0FA01918380838EEF9FEFDF91E4
:102D9000CF911F910F91FF90EF90DF90CF90BF9058
:102DA000AF909F908F907F906F905F904F903F90EB
:102DB0002F9008958092430290924402A09245027F
:102DC000B092460263E1689F9001699F300D112423
:102DD000C20FD31FF3018181833040F082E090E085
:102DE000FA019183808386EF9FEFD1CF2A012B8157
:102DF0003C81232BF1F4288139819F8191FF2EC0E2
:102E0000232B09F46FC02091DE039A81422F490FD2
:102E10005527551FBA0141E050E06138710514F0A3
:102E200050E040E0452B09F45DC02A87920F909353
:102E3000DE038150823008F481C066DF882309F404
:102E4000D8C0F3018181813009F48DC008F47BC0C2
:102E5000823009F4C6C090E080E0ADC0232B09F4B5
:102E600041C02091DD039A81E22FE90FFF27FF1F68
:102E700041E050E0ED3FF10514F050E040E0452B1B
:102E800089F12A87920F9093DD03D3CFA081B1817E
:102E9000A20FB31F11966C91060F111D0196295FA9
:102EA0003F4F8417950794F38D859E85089F1001E9
:102EB000099F300C189F300C1124C114D104D1F497
:102EC0008F8184FF17C00E941220F5E02F0E311C65
:102ED00021E08215930508F420E0A701435F5F4FCE
:102EE00021110EC082E090E0F2019183808387EF90
:102EF0009FEF4DCF0E9412202FEF221A320AE8CF07
:102F000088819981E80EF91EF70114830383FFEF8E
:102F1000CF1ADF0A7A018A818C151D0409F00CF49E
:102F20008CCFE881F981EE0DFF1D428150E030E049
:102F300020E010E000E090E080E0B3CFF12CE12C45
:102F4000D12CC12CE8CF81E090E09C838B83E9DA1F
:102F5000882309F480CF81E090E00E940E0F80E486
:102F60000E941C0F78CF89899A89019661F083E0CD
:102F700090E09C838B8382E090E00E940E0F80E4BF
:102F80000E94160F68CF8D819E8120913902309169
:102F90003A0282179307D1F460913D0270913E028C
:102FA000AE014F5E5F4F80913B0290913C020E94C8
:102FB0009B220097E1F2789422E030E0F201318325
:102FC0002083892B99F08DEF9FEFE1CE89288A2805
:102FD0008B2869F6892B59F6CE0167DE188A1F8681
:102FE000E8CF82E090E09C838B8335CF90E080E057
:102FF000CECE82E090E0F2019183808385EF9FEF57
:10300000C6CE8F929F92AF92BF92CF92DF92EF92F5
:10301000FF920F931F93CF93DF93EA018C01060F6A
:10302000171FF8018181833098F082E090E0998346
:10303000888386EF9FEFDF91CF911F910F91FF90D3
:10304000EF90DF90CF90BF90AF909F908F900895BA
:103050008091D9039091DA03892B61F081E090E0AF
:103060002091DB033091DC03232B11F490E080E00E
:10307000892B39F482E090E0998388838EEF9FEF6B
:10308000DACF42DE882309F4DFC0F8018181813084
:1030900009F495C0E8F0823099F42091DB03309177
:1030A000DC03E091D903F091DA0390E080E041E0A5
:1030B00050E02817390709F0BDC033DA811117C075
:1030C000789481E090E09983888390E080E0B3CFAA
:1030D0002091DB033091DC03E091D903F091DA0316
:1030E00090E080E041E050E02817390741F481E0AA
:1030F00090E00E940E0F80E40E941C0FE1CF6381DC
:103100007481672B11F05483438301967396ECCF3F
:10311000E091D903F091DA03E00FF11F23813481AC
:1031200022303105D9F4218932892F3F3F4FB1F444
:10313000258136814091390250913A022417350792
:1031400061F5AF014F5E5F4F60913D0270913E02AD
:1031500080913B0290913C020E949B22EFEFCE1A9D
:10316000DE0AEE0AFE0A0D5E1F4F4091DB0350910E
:10317000DC0370E060E0C416D506E606F7063CF511
:10318000009731F27894892B09F49BCF82E090E08C
:10319000998388838DEF9FEF4ECFC114D104E10452
:1031A000F104E1F6232BD1F6CF017FDDE091D903C5
:1031B000F091DA03E00FF11F108A1786CFCF10E0ED
:1031C00000E090E080E0C12CD12C7601CECF0097BA
:1031D000C9F610E000E0812C912C540183E0E82E28
:1031E000F12C1AC0E091D903F091DA03E00FF11F3E
:1031F00083819481029749F4F482E38282E090E033
:103200000E940E0F80E40E94160FFFEF8F1A9F0A94
:10321000AF0ABF0A0D5E1F4F8091DB039091DC0364
:10322000B0E0A0E088169906AA06BB06DCF290E0A2
:1032300080E0A8CF638174816230710511F45483FA
:1032400043830196739635CF82E090E0998388831B
:1032500085EF9FEFF0CE0097B9F48FEFFB018083ED
:10326000209143023091440243E1429FC001439FB9
:10327000900D1124E091D903F091DA03E80FF91FC2
:103280008285FB01818308950C94C20E88E090E052
:10329000FA019183808390E080E008951092D80332
:1032A0001092D703E9EDF3E086E0DF011D928A95E5
:1032B000E9F788ED94E19093D6038093D5030895C0
:1032C0008091D5039091D60308952F923F924F920B
:1032D0005F926F927F928F929F92AF92BF92CF92A6
:1032E000DF92EF92FF920F931F93CF93DF93CDB7AF
:1032F000DEB72F970FB6F894DEBF0FBECDBFF894A0
:10330000E091D703F091D8033196F093D803E0937E
:10331000D70378944090D9035090DA0341145104B4
:1033200009F40CC2E091DB03F091DC03EF2B09F40C
:1033300005C22D8749875A876B877C8798878F833B
:103340001201B12CA12C10E000E08091DB039091E0
:10335000DC03A816B90618F40115110529F1F89433
:103360008091D7039091D80301979093D8038093CD
:10337000D7037894C8012F960FB6F894DEBF0FBE1E
:10338000CDBFDF91CF911F910F91FF90EF90DF9014
:10339000CF90BF90AF909F908F907F906F905F90F5
:1033A0004F903F902F9008957101E418F508D101D6
:1033B00017968C91179781FD54C013968D919C910F
:1033C0001497039709F04DC015968D919C91EF814C
:1033D000F8858E179F0709F044C0B50190E080E0A2
:1033E0007FD48A832091D9033091DA033D832C83E3
:1033F0003D85332309F44CC04C815D81452B09F494
:103400009AC18091DB039091DC03A816B90608F0FD
:1034100092C1C501D0D88823E9F06C817D816E0D01
:103420007F1D7D836C83DB011F968D919C91892B81
:1034300089F0D12CC12CF12CE12CAC81BD811296EC
:103440008C9112978E151F0409F094F450961C92DB
:103450001E921F972A81222321F0B50190E080E07F
:1034600041D43FEFA31AB30A43E1240E311C6DCFC0
:10347000AC81BD81ED91FC91EC0DFD1D85819681A6
:103480000FD7BFEFEB1AFB0AEDE0CE0ED11CD5CF64
:10349000EC81FD81309709F44EC18091DB0390915E
:1034A000DC03A816B90608F046C1EE0DFF1DFF8724
:1034B000EE87C50180D88B83882339F1AE85BF851F
:1034C0001F968D919C915097019621E01D964D91EC
:1034D0005C918417950709F020E02E831982712CE6
:1034E00010E000E0AE85BF8512968C91781608F446
:1034F0005DC0EE85FF858785908901966585768517
:103500000E949230908B8787A5CFB1E0BE83E6CF33
:10351000992493946BC08BD6F6019683858382C0E1
:10352000D601ED90FC90B7E06B9EE00CF11C1124ED
:10353000F7016381748180818F3F61F121E030E088
:1035400002C0220F331F8A95E2F7C901092E000C31
:10355000AA0BBB0BFB0140815181628173818423E3
:103560009523A623B72321E0892B8A2B8B2B09F4E3
:1035700020E0D4012C93D70111968C91F60123857C
:103580003485820F932F911D880E991E1486138601
:1035900063949BC0418150E0C4010E94E930EBCFAD
:1035A000998206EF1FEFC5C01982C3C0F981F111DE
:1035B000A0CFEDE07E9E70011124AE85BF85CD9039
:1035C000DC90CE0CDF1C15D49D838C83BB81BB2388
:1035D00009F49ECF81E0EE85FF8527853089232B76
:1035E00009F080E0982E882309F458C0672D8E8555
:1035F0009F8505D8D60118969C938E93179761E006
:1036000070E0C2D4EE85FF85218932892F3F3207D1
:1036100009F481CFBC01C901CFD7D60116969C937E
:103620008E931597D60115968D919C9116970097BC
:1036300009F4B6CFEC81FD818E0F9F1F1A969C93E3
:103640008E931997AE85BF85ED91FC911197EE0E83
:10365000FF1EF70121853285148613861A968C91F8
:10366000870DD9018D93711016C0EE85FF85878176
:1036700084FF11C049855A856B857C85F90141839A
:10368000528363837483F701838594850496A80F1E
:10369000B91F14861386F701B287A187D601159644
:1036A0008D919C911697892B09F443C0EE85FF8577
:1036B000258136818091390290913A022817390785
:1036C00079F019968D909C90612CD60112968C9170
:1036D0001297681608F424CF1A969C928E92199726
:1036E000BE81BB2309F460CF61E070E0F601878101
:1036F00090854AD4D6011796ED90FC9018971596B0
:103700004D915C91E1E0F0E0BA81BB2311F0F0E073
:10371000E0E00C811D819C01B501882799278E1B53
:103720009F0B6AD38C01892B21F0F601858196814C
:10373000B7D57394D7CE0FEF1FEF8CCE10E000E01B
:103740000ECE2F923F924F925F926F927F928F9206
:103750009F92AF92BF92CF92DF92EF92FF920F9320
:103760001F93CF93DF938091D9039091DA0310E0F8
:1037700000E0892BA9F0C8DA0AEF1FEF882381F057
:103780002090DB033090DC03C091D903D091DA03A1
:10379000D12CC12C10E000E02C143D04A9F4789445
:1037A000C801DF91CF911F910F91FF90EF90DF90B3
:1037B000CF90BF90AF909F908F907F906F905F90D1
:1037C0004F903F902F900895C6010E94DB128823EE
:1037D00009F18B819C810397E9F48F859889892B66
:1037E000C9F0B60190E080E07BD221E030E0882390
:1037F00011F030E020E044245524421A530AB12C41
:10380000A12C912C812C8A818815190409F038F497
:10381000188A1F864FEFC41AD40A6396BDCFE88179
:10382000F981EA0DFB1D85819681892BA1F161E06B
:1038300070E087819085A8D33C01DBD28C01E881C0
:10384000F981EA0DFB1D8185928525813681200F46
:10385000311FAC01421B530B9A0147815085421B1B
:10386000530B70E060E00E94F230E881F981EA0DCC
:10387000FB1DE780F084458156819301B601C201AA
:10388000BBD28C01892B39F0E881F981EA0DFB1D4F
:103890008581968105D55FEF851A950A8DE0A80E82
:1038A000B11CB1CF31CA789408952F923F924F92B4
:1038B0005F926F927F929F92AF92BF92CF92DF9270
:1038C000EF92FF920F931F93CF93DF9300D000D01E
:1038D000CDB7DEB70091D9031091DA039924939400
:1038E0000115110509F43EC0A090DB03B090DC0384
:1038F0000BDA982E8823B1F11092DA031092D903D3
:103900001092DC031092DB031092DD031092DE03B1
:103910008FEF9FEFDC018093430290934402A093CA
:103920004502B093460278947FD31E830D83C12C49
:10393000D12C7601C501B0E0A0E089839A83AB83E6
:10394000BC8322242A94322C89819A81AB81BC8148
:10395000C816D906EA06FB06F4F0C801A1D480E433
:103960000E941C0F892D26960FB6F894DEBF0FBE5D
:10397000CDBFDF91CF911F910F91FF90EF90DF901E
:10398000CF90BF90AF909F907F906F905F904F903F
:103990003F902F900895AD81BE8115968D919C9199
:1039A00016972091390230913A0282179307D1F489
:1039B00051968D919C91EED5ED81FE818081918112
:1039C000B12CA12C412C512C3201892B89F5BFEF50
:1039D000CB1ADB0AEB0AFB0AED81FE817396FE83AC
:1039E000ED83B2CFC114D104E104F10429F7892B8E
:1039F00019F7ED81FE81818992898F3F980709F03F
:103A000029D5AD81BE8152963C922E925197D4CF4A
:103A10008A0D9B1DDC018D919C91009709F040D48B
:103A2000BFEF4B1A5B0A6B0A7B0AEDE0AE0EB11CCE
:103A3000AD81BE818D919C91119712964C9150E071
:103A400070E060E044165506660677060CF328D44D
:103A5000BECFCF93DF93EA0128DF811109C082E056
:103A600090E09983888385EF9FEFDF91CF91089550
:103A700081E090E00E940E0F81E090E099838883BE
:103A800090E080E0F2CF11DF1092D6031092D503C0
:103A9000089542E050E065ED72E00C942C0FFF9227
:103AA0000F931F93CF93DF938A01EC01C60FD71FAB
:103AB000F980B9D20897F816190671F068F082E01B
:103AC00090E0F801918380838EEF9FEFDF91CF919B
:103AD0001F910F91FF9008956C817D818E819F8150
:103AE0004B810E94C111811108C082E090E0F80171
:103AF0009183808384EF9FEFE9CFF9800E94BC110E
:103B00004F2D50E0BE01685F7F4F0E94E9308981F0
:103B10000E942B1281E090E0F8019183808390E075
:103B200080E0D4CFDF92EF92FF920F931F93CF9359
:103B3000DF938A01EC01C60FD71F0E94BC117C01E4
:103B4000D98071D2DD2059F0029721E030E0D816FB
:103B5000190619F010F030E020E0232B79F482E010
:103B600090E0F801918380838EEF9FEFDF91CF91FA
:103B70001F910F91FF90EF90DF900895EF2841F48F
:103B800082E090E0F8019183808384EF9FEFEECF95
:103B9000F9800E94BC114F2D50E0BE016E5F7F4F37
:103BA0000E94E93089810E942B1281E090E0F801A7
:103BB0009183808390E080E0D9CF89E49DE1909368
:103BC000E0038093DF0308958091DF039091E00389
:103BD00008950895FC0111821082938382830895D1
:103BE000DB011D921C92DC011296ED91FC91139762
:103BF0007183608313967C936E9312970895FC01F2
:103C000080819181DB018D939C93A081B18110977C
:103C100041F08D919C9191838083892B11F4F383E2
:103C2000E2830895FC0180819181DB018D939C9357
:103C3000892B11F473836283718360830895FC017F
:103C400011821082938382830895CF93DF931F9212
:103C50001F92CDB7DEB71A821982F894BE016F5F4A
:103C60007F4F86EE93E0CBDF89819A81009709F040
:103C700017D389819A81892B89F7BE016F5F7F4FA6
:103C80008AEE93E0BCDF89819A81009709F008D31E
:103C900089819A81892B89F778940F900F90DF9111
:103CA000CF910895CF93DF931F921F92CDB7DEB7C8
:103CB0001A821982F894BE016F5F7F4F82EE93E003
:103CC0009EDF89819A81009709F0EAD289819A81E1
:103CD000892B89F778940F900F90DF91CF910895F9
:103CE00081E0089590E080E00895EF92FF920F93B5
:103CF0001F93CF93DF931F921F92CDB7DEB71A8227
:103D000019828091E10307EF1FEF8823A1F1F89456
:103D1000BE016F5F7F4F8AEE93E071DF78948981F7
:103D20009A81EE24E394F12C892B51F4F894BE018E
:103D30006F5F7F4F86EE93E062DF7894F12CE12C89
:103D400089819A810EEF1FEF0097A9F0FC01428153
:103D5000538164E070E074D68C01892B61F0F89493
:103D600069817A81C701880F991F880F991F8A512D
:103D70009C4F58DF7894C8010F900F90DF91CF913E
:103D80001F910F91FF90EF9008950F931F93CF9382
:103D9000DF9300D01F92CDB7DEB71C821B821A8240
:103DA00019828091E10307EF1FEF8823C1F0AE0174
:103DB0004D5F5F4F64E070E0CE010196B4D68C0198
:103DC000892B69F4E981FA818B819C8193838283B9
:103DD000F89469817A8182EE93E002DF7894C801D9
:103DE0000F900F900F900F90DF91CF911F910F9137
:103DF0000895B9D7049608958F929F92AF92BF927B
:103E0000CF92DF92EF92FF920F931F93CF93DF93A6
:103E10001F921F92CDB7DEB71A821982BC016F5F65
:103E20007F4F6330710598F0AA24AA94BA2CC5017B
:103E30000F900F90DF91CF911F910F91FF90EF9016
:103E4000DF90CF90BF90AF909F908F9008954115D5
:103E5000510551F3480159018A016C01CADF8815E7
:103E6000990511F7E114F104F9F28E0D9F1DA816C2
:103E7000B906D0F28091E1038823F1F0F894B501FE
:103E8000645071099701AE014F5F5F4FC8010496FE
:103E9000DFD65C01892B71F489819A81F8019383C3
:103EA0008283C601880F991F880F991FB8018A5114
:103EB0009C4F96DE7894BBCF87EFA82EBB24BA9494
:103EC000B6CFAF92BF92CF92DF92EF92FF920F9355
:103ED0001F93CF93DF931F921F92CDB7DEB71A8245
:103EE0001982892B09F047C06115710509F443C097
:103EF0004115510509F43FC02115310509F43BC0B6
:103F000001151105C1F18091E1038823B9F179010F
:103F10006A015B01F894BE016F5F7F4F82EE93E010
:103F20006EDE789489819A81009759F1DC011296AE
:103F30006D917C91A8010496A4D68C01E981FA8147
:103F4000D501ED93FC93828193810496F6019183D0
:103F500080834FDFD7018D939C93C8010F900F9002
:103F6000DF91CF911F910F91FF90EF90DF90CF9055
:103F7000BF90AF9008950FEF1FEFEFCF07EF1FEF48
:103F8000ECCF0EEF1FEFE9CFCF93DF93EC01672B60
:103F900071F4F2D68C179D0760F0E5D62496C80F11
:103FA000D91FE4D68C0F9D1FDF91CF910895E1D6E4
:103FB000F1CF90E080E0F8CF0F931F93CF93DF9382
:103FC0002091E10321112BC08B01EC0186EE93E0DF
:103FD00001DE8AEE93E0FEDD82EE93E0FBDD97D01A
:103FE0000097C1F4C9D670E060E0CEDF47E452E04C
:103FF00062E070E081D1009769F48091470290916E
:104000004802CCD6B801CE0101D5009719F421E0C1
:104010002093E103DF91CF911F910F91089584EFD9
:104020009FEFF8CFA6C6A8C6CF93DF93A8D6EC0122
:10403000892B11F40ADE36DECE01DF91CF9108958F
:10404000CF93DF939CD6EC01892B09F4FEDDCE01E2
:10405000DF91CF9108958091470290914802089591
:10406000CF93DF938091E103D0E0C0E08823D1F0CB
:104070009AD6EC01892BB1F4E8DD14DE8091470279
:1040800090914802E7D1E8D2EC01892B59F486EEF1
:1040900093E0D5DD8AEE93E0D2DD82EE93E0CFDDD2
:1040A0001092E103CE01DF91CF910895EF92FF923C
:1040B0000F931F93CF93DF93EC017A018B010F5F76
:1040C0001F4F0E9DA0010F9D500D1E9D500D1124E0
:1040D00070E060E00E94F23090E080E0F0E0E0E02C
:1040E0002FEFE816F90639F4DF91CF911F910F9168
:1040F000FF90EF9008951A8219822883309711F06B
:10410000D283C1830196FE01C00FD11FEACFCF92A7
:10411000DF92EF92FF920F931F93CF93DF9303E20F
:1041200015E00C7F43E050E069E472E08FE492E038
:104130001AD489E4E82E82E0F82E9FE4C92E92E09A
:10414000D92ECAE8D5E0D7014D915D917D01F601E8
:10415000619171916F01198308835D834C835B8347
:104160004A837F836E839B012F5F3F4F249FC00153
:10417000259F900D349F900D1124998788870115F4
:10418000110511F0C80192DF88859985080F191F64
:104190002A96FFE4EF16F2E0FF06A9F6E0EFF3E05F
:1041A00080E391E0DF019C011D9221503040E1F756
:1041B0001092EF031092EE031092A9051092A80539
:1041C0001092AD051092AC051092AB051092AA05A5
:1041D0001092AF051092AE051092B1051092B00585
:1041E0001092B3051092B2051092B7051092B60561
:1041F0001092B5051092B4051092B9051092B80549
:104200001092BB051092BA05109287051092860590
:10421000109289051092880590E080E0DF91CF919F
:104220001F910F91FF90EF90DF90CF90089500972E
:10423000F1F0F894AFE4B2E0EAE8F5E030E020E035
:104240004D915D9148175907A8F04281538141155E
:10425000510581F08AE0829FF001839FF00D1124C7
:10426000E657FA4F80819181009759F4789490E055
:1042700080E008952F5F3F4F3A962330310501F7D4
:10428000F5CFDC0111966D917C9171836083415073
:10429000510953834283FC012193CF0178940895FF
:1042A000009749F1DC018E91853041F4E091880559
:1042B000F09189053097F9F0CD0119948530D8F443
:1042C000282F30E0F8948FEF8C938AE0829FF001E2
:1042D000839FF00D1124E657FA4F80819181129649
:1042E0009C938E931197B183A083828193810196D1
:1042F0009383828378940895CF92DF92EF92FF9216
:104300000F931F93CF93DF939C0183EF93E08C7FF8
:104310004115510509F49BC02115310509F497C0D9
:104320006115710509F493C07A01AB01B9016D5FA4
:104330007F4F6C7F9B012F5F3F4F249F8001259F04
:10434000100D349F100D1124F8942091A805309180
:10435000A905232B59F42091B0053091B105211501
:10436000310569F12017310708F058C02091B205D6
:104370003091B305232B91F42091B0053091B10514
:10438000820F931F2091BA053091BB05211531058D
:1043900009F441C02017310708F056C07894CFEFD8
:1043A000DFEF86EF9FEFF701D183C083DF91CF91DD
:1043B0001F910F91FF90EF90DF90CF900895C3E091
:1043C000D0E0C090EE03D090EF032DE231E02C1945
:1043D0003D092017310710F32AE02C9FF0012D9F93
:1043E000F00D1124E657FA4F91838083558344835F
:1043F000538342837783668311870087009709F090
:1044000055DE0C0D1D1D1093EF030093EE03789401
:1044100090E080E0C8CFC4E0D0E0D3CFC3E0D0E0EC
:104420002AE02C9FF0012D9FF00D1124E657FA4F42
:104430009183808355834483538342837783668348
:10444000009729F333DEE3CFC4E0D0E0E9CF8FEF6C
:104450009FEFACCF9C010397029708F069C0F894D6
:1044600084E09AE0482F50E0241735070CF44DC043
:1044700091E08AE0829FF001839FF00D1124E657BE
:10448000FA4F1182108215821482138212821782CF
:1044900016829923B1F18091A8059091A905892BE5
:1044A000A9F42091B0053091B1052115310571F0C5
:1044B0008091EE039091EF03821B930B9093EF0397
:1044C0008093EE031092B1051092B0058091B20571
:1044D0009091B305892BA9F42091BA053091BB05C1
:1044E0002115310571F08091EE039091EF03821B4D
:1044F000930B9093EF038093EE031092BB05109201
:10450000BA05789490E080E00895949FF001959F1B
:10451000F00D1124E657FA4F40815181452B31F4BB
:1045200040855185452B11F481509CCF90E0A1CF5F
:104530008FEF9FEF08954115510549F1009739F12B
:104540006115710521F1F894209186053091870558
:10455000232BB9F42091880530918905232B89F408
:1045600090938705809386057093890560938805ED
:10457000789425E030E090E080E0FA0131832083F8
:10458000089578942FEF3FEF86EF9FEFF6CF8FEFF0
:104590009FEF0895059769F4F8941092870510929B
:1045A00086051092890510928805789490E080E045
:1045B00008958FEF9FEF08956115710519F4F0E0EC
:1045C000E0E011C08530910581F4E0918605F0911D
:1045D00087053097A1F3CB0101961995009779F3E0
:1045E000FC0185E08193CF0108959C01235031099E
:1045F0002230310520F72AE0289FD001299FB00DF5
:104600001124A657BA4F2D913C911197232BB9F243
:1046100016962D913C9117972617370780F2F8943C
:1046200012962D913C9113972115310529F0ED91AA
:10463000FC911197309711F47894C1CF4181528148
:1046400011965C934E932150310913963C932E930F
:10465000129781937894C7CFE0E2F5E086E6DF0118
:104660001D928A95E9F7E0EFF3E080E391E0DF0146
:104670009C011D9221503040E1F71092EF031092FF
:10468000EE03EAE8F5E082E3DF011D928A95E9F79F
:10469000E6E8F5E084E0DF011D928A95E9F790E015
:1046A00080E00895CF93DF93C0915502D0915602D8
:1046B000CF3FDC0759F45DD49093560280935502A6
:1046C00097FF09C0D0935602C093550284EF9FEF25
:1046D000DF91CF91089590E080E0FACF823091058C
:1046E00028F48093BC0590E080E008958FEF9FEF61
:1046F00008954F925F926F927F92AF92BF92CF9246
:10470000DF92EF92FF920F931F93CF93DF931F924D
:104710001F92CDB7DEB71A821982009709F478C0CC
:104720006115710509F474C020915502309156024B
:1047300007EF1FEF2F3F3F4F09F444C06B015C01AF
:10474000412C512C3201F12CE12C10E000E09E01B3
:104750002F5F3F4FA6014E195F09B5016E0D7F1DFA
:10476000809155029091560263D4892B09F04AC07A
:1047700089819A81009741F4E114F10429F4209190
:10478000BC05222309F441C0E80EF91EEC14FD0417
:10479000C8F480E8481684E858068EE1680671047B
:1047A00018F560E070E0CB01ABD72AE0420E511C57
:1047B000611C711C0A3F4FEF140721F0043F8FEF7B
:1047C0001807A1F4C8010F900F90DF91CF911F91AE
:1047D0000F91FF90EF90DF90CF90BF90AF907F90C0
:1047E0006F905F904F90089501EF1FEF81E090E090
:1047F000013F2FEF120711F090E080E0892B09F4C0
:10480000A6CFE0CF04EF1FEFDDCF0AEF1FEFDACF27
:104810000FEF1FEFD7CF4F925F926F927F92AF92C1
:10482000BF92CF92DF92EF92FF920F931F93CF939D
:10483000DF931F921F92CDB7DEB71A8219820097BD
:1048400009F478C06115710509F474C0209155020E
:104850003091560207EF1FEF2F3F3F4F09F444C03E
:104860006B015C01412C512C3201F12CE12C10E048
:1048700000E09E012F5F3F4FA6014E195F09B50171
:104880006E0D7F1D809155029091560287D3892B22
:1048900009F04AC089819A81009741F4E114F1043A
:1048A00029F42091BC05222309F441C0E80EF91E29
:1048B000EC14FD04C8F480E4481682E458068FE046
:1048C0006806710418F560E070E0CB0119D72AE0A2
:1048D000420E511C611C711C0E3F4FEF140721F05A
:1048E000043F8FEF1807A1F4C8010F900F90DF91DC
:1048F000CF911F910F91FF90EF90DF90CF90BF90DD
:10490000AF907F906F905F904F90089502EF1FEFF0
:1049100081E090E0023F2FEF120711F090E080E07D
:10492000892B09F4A6CFE0CF04EF1FEFDDCF0EEF08
:104930001FEFDACF0FEF1FEFD7CF80915502909185
:1049400056028F3F980749F00CD3892B49F48FEF1B
:104950009FEF909356028093550290E080E0089577
:1049600084EF9FEF0895CF92DF92EF92FF920F9323
:104970001F93CF93DF9321E04115510509F020E00B
:104980004150510921112CC0DC01FB01D12CC12C5B
:1049900021E022C03FEFC31AD30A7D010D911D9182
:1049A000E701EA80FB80E016F106A8F4208131815E
:1049B000E280F380F182E08233832283ED90FC90E9
:1049C00011979D0122503109E901F982E88211967F
:1049D0001C930E9320E03296C416D506D8F2D2CF9F
:1049E000DF91CF911F910F91FF90EF90DF90CF90CB
:1049F0000895FC01680F791F90E080E0E617F70743
:104A000009F408952191820F911DF8CF2091BD05E1
:104A1000211113C047DE009791F41092C305109244
:104A2000C2051092C1051092C0051092BF051092E8
:104A3000BE0521E02093BD05089584EF9FEF089502
:104A4000AF92BF92CF92DF92EF92FF920F931F939C
:104A5000CF93DF93009709F460C04630510508F406
:104A60005CC02091BD05C7EFDFEF222309F449C0E8
:104A70008C01060F171FF801C080D180C114D1042A
:104A800009F44EC096012A5F3F4F4217530708F4BE
:104A900047C07C018091C2059091C30593838283B6
:104AA000B6016C5F7F4F5801A60EB71EC801A1DF8B
:104AB000F5019183808364E070E0C8011ADEEC01A7
:104AC000892BF9F481E090E009DEB601C801049673
:104AD00010DEEC01892B91F462E070E0C50109DE83
:104AE000EC01892B59F4C701DBDB8091C205909161
:104AF000C30501969093C3058093C20590E080E0C2
:104B0000EDDDCE01DF91CF911F910F91FF90EF90DE
:104B1000DF90CF90BF90AF900895CFEFDFEFF1CF50
:104B2000C9EFDFEFEECF6F927F928F929F92AF929D
:104B3000BF92CF92DF92EF92FF920F931F93CF938A
:104B4000DF9300D01F92CDB7DEB7009709F47AC08B
:104B50004115510509F476C02091BD0507EF1FEFFF
:104B6000222309F44DC03A017B015C0164E070E04E
:104B7000CE01019650DE8C01892B09F041C00981DC
:104B80001A810115110509F45AC0480186E0880E02
:104B9000911CB701680D791D8091570290915802C0
:104BA0000BDD6C01009709F450C0A70170E060E0D4
:104BB0000E94F23089819A81AB81BC81EC0CFD1C92
:104BC000F70181939193A193B1937F0181E090E0EC
:104BD00085DDB801C7011FDE892B31F562E070E089
:104BE000C701800F911F17DE8C01892BE9F490E03B
:104BF00080E074DDF501D182C082F3019182808270
:104C0000C8010F900F900F900F90DF91CF911F91DF
:104C10000F91FF90EF90DF90CF90BF90AF909F905B
:104C20008F907F906F90089590E080E057DDF501C0
:104C300011821082F30111821082C60131DB09EF6B
:104C40001FEFDECF0FEF1FEFDBCF06EF1FEFD8CF49
:104C50000097A1F04115510589F02115310571F03A
:104C6000F90136966E177F0748F0DC012D933C93CF
:104C7000DA01ED93FC9390E080E008958FEF9FEFD1
:104C80000895AF92BF92CF92DF92EF92FF920F936F
:104C90001F93CF93DF93009709F45FC0411551052F
:104CA00009F45BC06530710508F457C02091BD055B
:104CB000C7EFDFEF222391F1DC01CD90DC9011975B
:104CC0001296ED91FC9196012A5F3F4FC9EFDFEFFD
:104CD0002617370719F5C091BE05D091BF0520975B
:104CE00049F521E030E03093BF052093BE057A01FD
:104CF0008C01F093C105E093C0055601B4E0AB0E02
:104D0000B11CB50176DE0A0D1B1DF8012081318131
:104D10008217930729F5D701CD92DC92CE01DF915E
:104D2000CF911F910F91FF90EF90DF90CF90BF90A8
:104D3000AF9008952091C0053091C1052F5F3F4F7E
:104D4000CCEFDFEFE217F30790F2CBEFDFEF2E1798
:104D50003F0768F2D0E0C0E0CACFCFEFDFEFDECF91
:104D6000C3EFDFEFDBCF84E090E0089582E090E0D6
:104D700008958CEF9FEF089580E290E008951092DF
:104D8000C3051092C2051092C1051092C005109281
:104D9000BF051092BE0590E080E008959093580200
:104DA0008093570208958091BD05882391F0C5DD59
:104DB000009789F41092C3051092C2051092C105A4
:104DC0001092C0051092BF051092BE051092BD054D
:104DD000089590E080E00895009749F0611571050D
:104DE00031F0FC0111821082FB01118210820895C2
:104DF000F3CF089526E030E040E855E260E070E04F
:104E000090E080E000C01092C5051092C405893082
:104E1000910508F03AC0FC018827EE5EF84D8F4FEF
:104E20000C94C8301B2724272D2736273F274627D9
:104E300049274C27522781E090E09093C505809345
:104E4000C40583ED95E0B0C682E090E09093C5057F
:104E50008093C40580E796E0F6CF84E090E09093DD
:104E6000C5058093C4058DE097E0EDCF88E090E024
:104E70009093C5058093C4058AEA97E0E4CF80E16A
:104E800090E09093C5058093C405089580E290E07A
:104E9000F8CF80E490E0F5CF80E890E09093C505EE
:104EA0008093C4058091C4059091C5059160E9CFB8
:104EB0001F920F920FB60F9211240BB60F922F93E1
:104EC0003F934F935F936F937F938F939F93AF9392
:104ED000BF93EF93FF938FE89DEF9093250180930D
:104EE0002401BAD0FF91EF91BF91AF919F918F9123
:104EF0007F916F915F914F913F912F910F900BBEDA
:104F00000F900FBE0F901F9018958FE89DEF909314
:104F1000250180932401A3E7B0E08C918E7F8C93D0
:104F2000E0E2F1E080818C7F8083E1E2F1E080814A
:104F3000877E808380818460808380818C7F808372
:104F40008C9181608C930895E3E7F0E080819081FB
:104F50009E7F90838170089581E008951092C60528
:104F6000089568EE73E080E090E0CAD390E080E0BE
:104F7000089526E030E040E050E16EE070E090E01F
:104F800080E041DF83ED95E045D5892B21F083ED6D
:104F900095E05AD5F7CF90E080E00895CF92DF9268
:104FA000EF92FF920F931F93CF93DF936B017A01E0
:104FB000E9011982188283ED95E02CD5892B69F1DE
:104FC0008601CC24C39482E0D82E8091C60581113D
:104FD00010C083ED95E038D50297B9F7C092C605A9
:104FE000F801D1928F0188819981019699838883F4
:104FF000ECCF888199818E159F0578F483ED95E03B
:1050000023D58F3F9807A9F3F80181938F018881F9
:105010009981019699838883ECCF90E080E0DF91BD
:10502000CF911F910F91FF90EF90DF90CF90089557
:105030000F931F93CF93DF93EA01890183ED95E0EE
:105040000E946430F801D183C08390E080E0DF915A
:10505000CF911F910F910895CF92DF92EF92FF921F
:10506000CF93DF938091C70591E0980F9093C70588
:10507000882379F021E030E03093C9052093C805FA
:105080008093C705DF91CF91FF90EF90DF90CF9095
:1050900008957894C0915B02D0915C026A8D7B8DFB
:1050A0008C8D9D8D52D120E030E040E85FE456D2F7
:1050B0006B017C016E897F89888D998D46D19B011A
:1050C000AC01C701B6019AD014D16B017C010E94DA
:1050D0009803B701A60190E080E00E94BB02F8941B
:1050E0008091C7058150CCCF0F931F93CF93DF934F
:1050F000109204091092030939D37CDEC0915B023F
:10510000D0915C02198218826FEF7FEFCB010E9471
:105110003E0370E060E090E080E00E94BD010097F7
:1051200009F03AC00E94FF05F89478948A819B8127
:10513000BC01685F7F4F0E94C001892B59F46FEF5B
:105140007FEFCB010E9451020E943803882311F0A7
:1051500081E08AA3F894D9DE0E943B03882311F0F2
:1051600080E008C00E9438038111FACF81E09AA143
:105170009111F6CF8093030978940E94090F8C0156
:1051800078948091030981110CC00E94C2070E948B
:105190001D03F89490E080E0DF91CF911F910F9173
:1051A00008950E941B030E943B038823E1F081E0E5
:1051B000809304099091040981E0911180E080932B
:1051C0000309809104098111BFDE0130110529F422
:1051D0000E94090F892B09F4C1DE0E94090F8C017E
:1051E000BBDE07DECECF0E9438038111E0CF81E025
:1051F0009AA19111DDCF80E0DBCF5058BB27AA27C1
:105200000ED057C148D130F04DD120F031F49F3F3E
:1052100011F41EF43DC10EF4E095E7FB0AC1E92F3D
:1052200059D180F3BA17620773078407950718F0FE
:1052300071F49EF588C10EF4E0950B2EBA2FA02DC7
:105240000B01B90190010C01CA01A0011124FF2733
:10525000591B99F0593F50F4503E68F11A16F0402E
:10526000A22F232F342F4427585FF3CF469537952D
:105270002795A795F0405395C9F77EF41F16BA0BF2
:10528000620B730B840BBAF09150A1F0FF0FBB1FA0
:10529000661F771F881FC2F70EC0BA0F621F731FE9
:1052A000841F48F4879577956795B795F7959E3F46
:1052B00008F0B3CF9395880F08F09927EE0F9795D4
:1052C0008795089529D180F09F3740F491110EF40D
:1052D0003BC160E070E080E89FE3089526F01B1674
:1052E000611D711D811DABC0C5C07FD008F481E078
:1052F0000895F8D088F09F5790F0B92F9927B751AB
:10530000A0F0D1F0660F771F881F991F1AF0BA9589
:10531000C9F712C0B13081F016D1B1E0089513C1C0
:10532000672F782F8827B85F39F0B93FCCF386957F
:1053300077956795B395D9F73EF4909580957095DC
:1053400061957F4F8F4F9F4F0895E89409C097FB59
:105350003EF490958095709561957F4F8F4F9F4F4C
:105360009923A9F0F92F96E9BB279395F695879590
:1053700077956795B795F111F8CFFAF4BB0F11F453
:1053800060FF1BC06F5F7F4F8F4F9F4F16C08823FA
:1053900011F096E911C0772321F09EE8872F762F30
:1053A00005C0662371F096E8862F70E060E02AF071
:1053B0009A95660F771F881FDAF7880F969587955D
:1053C00097F90895A9D080F09F3740F491110EF01D
:1053D000BBC060E070E080E89FEB089526F41B16E8
:1053E000611D711D811D2BC045C0990F0008550F0F
:1053F000AA0BE0E8FEEF16161706E807F907C0F05B
:1054000012161306E407F50798F0621B730B840B62
:10541000950B39F40A2661F0232B242B252B21F43C
:1054200008950A2609F4A140A6958FEF811D811DDC
:10543000089597F99F6780E870E060E008958823F9
:1054400071F4772321F09850872B762F07C06623BD
:1054500011F499270DC09051862B70E060E02AF07E
:105460009A95660F771F881FDAF7880F96958795AC
:1054700097F908959F3F31F0915020F487957795E3
:105480006795B795880F911D9695879597F908951B
:105490009FEF80EC089500240A941616170618064C
:1054A0000906089500240A94121613061406050628
:1054B0000895092E0394000C11F4882352F0BB0FB9
:1054C00040F4BF2B11F460FF04C06F5F7F4F8F4F1C
:1054D0009F4F089557FD9058440F551F59F05F3F57
:1054E00071F04795880F97FB991F61F09F3F79F006
:1054F00087950895121613061406551FF2CF469588
:10550000F1DF08C0161617061806991FF1CF869509
:105510007105610508940895E5DFA0F0BEE7B917AD
:1055200088F4BB279F3860F41616B11D672F782FBB
:105530008827985FF7CF869577956795B11D9395E6
:105540009639C8F30895E894BB2766277727CB01DF
:1055500097F908954ADF08F48FEF08950BD0A9CF8B
:105560009ADF28F09FDF18F0952309F062CF90CFE3
:105570001124EACFAFDFA0F3959FD1F3950F50E050
:10558000551F629FF001729FBB27F00DB11D639FF5
:10559000AA27F00DB11DAA1F649F6627B00DA11D9B
:1055A000661F829F2227B00DA11D621F739FB00D41
:1055B000A11D621F839FA00D611D221F749F3327B1
:1055C000A00D611D231F849F600D211D822F762F4A
:1055D0006A2F11249F5750408AF0E1F088234AF047
:1055E000EE0FFF1FBB1F661F771F881F9150504093
:1055F000A9F79E3F510570F01CCFA6CF5F3FECF39B
:10560000983EDCF3869577956795B795F795E7957E
:105610009F5FC1F7FE2B880F911D9695879597F98F
:1056200008951F920F920FB60F9211242F933F935C
:105630008F939F93AF93BF938091CB059091CC05AF
:10564000A091CD05B091CE053091CA0523E0230F7E
:105650002D3758F50196A11DB11D2093CA058093E1
:10566000CB059093CC05A093CD05B093CE0580914A
:10567000CF059091D005A091D105B091D2050196AA
:10568000A11DB11D8093CF059093D005A093D105A6
:10569000B093D205BF91AF919F918F913F912F9180
:1056A0000F900FBE0F901F90189526E8230F0296BB
:1056B000A11DB11DD2CF3FB7F8948091CF05909135
:1056C000D005A091D105B091D20526B5A89B05C003
:1056D0002F3F19F00196A11DB11D3FBFBA2FA92F71
:1056E000982F8827BC01CD01620F711D811D911D6E
:1056F00042E0660F771F881F991F4A95D1F70895DA
:105700008F929F92AF92BF92CF92DF92EF92FF92D1
:105710006B017C01D0DF4B015C01C114D104E104B9
:10572000F104D9F0FED4C7DF681979098A099B0909
:10573000683E73408105910580F321E0C21AD108CB
:10574000E108F10888EE880E83E0981EA11CB11CC8
:10575000C114D104E104F10431F7FF90EF90DF9020
:10576000CF90BF90AF909F908F900895789484B51C
:10577000826084BD84B5816084BD85B5826085BD4D
:1057800085B5816085BDEEE6F0E080818160808333
:10579000E1E8F0E010828081826080838081816016
:1057A0008083E0E8F0E0808181608083E1EBF0E0DD
:1057B000808184608083E0EBF0E080818160808381
:1057C000E1E9F0E080818260808380818160808374
:1057D000E0E9F0E0808181608083E1EAF0E08081AF
:1057E00082608083808181608083E0EAF0E0808154
:1057F00081608083E1E2F1E080818260808380814A
:1058000081608083E0E2F1E0808181608083EAE76B
:10581000F0E08081846080838081826080838081E9
:10582000816080838081806880831092C1000895A8
:10583000863308F0865320917B00982F9870277F3D
:10584000922B90937B002091590290E4299F900124
:1058500011248770822B80937C0080917A00806471
:1058600080937A0080917A0086FDFCCF8091780049
:105870009091790008958150823108F059C0E82F45
:10588000F0E08827EA5BF34D8F4F82C4662C6A2CC8
:10589000582C5E2C622C982C6D2C732C772C7D2C24
:1058A000812C852C8B2C8F2C982C932C992C9D2C17
:1058B000809180008F778093800008958091800090
:1058C0008F7DF9CF80918000877FF5CF84B58F776A
:1058D00084BD089584B58F7DFBCF8091B0008F7714
:1058E0008093B00008958091B0008F7DF9CF8091B2
:1058F00090008F77809390000895809190008F7D25
:10590000F9CF80919000877FF5CF8091A0008F77AD
:105910008093A00008958091A0008F7DF9CF8091A1
:10592000A000877FF5CF809120018F7780932001A1
:105930000895809120018F7DF9CF80912001877F8C
:10594000F5CFCF93DF9390E0FC01E65DFE4F24910D
:1059500080599E4FFC0184918823C9F090E0880F04
:10596000991FFC01E053FE4FA591B491FC01EA544C
:10597000FE4FC591D49161110DC09FB7F8948C91E1
:10598000209582238C938881282328839FBFDF91D1
:10599000CF910895623051F49FB7F8943C91822FD3
:1059A000809583238C93E8812E2BEFCF8FB7F894CB
:1059B000EC912E2B2C938FBFEACF1F93CF93DF93C5
:1059C000282F30E0F901EC51FF4F8491F901E65D99
:1059D000FE4FD491F901E059FE4FC491CC23A1F0C0
:1059E000162F811148DFEC2FF0E0EE0FFF1FEA5475
:1059F000FE4FA591B4918FB7F894EC91111108C0A6
:105A0000D095DE23DC938FBFDF91CF911F91089556
:105A1000DE2BF8CFFC01918D228D892F90E0805CE8
:105A20009F4F821B91098F7399270895FC01918DD7
:105A3000828D981731F0828DE80FF11D858D90E0F1
:105A400008958FEF9FEF0895FC01918D828D981737
:105A500061F0A28DAE0FBF2FB11D5D968C91928D1E
:105A60009F5F9F73928F90E008958FEF9FEF08954F
:105A7000FC01538D448D252F30E0842F90E0821B54
:105A8000930B541710F0CF96089501970895FC01D9
:105A9000A48DA80FB92FB11DA35ABF4F2C91848D8F
:105AA00090E001968F739927848FA689B7892C93EC
:105AB000A089B1898C91837080648C93938D848D3F
:105AC000981306C00288F389E02D80818F7D808342
:105AD0000895CF93DF93EC01888D8823B1F0AA89D4
