:1000000007C1000036C1000034C1000032C1000049
:1000100030C100002EC100002CC100002AC1000028
:1000200028C1000026C1000024C1000022C1000038
:1000300020C100001EC100001CC100001AC1000048
:1000400018C1000016C1000014C1000012C1000058
:1000500010C100000EC100000CC100000C9430481B
:1000600008C100000C94274C0C945D4C02C10000A8
:1000700000C10000FEC00000FCC00000FAC000008B
:10008000F8C00000F6C00000F4C00000F2C000009C
:100090000C94B34C0C94E94CECC00000EAC0000096
:1000A000E8C00000E6C00000E4C00000E2C00000BC
:1000B000E0C00000DEC00000DCC00000DAC00000CC
:1000C000D8C00000D6C000000C949D430C943F4D56
:1000D0000C94754DCEC000000C94CB4D0C94014E89
:1000E000C8C0000005A84CCDB2D44EB93836A9021C
:1000F0000C50B9918688083CA6AAAA2ABE00000026
:10010000803F00000A0B02090C0D0E0807030401D2
:1001100000000000000000000000000000000000DF
:1001200000000000000000000000000000001211AC
:1001300010000000000000000000000000000000AF
:10014000000000000000000001021020200808103C
:100150002040102040800201020108040201010237
:100160000408102040808040201008040201800410
:10017000020180402010080402010804020101026B
:10018000040810204080010204081020408005056A
:100190000505070508080808020202020A0A0808FD
:1001A000040404040101010101010101030303032B
:1001B00003030303040707070C0C0C0C0C0C0C0CBA
:1001C0000202020206060606060606060B0B0B0BCB
:1001D0000B0B0B0B00002200250028002B002E002B
:1001E0003100340002010000050108010B0100008C
:1001F0002100240027002A002D00300033000101D7
:100200000000040107010A01864C124D9E4D2A4E42
:1002100011241FBECFEFD1E2DEBFCDBF00E00CBF87
:1002200015E0A0E0B2E0EAEFFDE900E00BBF02C09C
:1002300007900D92A03EB107D9F725E1A0EEB5E0F9
:1002400001C01D92A03FB207E1F711E0C8E0D1E084
:1002500000E006C021970109802FFE010E94CA4ECE
:10026000C430D10780E00807A9F70E948A440C94A3
:10027000FB4EC6CECF93DF93882349F0EB0181502C
:100280000E94374999838883DF91CF910895FB01BC
:1002900011821082F9CF0F931F938B019C0183E091
:1002A00036952795179507958A95D1F707511A4FD7
:1002B000462F477021E030E0F90102C0EE0FFF1F2A
:1002C0004A95E2F7AF01F80120812423CB01019682
:1002D000211102C090E080E01F910F9108950F93CB
:1002E0001F938B019C0183E0369527951795079501
:1002F0008A95D1F7677081E090E001C0880F6A9518
:10030000EAF7F801E751FA4F2081452B31F4809547
:10031000822380831F910F910895822BFACFCF9271
:10032000DF92EF92FF92CF93DF936B017C0160E04D
:1003300086E3C816D104E104F10490F486E38C0D41
:100340000E94944AE6012196AE01C701B601C7DFBB
:10035000CE01DF91CF91FF90EF90DF90CF90089585
:100360008C2DEECF882341F08150682F70E090E013
:1003700080E050E040E0B3CF0895CF93282F88234A
:10038000E1F0CB01BA01CFEFC20FEC2FF0E0EE505D
:10039000FA4F2081213059F490580E948C459B01DE
:1003A000AC016C2F70E090E080E0CF91A2C00E9481
:1003B00087458C2FCF910C945A49CF9108950F9374
:1003C0001F938B019C0183E0369527951795079520
:1003D0008A95D1F700521A4F462F477021E030E03E
:1003E000F90102C0EE0FFF1F4A95E2F7AF01F801D5
:1003F00020812423CB010196211102C090E080E0EE
:100400001F910F9108950F931F938B019C0183E01F
:1004100036952795179507958A95D1F7677081E0EE
:1004200090E001C0880F6A95EAF7F801E052FA4FB0
:100430002081452B31F48095822380831F910F9179
:100440000895822BFACF4F925F926F927F928F9294
:100450009F92AF92BF92CF92DF92EF92FF920F9353
:100460001F93CF93DF934B015C0129013A01670190
:1004700061E0882D0E94944AE4012196AE01C501F5
:10048000B401C1DF20E030E0A901C801B6010E943B
:10049000444718168CF4F401EE50FA4F81E0808343
:1004A000C801B6010E948C456B01C301B2010E94D4
:1004B0008C45A601C40121D0CE01DF91CF911F91BF
:1004C0000F91FF90EF90DF90CF90BF90AF909F90F3
:1004D0008F907F906F905F904F900895882341F0A8
:1004E0008150682F70E090E080E050E040E08BCFDA
:1004F0000895862FB9010C945A499C01FC01EE5FC6
:10050000FE4FE491E150E231E0F4F0E08827E45757
:10051000FD4F8F4F0C94CA4E9E02A502A802BF0247
:10052000D402A102E902F502F902100325033A03FD
:1005300051036603A1027B039203A70384B580687D
:1005400084BD60E0822F0C94D04A84B58062F8CFDD
:10055000809180008C7F82608093800080918100F8
:10056000807E8061682B6093810050938700409368
:10057000860080918000806880938000E2CF809127
:1005800080008C7F82608093800080918100807EDB
:100590008061682B609381005093870040938600B0
:1005A000809180008062E8CF809180008C7F8260A3
:1005B0008093800080918100807E8061682B6093B1
:1005C000810050938700409386008091800088606E
:1005D000D3CF8091B00080688093B0008091B1004B
:1005E000887F682B6093B100ACCF8091B0008062AF
:1005F000F3CF809190008C7F8260809390008091F7
:100600009100807E8061682B6093910050939700E9
:10061000409396008091900080688093900091CFE5
:10062000809190008C7F82608093900080919100F7
:10063000807E8061682B6093910050939700409377
:100640009600809190008062E8CF809190008C7F2E
:1006500082608093900080919100807E8061682B01
:100660006093910050939700409396008091900082
:100670008860D3CF8091A0008C7F82608093A0009F
:100680008091A100807E8061682B6093A1005093CF
:10069000A7004093A6008091A00080688093A000EE
:1006A00050CF8091A0008C7F82608093A0008091C9
:1006B000A100807E8061682B6093A1005093A70009
:1006C0004093A6008091A0008062E8CF8091A000B6
:1006D0008C7F82608093A0008091A100807E8061E9
:1006E000682B6093A1005093A7004093A6008091CF
:1006F000A0008860D3CF809120018C7F826080939E
:10070000200180912101807E8061682B609321010E
:1007100050932701409326018091200180688093A7
:1007200020010FCF809120018C7F82608093200177
:1007300080912101807E8061682B6093210150931C
:10074000270140932601809120018062E8CF8091AB
:1007500020018C7F82608093200180912101807E26
:100760008061682B609321015093270140932601FB
:10077000809120018860D3CF90E080E008950F93AE
:100780001F93009709F48AC06115710509F486C0AA
:100790000091DA041091DB042091DC043091DD0437
:1007A0000E3F1F4F2F4F3F4F09F06AC0DB014D91A5
:1007B0005D916D917C914093DA045093DB046093DA
:1007C000DC047093DD044091DA045091DB04609105
:1007D000DC047091DD04DC011296ED91FC918081C6
:1007E0009181A281B38180939D0790939E07A093EE
:1007F0009F07B093A00784819581A681B7818093DC
:10080000990790939A07A0939B07B0939C078085C4
:100810009185A285B3858093950790939607A093C1
:100820009707B093980784859585A685B7858093AB
:10083000910790939207A0939307B0939407109217
:100840008D0710928E0710928F07109290070E94CA
:100850003E2783E697E2909339068093380690937B
:100860003B0680933A060E941D26009731F421E052
:1008700030E03093A2072093A1071F910F910895B4
:100880000091DA041091DB042091DC043091DD0446
:10089000FB01008311832283338395CF8FEF9FEF7A
:1008A000ECCF8F929F92AF92BF92CF92DF92EF9256
:1008B000FF921F93CF93DF934B015C011091A4072C
:1008C00082E090E09093A2078093A10781149104A5
:1008D000A104B10441F48091A407811104C0809166
:1008E000A307C1E08111C0E0C12CD12C7601809119
:1008F000A407811106C08091A307811102C0CC23F7
:10090000D9F083E090E09093A2078093A107CC23D5
:1009100081F1CCE9DFEF111102C00E94C82ACE019B
:10092000DF91CF911F91FF90EF90DF90CF90BF901C
:10093000AF909F908F9008956AE070E080E090E023
:100940000E949F4880E1C80E87E2D81EE11CF11C7E
:100950008FEF88169806A806B80631F0C1E08C140F
:100960009D04AE04BF0408F0C0E080E00E94612650
:10097000BECFD0E0C0E0CFCFCF92DF92EF92FF9218
:100980000F931F93CF93DF938F3F910511F008F0E2
:1009900051C02091A1073091A2072330310539F0D1
:1009A0002091A1073091A2072130310531F424E0D4
:1009B00030E03093A2072093A1076A017B01EC018C
:1009C00082309105A8F011E0AE01C701B6010E9486
:1009D0001C26AB01BC01CE011123F9F0DF91CF91B0
:1009E0001F910F91FF90EF90DF90CF900C94ED2C22
:1009F0008C01000F111F085C194FD8018D919C913B
:100A0000892B09F30E94F72C0297E9F6D801ED91A2
:100A1000FC91CE011995182FD7CF0E940F2D90E091
:100A200080E0DF91CF911F910F91FF90EF90DF90C9
:100A3000CF9008958FEF9FEFF4CF80E00C94612664
:100A4000CF93DF9386E090E09093A2078093A10775
:100A50000E94BA26EC01E8E3F6E084E0DF011D9293
:100A60008A95E9F70E94602A1092A2071092A107C6
:100A7000CE01DF91CF9108958091A30708958091D1
:100A80008C0708956093DA047093DB048093DC0490
:100A90009093DD0490E080E0089560E070E080E8ED
:100AA0009FE7089560E070E080E89FE7089560E0C8
:100AB00070E080E89FEF089560E070E080E89FEFCD
:100AC000089560E070E080EC9FEF089560E070E0D2
:100AD00080EC9FEF0895F5DF6093E5117093E611C8
:100AE0008093E7119093E811F1DF6093D91170932F
:100AF000DA118093DB119093DC11CFDF6093E11169
:100B00007093E2118093E3119093E411CBDF609333
:100B1000DD117093DE118093DF119093E011C7DF38
:100B20006093E9117093EA118093EB119093EC11AB
:100B3000C3DF6093ED117093EE118093EF119093EA
:100B4000F0110895CF92DF92EF92FF92CF936B0155
:100B50007C01AC019B016091E1117091E2118091E7
:100B6000E3119091E4110E948045C1E0882371F067
:100B7000A70196016091E9117091EA118091EB1142
:100B80009091EC110E9480458111C0E08C2FCF9193
:100B9000FF90EF90DF90CF9008950F931F938B01FC
:100BA0009C010027112720783F7701151105204867
:100BB0003F4749F4AB01BC016F77772781E0452BB4
:100BC000462B472B09F480E01F910F910895E5CF44
:100BD000CF92DF92EF92FF920F931F9369017A01F8
:100BE000DB01AA0FBB1FA00FB11FED91FC91119764
:100BF00012962D913C91032E000C440B550BCF0106
:100C00000F2E000CAA0BBB0B281B390B4A0B5B0BDE
:100C1000C701B6010E94854E8E0F9F1F1F910F9135
:100C2000FF90EF90DF90CF900895CF92DF92EF92F8
:100C3000FF92CF93DF93EA01CC24CA94DC2C760197
:100C4000F901C082D182E282F38220E030E0A90182
:100C50000E94444787FD13C080E090E0A0E8BFE316
:100C600088839983AA83BB831C821D821E821F8274
:100C7000DF91CF91FF90EF90DF90CF900895188291
:100C800019821A821B8280E090E0A0E8BFE38C8387
:100C90009D83AE83BF83ECCF2F923F924F925F92A2
:100CA0006F927F928F929F92AF92BF92CF92DF927C
:100CB000EF92FF920F931F93CF93DF93CDB7DEB7E1
:100CC00068970FB6F894DEBF0FBECDBFE0915E0708
:100CD000F0915F07608171818281938160939D12A1
:100CE00070939E1280939F129093A01220914C02B9
:100CF00030914D0240914E0250914F020E94484760
:100D000020E030E040E857E40E9448470E94F54563
:100D10006093A5137093A6138093A7139093A813C1
:100D200056DF882311F40C945D101092A5131092D5
:100D3000A6131092A7131092A813C090A513D090D9
:100D4000A613E090A713F090A81320E030E0A901CB
:100D5000C701B6010E94804587FD02C00C94821035
:100D6000C701B60190580E948C45EE24FF24E61A74
:100D7000F70AA0904C04B0904D04C0905004D0905D
:100D8000510480914E0490914F048E159F0510F4EC
:100D90000C948910C501AE14BF0410F00C9492108D
:100DA000C7018A199B099A83898340915204509103
:100DB00053042091540430915504241B350B898130
:100DC0009A81841B950BB9010E94944E6032710583
:100DD00010F00C9496102B01712C612CB0E0A0E067
:100DE0007727662750E040E00E94A84E08EC13E009
:100DF000C301B201EDDEAE14BF0430F4EC14FD0407
:100E000018F4919581959109BC01990F880B990B64
:100E10000E94BA4520E030E040E858E30E9448478D
:100E20002091500230915102409152025091530250
:100E30000E944847209148023091490240914A025D
:100E400050914B020E941C456093B9137093BA13E2
:100E50008093BB139093BC13209158023091590298
:100E600040915A0250915B0260915C0270915D0268
:100E700080915E0290915F020E94484760937512D4
:100E800070937612809377129093781220919D122E
:100E900030919E1240919F125091A01260916C026D
:100EA00070916D0280916E0290916F020E9448478E
:100EB00020E030E040E857E40E9448470E94F545B2
:100EC0006093A5137093A6138093A7139093A81310
:100ED0007EDE882311F40C94A1101092A5131092B9
:100EE000A6131092A7131092A813C090A513D09028
:100EF000A613E090A713F090A81320E030E0A9011A
:100F0000C701B6010E94804587FD02C00C94C6103F
:100F1000C701B60190580E948C45CC24DD24C61A26
:100F2000D70ADA82C982A0909404B0909504AC14D8
:100F3000BD0428F4C6018A199B099A838983898193
:100F40009A8120919604309197042817390728F444
:100F50009501281B390B3A832983409198045091BD
:100F6000990420919A0430919B04241B350B8981AC
:100F70009A81841B950BB9010E94944E60327105D1
:100F800010F00C94CD102B01712C612CB0E0A0E07E
:100F90007727662750E040E00E94A84E0AE014E060
:100FA000C301B20115DE8C01AC14BD0418F4119517
:100FB00001951109209178023091790240917A02CD
:100FC00050917B0260917C0270917D0280917E0243
:100FD00090917F020E9448474B015C0180927912F8
:100FE00090927A12A0927B12B0927C122091800291
:100FF000309181024091820250918302609184027B
:101000007091850280918602909187020E944847E4
:101010002B013C0140927D1250927E1260927F1211
:1010200070928012209188023091890240918A0248
:1010300050918B0260918C0270918D0280918E0292
:1010400090918F020E9448476B017C01C0928112EF
:10105000D0928212E0928312F09284128FEF9FEF6F
:10106000DC0180937D1590937E15A0937F15B0933E
:1010700080152091B9133091BA134091BB13509150
:10108000BC13609154027091550280915602909168
:1010900057020E94484760935D1270935E128093DE
:1010A0005F12909360128091751290917612A091C8
:1010B0007712B09178128093611290936212A0938C
:1010C0006312B0936412B801110F880B990B0E9440
:1010D000BA4520E030E040E858E30E9448472091BC
:1010E00070023091710240917202509173020E941D
:1010F0004847209168023091690240916A025091FC
:101100006B020E941C45209164023091650240915F
:101110006602509167020E941C4520916002309146
:10112000610240916202509163020E941C4520912D
:1011300074023091750240917602509177020E94BC
:10114000484760936512709366128093671290937C
:101150006812C701B6010E9484456B877C878D8722
:101160009E87C701B6010E94AB476B017C01C3019A
:10117000B2010E9484456F83788789879A8760933C
:10118000A9137093AA138093AB139093AC13C3016C
:10119000B2010E94AB476F87788B898B9A8B6093E3
:1011A000AD137093AE138093AF139093B013C5013A
:1011B000B4010E9484452B013C014092B11350922E
:1011C000B2136092B3137092B413C501B4010E94BC
:1011D000AB476B837C838D839E836093B513709341
:1011E000B6138093B7139093B8132F813885498530
:1011F0005A856B857C858D859E850E9448476093C6
:10120000391270933A1280933B1290933C122F85BF
:10121000388949895A896B857C858D859E850E9490
:1012200048474B015C01AC019B016B817C818D8146
:101230009E810E9448476B8B7C8B8D8B9E8BA3017C
:101240009201C701B6010E9448479B01AC016B891E
:101250007C898D899E890E941B45609345127093FD
:1012600046128093471290934812A5019401C3013E
:10127000B2010E9448474B015C012B813C814D81AA
:101280005E81C701B6010E9448479B01AC01C501C0
:10129000B4010E941C4560935112709352128093C6
:1012A0005312909354122F81388549855A85C7016E
:1012B000B6010E94484760933D1270933E1280939E
:1012C0003F12909340122F85388949895A89C70166
:1012D000B6010E9448476B017C01C092BD13D092B9
:1012E000BE13E092BF13F092C013AC019B016B815F
:1012F0007C818D819E810E9448474B015C01A30146
:1013000092016B857C858D859E850E9448479B0157
:10131000AC01C501B4010E941C4560934912709351
:101320004A1280934B1290934C12A7019601C3016D
:10133000B2010E9448476B017C012B813C814D81A9
:101340005E816B857C858D859E850E9448479B01CB
:10135000AC01C701B6010E941B4560935512709302
:10136000561280935712909358128F859889A989A5
:10137000BA89B0588093411290934212A0934312BD
:10138000B09344122B813C814D815E816F817885C1
:1013900089859A850E94484760934D1270934E123A
:1013A00080934F1290935012A30192016F81788520
:1013B00089859A850E9448476093591270935A1202
:1013C00080935B1290935C128FE295E09C838B83F9
:1013D000A7E1B5E0BC8BAB8BEDE8F3E1F88BEF87D1
:1013E00081EF282E81E1382EAB81BC81CD90DD903C
:1013F000ED90FD90BC83AB83C701B6010E9484458C
:1014000024EA30E74DE35EE30E944847F101608340
:10141000718382839383C701B6010E94AB4724EA9C
:1014200030E74DE35EE30E944847D10114966D9387
:101430007D938D939C931797F101108611861286E8
:101440001386AB89BC89CD90DD90ED90FD90BC8B6F
:10145000AB8BC701B6010E9484452AE939E949E10D
:101460005EE30E9448476F83788789879A87C70120
:10147000B6010E94AB472AE939E949E15EE30E94DF
:1014800048476B877C878D879E8709E312E1388EFA
:101490002F8A78010C5F1F4FEF89F88D8190919012
:1014A000A190B190F88FEF8BD7011C962D913D91B3
:1014B0004D915C911F976B857C858D859E850E94E3
:1014C00048472B013C01F701208131814281538142
:1014D0006F81788589859A850E9448479B01AC0178
:1014E000C301B2010E941C456B017C0120E030E089
:1014F000A901D80154966D917D918D919C9157973A
:101500000E9448479B01AC01C701B6010E941C45DF
:10151000F80120A131A142A153A10E941C45A501BF
:1015200094010E941B45D8019C966D937D938D93E9
:101530009C939F97E5E4F2E1E017F10709F0A9CF4A
:101540006091691270916A1280916B1290916C1285
:1015500080906D1290906E12A0906F12B0907012E9
:10156000C0907112D0907212E0907312F0907412C9
:101570009B01AC010E9448472B013C01A50194014D
:10158000C501B4010E9448479B01AC01C301B201EF
:101590000E941C454B015C01A7019601C701B601E1
:1015A0000E9448479B01AC01C501B4010E941C4543
:1015B0000E94B54721EE3AE744E95EE30E941B45ED
:1015C000AF85B8896D937D938D939D93B88BAF87CD
:1015D000BCE02B0E311CE7E4F5E02B813C81E217E7
:1015E000F30709F001CF8F819885A985BA8580938B
:1015F000A5139093A613A093A713B093A8138B855C
:101600009C85AD85BE858093B9139093BA13A09342
:10161000BB13B093BC1320918D1330918E13409166
:101620008F1350919013609190027091910280916C
:101630009202909193020E944847609385127093A2
:101640008612809387129093881266E370E080E0A0
:1016500090E00E944B019093801480937F1443E0AC
:1016600050E0BE016F5F7F4F0E943A0169817A812D
:1016700090E080E00E94B8456B017C01C092C113EC
:10168000D092C213E092C313F092C4132091E114DC
:101690003091E2144091E3145091E4146091980267
:1016A0007091990280919A0290919B020E94484702
:1016B0004B015C0120919C0230919D0240919E0261
:1016C00050919F02C701B6010E9448479B01AC019F
:1016D000C501B4010E941C456B017C012091E514F9
:1016E0003091E6144091E7145091E8146091A402FF
:1016F0007091A5028091A6029091A7020E9448478E
:101700009B01AC01C701B6010E941C456093891280
:1017100070938A1280938B1290938C122091A8025E
:101720003091A9024091AA025091AB020E94484711
:1017300060938D1270938E1280938F1290939012FB
:1017400060939112709392128093931290939412DB
:101750000091851210918612209187123091881283
:10176000009395121093961220939712309398122B
:101770006093991270939A1280939B1290939C128B
:10178000209191133091921340919313509194139F
:101790006091AC027091AD028091AE029091AF0267
:1017A0000E94484760939D1270939E1280939F12EF
:1017B0009093A0126BE370E080E090E00E944B01F8
:1017C000909378148093771443E050E0BE016F5FEC
:1017D0007F4F0E943A0169817A8190E080E00E9407
:1017E000B8456B017C01C092C513D092C613E0923C
:1017F000C713F092C8132091E9143091EA14409174
:10180000EB145091EC146091B4027091B502809188
:10181000B6029091B7020E9448474B015C012091AB
:10182000B8023091B9024091BA025091BB02C7018F
:10183000B6010E9448479B01AC01C501B4010E945A
:101840001C456B017C012091ED143091EE14409108
:10185000EF145091F0146091C0027091C102809118
:10186000C2029091C3020E9448479B01AC01C7018C
:10187000B6010E941C456093A1127093A21280933E
:10188000A3129093A4122091C4023091C5024091FA
:10189000C6025091C7020E9448476093A5127093F8
:1018A000A6128093A7129093A8126093A912709326
:1018B000AA128093AB129093AC1200919D121091DA
:1018C0009E1220919F123091A0120093AD1210939E
:1018D000AE122093AF123093B0126093B112709396
:1018E000B2128093B3129093B41220919513309159
:1018F000961340919713509198136091C80270917C
:10190000C9028091CA029091CB020E94484760931D
:10191000B5127093B6128093B7129093B8126AE31F
:1019200070E080E090E00E944B01909370148093EF
:101930006F1443E050E0BE016F5F7F4F0E943A0199
:1019400069817A8190E080E00E94B8456B017C015A
:10195000C092C913D092CA13E092CB13F092CC1369
:101960002091F1143091F2144091F3145091F41439
:101970006091D0027091D1028091D2029091D302F5
:101980000E9448474B015C012091D4023091D5025E
:101990004091D6025091D702C701B6010E94484734
:1019A0009B01AC01C501B4010E941C456B017C0187
:1019B0002091F5143091F6144091F7145091F814D9
:1019C0006091DC027091DD028091DE029091DF0275
:1019D0000E9448479B01AC01C701B6010E941C450B
:1019E0006093B9127093BA128093BB129093BC1299
:1019F0002091E0023091E1024091E2025091E30235
:101A00000E9448476093BD127093BE128093BF122C
:101A10009093C0126093C1127093C2128093C3124C
:101A20009093C4120091B5121091B6122091B71282
:101A30003091B8120093C5121093C6122093C712AA
:101A40003093C8126093C9127093CA128093CB125C
:101A50009093CC122091991330919A1340919B133B
:101A600050919C136091E4027091E5028091E6022E
:101A70009091E7020E9448476093CD127093CE1276
:101A80008093CF129093D01269E370E080E090E0F1
:101A90000E944B01909368148093671443E050E0D8
:101AA000BE016F5F7F4F0E943A0169817A8190E0A9
:101AB00080E00E94B8456B017C01C092CD13D092AA
:101AC000CE13E092CF13F092D0132091F9143091FD
:101AD000FA144091FB145091FC146091EC02709147
:101AE000ED028091EE029091EF020E9448474B0177
:101AF0005C012091F0023091F1024091F20250918C
:101B0000F302C701B6010E9448479B01AC01C50121
:101B1000B4010E941C456B017C012091FD143091A1
:101B2000FE144091FF14509100156091F8027091DD
:101B3000F9028091FA029091FB020E9448479B01B2
:101B4000AC01C701B6010E941C456093D11270938D
:101B5000D2128093D3129093D4122091FC02309130
:101B6000FD024091FE025091FF020E94484760939F
:101B7000D5127093D6128093D7129093D812609397
:101B8000D9127093DA128093DB129093DC120091D9
:101B9000CD121091CE122091CF123091D01200931D
:101BA000DD121093DE122093DF123093E012609367
:101BB000E1127093E2128093E3129093E412209169
:101BC0009D1330919E1340919F135091A0136091EB
:101BD00000037091010380910203909103030E941E
:101BE00048476093E5127093E6128093E712909352
:101BF000E81268E370E080E090E00E944B0190936F
:101C0000601480935F1443E050E0BE016F5F7F4F2C
:101C10000E943A0169817A8190E080E00E94B84593
:101C20006B017C01C092D113D092D213E092D313F6
:101C3000F092D413209101153091021540910315B3
:101C400050910415609108037091090380910A0373
:101C500090910B030E9448474B015C0120910C03BB
:101C600030910D0340910E0350910F03C701B6014F
:101C70000E9448479B01AC01C501B4010E941C456C
:101C80006B017C01209105153091061540910715D7
:101C900050910815609114037091150380911603FB
:101CA000909117030E9448479B01AC01C701B60100
:101CB0000E941C456093E9127093EA128093EB1224
:101CC0009093EC12209118033091190340911A035C
:101CD00050911B030E9448476093ED127093EE12DF
:101CE0008093EF129093F0126093F1127093F212BE
:101CF0008093F3129093F4120091E5121091E61282
:101D00002091E7123091E8120093F5121093F61229
:101D10002093F7123093F8126093F9127093FA122D
:101D20008093FB129093FC122091A1133091A21387
:101D30004091A3135091A41360911C0370911D0353
:101D400080911E0390911F030E9448476093FD12EB
:101D50007093FE128093FF129093001367E370E07C
:101D600080E090E00E944B019093581480935714A8
:101D700043E050E0BE016F5F7F4F0E943A016981EE
:101D80007A8190E080E00E94B8456B017C01C092AE
:101D9000D513D092D613E092D713F092D813209196
:101DA000091530910A1540910B1550910C15609151
:101DB00024037091250380912603909127030E94AC
:101DC00048474B015C012091280330912903409141
:101DD0002A0350912B03C701B6010E9448479B017B
:101DE000AC01C501B4010E941C456B017C0120912E
:101DF0000D1530910E1540910F15509110156091F1
:101E000030037091310380913203909133030E942B
:101E100048479B01AC01C701B6010E941C45609375
:101E20000113709302138093031390930413209172
:101E300034033091350340913603509137030E94AB
:101E400048479B01AC012093051330930613409340
:101E50000713509308132093091330930A134093E8
:101E60000B1350930C136091FD127091FE12809130
:101E7000FF129091001360930D1370930E138093D3
:101E80000F13909310132093111330931213409358
:101E90001313509314130E941B456B017C01C092D5
:101EA0001513D0921613E0921713F0921813209185
:101EB0008D1230918E1240918F125091901260913C
:101EC00085127091861280918712909188120E94DB
:101ED0001B456093191370931A1380931B139093EF
:101EE0001C132091A5123091A6124091A712509177
:101EF000A81260919D1270919E1280919F129091F4
:101F0000A0120E941B4560931D1370931E138093B3
:101F10001F13909320132091BD123091BE12409157
:101F2000BF125091C0126091B5127091B61280919B
:101F3000B7129091B8120E941B45609321137093C1
:101F4000221380932313909324132091D512309160
:101F5000D6124091D7125091D8126091CD12709143
:101F6000CE128091CF129091D0120E941B456093A7
:101F70002513709326138093271390932813209191
:101F8000ED123091EE124091EF125091F0126091EB
:101F9000E5127091E6128091E7129091E8120E948A
:101FA0001B456093291370932A1380932B139093EE
:101FB0002C13C0922D13D0922E13E0922F13F09277
:101FC00030132EE935E149EF53E1C701B6010E9414
:101FD0001506C0902D13D0902E13E0902F13F09083
:101FE0003013E894F7F8C0923113D0923213E09294
:101FF0003313F0923413209100023091010240918A
:10200000020250910302C701B6010E944847209185
:102010003C0330913D0340913E0350913F030E94A9
:1020200048474B015C018092D9139092DA13A09239
:10203000DB13B092DC1320913002309131024091D9
:10204000320250913302C701B6010E9448472B016A
:102050003C012091111530911215409113155091AA
:102060001415C501B4010E941B459B01AC01C301BD
:10207000B2010E941C454B015C0180923513909285
:102080003613A0923713B09238134090400350900B
:1020900041036090420370904303A30192010E94A8
:1020A000444718160CF084C04092351350923613F2
:1020B00060923713709238138BC06091A5137091A2
:1020C000A6138091A7139091A8130E94A2058111D5
:1020D0000C9495066091A5137091A6138091A71397
:1020E0009091A81320E030E040E857E40E940F46AA
:1020F0006093A5137093A6138093A7139093A813CE
:102100000C949D06C701B6010E948C457B010C947E
:10211000B906C7018C199D09EC14FD0410F00C944C
:10212000D306C6018E199F090C94D30620E030E037
:1021300041E050E06FE1462E512C612C712C0C9443
:10214000F6066091A5137091A6138091A713909144
:10215000A8130E94A20581110C946D076091A5132C
:102160007091A6138091A7139091A81320E030E0FE
:1021700040E857E40E940F466093A5137093A6139E
:102180008093A7139093A8130C947507C701B60109
:102190000E948C456B010C94910720E030E041E0F7
:1021A00050E09FE1492E512C612C712C0C94CE07EC
:1021B000409044035090450360904603709047035D
:1021C000A3019201C501B4010E94804587FD6CCF37
:1021D000209148033091490340914A0350914B03A9
:1021E000C701B6010E94444718160CF0A6C18091A1
:1021F000380390913903A0913A03B0913B03809347
:10220000A5139093A613A093A713B093A81320919E
:10221000A5133091A6134091A7135091A813609174
:102220004C0370914D0380914E0390914F030E9497
:1022300048476093DD137093DE138093DF13909310
:10224000E0132091F9133091FA134091FB13509150
:10225000FC13CC24CA94DC2C7601C0929915D09240
:102260009A15E0929B15F0929C150E944847609346
:10227000F5137093F6138093F7139093F81366E0B9
:1022800070E080E090E00E94DF018C019093901458
:1022900080938F14C090F513D090F613E090F7134D
:1022A000F090F81320E030E04FE753E4C701B601A7
:1022B0000E94804518160CF449C1C092A513D09213
:1022C000A613E092A713F092A81320E030E0A90132
:1022D0006091A5137091A6138091A7139091A813F4
:1022E0000E94444787FF08C01092A5131092A613BE
:1022F0001092A7131092A8134091A5135091A61302
:102300006091A7137091A813C8010E94BD0160914C
:10231000DD137091DE138091DF139091E013209113
:10232000FD133091FE134091FF1350910014CC2403
:10233000CA94DC2C7601C0929415D0929515E09247
:102340009615F09297150E9448479B01AC01209387
:10235000F1133093F2134093F3135093F4136091FD
:10236000F5137091F6138091F7139091F8130E9472
:102370001B459F776093391370933A1380933B13F7
:1023800090933C1367E070E080E090E00E94DF01F2
:102390008C019093881480938714C090F113D0908F
:1023A000F213E090F313F090F41320E030E04FE7E5
:1023B00053E4C701B6010E94804518160CF4D3C03F
:1023C000C092A513D092A613E092A713F092A8137F
:1023D00020E030E0A9016091A5137091A6138091CF
:1023E000A7139091A8130E94444787FF08C010923A
:1023F000A5131092A6131092A7131092A813409140
:10240000A5135091A6136091A7137091A813C8014A
:102410000E94BD012091ED123091EE124091EF1219
:102420005091F0126091E5127091E6128091E712DE
:102430009091E8120E941B4560933D1370933E13E8
:1024400080933F13909340132DEA35E149E054E126
:102450000E941506C0903D13D0903E13E0903F13AC
:10246000F0904013E894F7F8C0924113D0924213D1
:10247000E0924313F092441320910402309105023C
:102480004091060250910702C701B6010E944847D9
:1024900020915403309155034091560350915703B6
:1024A0000E9448474B015C018092E1139092E21335
:1024B000A092E313B092E4132091340230913502DC
:1024C0004091360250913702C701B6010E94484739
:1024D0002B013C01209115153091161540911715CF
:1024E00050911815C501B4010E941B459B01AC0118
:1024F000C301B2010E941C454B015C01809245134F
:1025000090924613A0924713B092481340905803FC
:102510005090590360905A0370905B03A30192019D
:102520000E944447181664F5409245135092461392
:10253000609247137092481333C080913513909185
:102540003613A0913713B091381359CE80E090E044
:10255000AFE7B3E48093A5139093A613A093A713BA
:10256000B093A813B2CE80E090E0AFE7B3E48093DD
:10257000A5139093A613A093A713B093A81328CFE5
:1025800040905C0350905D0360905E0370905F0329
:10259000A3019201C501B4010E94804587FDC4CF0B
:1025A0002091600330916103409162035091630375
:1025B000C701B6010E94444718160CF0A6C18091CD
:1025C000500390915103A0915203B0915303809313
:1025D000A5139093A613A093A713B093A8132091CB
:1025E000A5133091A6134091A7135091A8136091A1
:1025F00064037091650380916603909167030E9464
:1026000048476093E5137093E6138093E713909324
:10261000E8132091091430910A1440910B14509141
:102620000C14CC24CA94DC2C7601C092A815D0924C
:10263000A915E092AA15F092AB150E944847609345
:10264000051470930614809307149093081468E09F
:1026500070E080E090E00E94DF018C019093A01474
:1026600080939F14C0900514D0900614E090071436
:10267000F090081420E030E04FE753E4C701B601C2
:102680000E94804518160CF449C1C092A513D0923F
:10269000A613E092A713F092A81320E030E0A9015E
:1026A0006091A5137091A6138091A7139091A81320
:1026B0000E94444787FF08C01092A5131092A613EA
:1026C0001092A7131092A8134091A5135091A6132E
:1026D0006091A7137091A813C8010E94BD01609179
:1026E000E5137091E6138091E7139091E813209120
:1026F0000D1430910E1440910F1450911014CC24ED
:10270000CA94DC2C7601C092A315D092A415E09255
:10271000A515F092A6150E9448479B01AC01209395
:1027200001143093021440930314509304146091E5
:1027300005147091061480910714909108140E945A
:102740001B459F776093491370934A1380934B13F3
:1027500090934C1369E070E080E090E00E94DF010C
:102760008C019093981480939714C0900114D0908A
:102770000214E0900314F090041420E030E04FE7DE
:1027800053E4C701B6010E94804518160CF4D3C06B
:10279000C092A513D092A613E092A713F092A813AB
:1027A00020E030E0A9016091A5137091A6138091FB
:1027B000A7139091A8130E94444787FF08C0109266
:1027C000A5131092A6131092A7131092A81340916C
:1027D000A5135091A6136091A7137091A813C80177
:1027E0000E94BD012091D5123091D6124091D7128E
:1027F0005091D8126091CD127091CE128091CF126B
:102800009091D0120E941B4560934D1370934E130C
:1028100080934F13909350132CEB35E149E154E131
:102820000E941506C0904D13D0904E13E0904F13A8
:10283000F0905013E894F7F8C0925113D0925213CD
:10284000E0925313F0925413209108023091090240
:1028500040910A0250910B02C701B6010E944847FD
:1028600020916C0330916D0340916E0350916F0382
:102870000E9448474B015C018092E9139092EA1351
:10288000A092EB13B092EC132091380230913902F0
:1028900040913A0250913B02C701B6010E9448475D
:1028A0002B013C012091191530911A1540911B15EF
:1028B00050911C15C501B4010E941B459B01AC0140
:1028C000C301B2010E941C454B015C01809255136B
:1028D00090925613A0925713B092581340907003E1
:1028E000509071036090720370907303A301920182
:1028F0000E944447181664F540925513509256139F
:10290000609257137092581333C080914513909181
:102910004613A0914713B091481359CE80E090E040
:10292000AFE7B3E48093A5139093A613A093A713E6
:10293000B093A813B2CE80E090E0AFE7B3E4809309
:10294000A5139093A613A093A713B093A81328CF11
:1029500040907403509075036090760370907703F5
:10296000A3019201C501B4010E94804587FDC4CF37
:10297000209178033091790340917A0350917B0341
:10298000C701B6010E94444718160CF0A2C18091FD
:10299000680390916903A0916A03B0916B038093DF
:1029A000A5139093A613A093A713B093A8132091F7
:1029B000A5133091A6134091A7135091A8136091CD
:1029C0007C0370917D0380917E0390917F030E9430
:1029D00048476093ED137093EE138093EF13909339
:1029E000F0132091191430911A1440911B14509136
:1029F0001C14CC24CA94DC2C7601C092B715D0925A
:102A0000B815E092B915F092BA150E944847609344
:102A100015147093161480931714909318146CE087
:102A200070E080E090E00E94DF018C019093B01490
:102A30008093AF14C0901514D0901614E090171422
:102A4000F090181420E030E04FE753E4C701B601DE
:102A50000E94804518160CF445C1C092A513D0926F
:102A6000A613E092A713F092A81320E030E0A9018A
:102A70006091A5137091A6138091A7139091A8134C
:102A80000E94444787FF08C01092A5131092A61316
:102A90001092A7131092A8134091A5135091A6135A
:102AA0006091A7137091A813C8010E94BD016091A5
:102AB000ED137091EE138091EF139091F01320912C
:102AC0001D1430911E1440911F1450912014CC24D9
:102AD000CA94DC2C7601C092B215D092B315E09264
:102AE000B415F092B5150E9448479B01AC012093A4
:102AF00011143093121440931314509314146091D2
:102B000015147091161480911714909118140E9446
:102B10001B459F776093591370935A1380935B13EF
:102B200090935C136DE070E080E090E00E94DF0124
:102B30008C019093A8148093A714C0901114D09086
:102B40001214E0901314F090141420E030E04FE7DA
:102B500053E4C701B6010E94804518160CF4CFC09B
:102B6000C092A513D092A613E092A713F092A813D7
:102B700020E030E0A9016091A5137091A613809127
:102B8000A7139091A8130E94444787FF08C0109292
:102B9000A5131092A6131092A7131092A813409198
:102BA000A5135091A6136091A7137091A813C801A3
:102BB0000E94BD012091BD123091BE124091BF1202
:102BC0005091C0126091B5127091B6128091B712F7
:102BD0009091B8120E941B4560935D1370935E1331
:102BE00080935F13909360132BEC35E149E254E13D
:102BF0000E941506C0905D13D0905E13E0905F13A5
:102C0000F0906013E894F7F8C0926113D0926213C9
:102C1000E0926313F092641320910C0230910D0244
:102C200040910E0250910F02C701B6010E94484721
:102C3000209184033091850340918603509187034E
:102C40000E9448476B837C838D839E8320913C0246
:102C500030913D0240913E0250913F02C701B601C2
:102C60000E9448474B015C0120911D1530911E15B3
:102C700040911F15509120156B817C818D819E8123
:102C80000E941B459B01AC01C501B4010E941C457B
:102C90004B015C018092651390926613A0926713BA
:102CA000B0926813409088035090890360908A0323
:102CB00070908B03A30192010E944447181664F59B
:102CC0004092651350926613609267137092681376
:102CD00033C08091551390915613A0915713B09122
:102CE00058135DCE80E090E0AFE7B3E48093A51386
:102CF0009093A613A093A713B093A813B6CE80E029
:102D000090E0AFE7B3E48093A5139093A613A0934C
:102D1000A713B093A8132CCF40908C0350908D0331
:102D200060908E0370908F03A3019201C501B401DE
:102D30000E94804587FDC4CF20919003309191037C
:102D40004091920350919303C701B6010E944447FA
:102D500018160CF096C18091800390918103A09188
:102D60008203B09183038093A5139093A613A0933D
:102D7000A713B093A8132091A5133091A6134091E7
:102D8000A7135091A81360919403709195038091BB
:102D90009603909197030E9448476B017C016091D4
:102DA000291470912A1480912B1490912C140FEFF8
:102DB0001FEF98010093C6151093C7152093C815EF
:102DC0003093C915A70196010E94484760932514C6
:102DD0007093261480932714909328146AE070E06F
:102DE00080E090E00E94DF018C019093C0148093FA
:102DF000BF148090251490902614A0902714B090B2
:102E0000281420E030E04FE753E4C501B4010E94EC
:102E1000804518160CF43EC18092A5139092A6131B
:102E2000A092A713B092A81320E030E0A90160910E
:102E3000A5137091A6138091A7139091A8130E94D7
:102E4000444787FF08C01092A5131092A613109252
:102E5000A7131092A8134091A5135091A613609147
:102E6000A7137091A813C8010E94BD0160912D1491
:102E700070912E1480912F14909130140FEF1FEF4A
:102E800098010093C1151093C2152093C315309378
:102E9000C415A70196010E9448479B01AC012093ED
:102EA00021143093221440932314509324146091DE
:102EB00025147091261480912714909128140E9453
:102EC0001B459F776093691370936A1380936B130C
:102ED00090936C136BE070E080E090E00E94DF0163
:102EE0008C019093B8148093B714C0902114D090A3
:102EF0002214E0902314F090241420E030E04FE7F7
:102F000053E4C701B6010E94804518160CF4CFC0E7
:102F1000C092A513D092A613E092A713F092A81323
:102F200020E030E0A9016091A5137091A613809173
:102F3000A7139091A8130E94444787FF08C01092DE
:102F4000A5131092A6131092A7131092A8134091E4
:102F5000A5135091A6136091A7137091A813C801EF
:102F60000E94BD012091A5123091A6124091A71296
:102F70005091A81260919D1270919E1280919F12A3
:102F80009091A0120E941B4560936D1370936E1375
:102F900080936F13909370132AED35E149E354E168
:102FA0000E941506C0906D13D0906E13E0906F13C1
:102FB000F0907013E894F7F8C0927113D0927213E6
:102FC000E0927313F0927413209110023091110269
:102FD0004091120250911302C701B6010E94484766
:102FE00020919C0330919D0340919E0350919F033B
:102FF0000E9448476F83788789879A87209140028B
:10300000309141024091420250914302C701B60102
:103010000E9448474B015C012091211530912215F7
:1030200040912315509124156F81788589859A8563
:103030000E941B459B01AC01C501B4010E941C45C7
:103040004B015C018092751390927613A0927713D6
:10305000B09278134090A0035090A1036090A20317
:103060007090A303A30192010E944447181664F5CF
:103070004092751350927613609277137092781382
:1030800033C08091651390916613A0916713B0913E
:10309000681369CE80E090E0AFE7B3E48093A513B6
:1030A0009093A613A093A713B093A813BDCE80E06E
:1030B00090E0AFE7B3E48093A5139093A613A09399
:1030C000A713B093A8132CCF4090A4035090A5034E
:1030D0006090A6037090A703A3019201C501B401FB
:1030E0000E94804587FDC4CF2091A8033091A90399
:1030F0004091AA035091AB03C701B6010E94444717
:1031000018160CF096C18091980390919903A091A4
:103110009A03B0919B038093A5139093A613A09359
:10312000A713B093A8132091A5133091A613409133
:10313000A7135091A8136091AC037091AD038091D7
:10314000AE039091AF030E9448474B015C01609130
:10315000391470913A1480913B1490913C140FEF04
:103160001FEF98010093D5151093D6152093D7150E
:103170003093D815A50194010E94484760933514F7
:1031800070933614809337149093381464E070E091
:1031900080E090E00E94DF017C019093D014809346
:1031A000CF144090351450903614609037147090BE
:1031B000381420E030E04FE753E4C301B2010E942D
:1031C000804518160CF43EC14092A5135092A613E8
:1031D0006092A7137092A81320E030E0A9016091DB
:1031E000A5137091A6138091A7139091A8130E9424
:1031F000444787FF08C01092A5131092A61310929F
:10320000A7131092A8134091A5135091A613609193
:10321000A7137091A813C7010E94BD0160913D14CE
:1032200070913E1480913F14909140140FEF1FEF66
:1032300098010093D0151093D1152093D215309397
:10324000D315A50194010E9448479B01AC0120932E
:1032500031143093321440933314509334146091EA
:1032600035147091361480913714909138140E945F
:103270001B459F776093791370937A1380937B1328
:1032800090937C1365E070E080E090E00E94DF01A5
:103290007C019093C8148093C7148090311490904F
:1032A0003214A0903314B090341420E030E04FE793
:1032B00053E4C501B4010E94804518160CF4CFC038
:1032C0008092A5139092A613A092A713B092A81370
:1032D00020E030E0A9016091A5137091A6138091C0
:1032E000A7139091A8130E94444787FF08C010922B
:1032F000A5131092A6131092A7131092A813409131
:10330000A5135091A6136091A7137091A813C7013C
:103310000E94BD0120918D1230918E1240918F122A
:10332000509190126091851270918612809187124F
:10333000909188120E941B4560937D1370937E13B9
:1033400080937F139093801329EE35E149E454E193
:103350000E941506C0907D13D0907E13E0907F13DD
:10336000F0908013E894F7F8C0928113D092821302
:10337000E0928313F092841320911402309115028D
:103380004091160250911702C701B6010E944847AA
:103390002091B4033091B5034091B6035091B70327
:1033A0000E9448476B877C878D879E8720914402C7
:1033B000309145024091460250914702C701B60143
:1033C0000E9448474B015C0120912515309126153C
:1033D00040912715509128156B857C858D859E859C
:1033E0000E941B459B01AC01C501B4010E941C4514
:1033F0004B015C018092851390928613A0928713F3
:10340000B09288134090B8035090B9036090BA030B
:103410007090BB03A30192010E944447181664F503
:10342000409285135092861360928713709288138E
:1034300033C08091751390917613A0917713B0915A
:10344000781369CE80E090E0AFE7B3E48093A513F2
:103450009093A613A093A713B093A813BDCE80E0BA
:1034600090E0AFE7B3E48093A5139093A613A093E5
:10347000A713B093A8132CCF4090BC035090BD036A
:103480006090BE037090BF03A3019201C501B40117
:103490000E94804587FDC4CF2091C0033091C103B5
:1034A0004091C2035091C303C701B6010E94444733
:1034B00018160CF0F0C28091B0039091B103A09166
:1034C000B203B091B3038093A5139093A613A09376
:1034D000A713B093A8132091A5133091A613409180
:1034E000A7135091A8136091C4037091C5038091F4
:1034F000C6039091C7030E9448474B015C0160914D
:10350000491470914A1480914B1490914C140FEF10
:103510001FEF98010093E4151093E5152093E6152D
:103520003093E715A50194010E9448476093451424
:1035300070934614809347149093481462E070E0AF
:1035400080E090E00E94DF017C019093E014809382
:10355000DF144090451450904614609047147090CA
:10356000481420E030E04FE753E4C301B2010E9469
:10357000804518160CF498C24092A5135092A613D9
:103580006092A7137092A81320E030E0A901609127
:10359000A5137091A6138091A7139091A8130E9470
:1035A000444787FF08C01092A5131092A6131092EB
:1035B000A7131092A8134091A5135091A6136091E0
:1035C000A7137091A813C7010E94BD0160914D140B
:1035D00070914E1480914F14909150140FEF1FEF83
:1035E00098010093DF151093E0152093E1153093B7
:1035F000E215A50194010E9448479B01AC0120936C
:1036000041143093421440934314509344146091F6
:1036100045147091461480914714909148140E946B
:103620001B459F776093891370938A1380938B1344
:1036300090938C1363E070E080E090E00E94DF01E3
:103640007C019093D8148093D7148090411490906B
:103650004214A0904314B090441420E030E04FE7AF
:1036600053E4C501B4010E94804518160CF429C228
:103670008092A5139092A613A092A713B092A813BC
:1036800020E030E0A9016091A5137091A61380910C
:10369000A7139091A8130E94444787FF08C0109277
:1036A000A5131092A6131092A7131092A81340917D
:1036B000A5135091A6136091A7137091A813C70189
:1036C0000E94BD018091C1139091C213A091C313B8
:1036D000B091C4138093E1149093E214A093E31487
:1036E000B093E4148091891290918A12A0918B1268
:1036F000B0918C128093E5149093E614A093E71494
:10370000B093E8148091C5139091C613A091C7138C
:10371000B091C8138093E9149093EA14A093EB142A
:10372000B093EC148091A1129091A212A091A312D7
:10373000B091A4128093ED149093EE14A093EF1423
:10374000B093F0148091C9139091CA13A091CB1338
:10375000B091CC138093F1149093F214A093F314CE
:10376000B093F4148091B9129091BA12A091BB1247
:10377000B091BC128093F5149093F614A093F714B3
:10378000B093F8148091CD139091CE13A091CF13E4
:10379000B091D0138093F9149093FA14A093FB1472
:1037A000B093FC148091D1129091D212A091D312B7
:1037B000B091D4128093FD149093FE14A093FF1443
:1037C000B09300158091D1139091D213A091D3138F
:1037D000B091D4138093011590930215A093031513
:1037E000B09304158091E9129091EA12A091EB1226
:1037F000B091EC128093051590930615A0930715D0
:10380000B09308158091D5139091D613A091D7133A
:10381000B091D8138093091590930A15A0930B15B6
:10382000B0930C158091011390910213A091031392
:10383000B091041380930D1590930E15A0930F155E
:10384000B09310158091D9139091DA13A091DB13E6
:10385000B091DC138093111590931215A09313155A
:10386000B09314158091E1139091E213A091E313AA
:10387000B091E4138093151590931615A093171526
:10388000B09318158091E9139091EA13A091EB136E
:10389000B091EC138093191590931A15A0931B15F2
:1038A000B0931C158B819C81AD81BE8180931D15C9
:1038B00090931E15A0931F15B09320158F819885A6
:1038C000A985BA858093211590932215A09323157D
:1038D000B09324158B859C85AD85BE858093251579
:1038E00090932615A0932715B09328156091530740
:1038F0007091540780915507909156070E94B845E2
:1039000020E030E040E85FE40E9448476B017C0122
:1039100060914F0770915007809151079091520725
:103920000E94B8459B01AC01C701B6010E941C452D
:1039300020E030E0A9010E941C450E948C45AB01AB
:10394000BC0181E090E00E94BC04C0904307D0908D
:103950004407E0904507F09046079FEFC91AD90A3F
:10396000E90AF90AC0924307D0924407E09245075A
:10397000F0924607C114D104E104F10499F4809156
:10398000470790914807A0914907B0914A070196CF
:10399000A11DB11D8093470790934807A093490745
:1039A000B0934A0780904B0790904C07A0904D072A
:1039B000B0904E0700915E0710915F076091470736
:1039C000709148078091490790914A070E94B84535
:1039D000A50194010E94484720E030E040E85FE400
:1039E0000E9448472B013C01C701B6010E94B8451F
:1039F000A50194010E9448479B01AC01C301B2019B
:103A00000E941C45D8016D937D938D939C931397D1
:103A100080914F0790915007A0915107B0915207A4
:103A20000196A11DB11D80934F0790935007A0935D
:103A30005107B0935207892B8A2B8B2B99F48091D5
:103A4000530790915407A0915507B09156070196DE
:103A5000A11DB11D8093530790935407A093550760
:103A6000B093560768960FB6F894DEBF0FBECDBF71
:103A7000DF91CF911F910F91FF90EF90DF90CF904A
:103A8000BF90AF909F908F907F906F905F904F907E
:103A90003F902F9008958091851390918613A09167
:103AA0008713B09188130FCD80E090E0AFE7B3E4C7
:103AB0008093A5139093A613A093A713B093A81374
:103AC00063CD80E090E0AFE7B3E48093A5139093DB
:103AD000A613A093A713B093A813D2CD4F925F92D1
:103AE0006F927F928F929F92AF92BF92CF92DF920E
:103AF000EF92FF920F931F93CF93DF9384E090E0B8
:103B00000E946B05E8EAF6E080ECDF011D928A95E1
:103B1000E9F78BE597E097838683CEE5D7E0D093EE
:103B2000E906C093E8060BE417E0158B048BF093CD
:103B30001307E0931207F583E48321E030E0DC0112
:103B40002D933C9384E095E09387828780E697E00D
:103B50009983888340E050E060E87FEB409357070B
:103B6000509358076093590770935A074AE057EDEE
:103B700063E27CE3D8014D935D936D937C9313973F
:103B8000C1E3D7E083E49DE5A0E0BEE888839983A4
:103B9000AA83BB8388E693ECADEEB1E8809335074A
:103BA00090933607A0933707B093380786E391E2E6
:103BB000A8E5BCE68093390790933A07A0933B07AA
:103BC000B0933C0784E59AE8ADEFB8E980933D07F0
:103BD00090933E07A0933F07B0934007ACE9B6E04F
:103BE000B383A283ECE3F6E01196FC93EE9386E1B7
:103BF00095E09183808393838283958384839783E5
:103C00008683918780879387828795878487978724
:103C10008687918B808B938B828B958B848B978BF4
:103C2000868B918F808F938F828F958F848F978FC4
:103C3000868F91A380A393A382A395A384A397A324
:103C400086A391A780A793A782A795A784A797A7E4
:103C500086A791AB80AB93AB82AB95AB84AB97ABB4
:103C600086AB91AF80AF93AF82AF95AF84AF97AF84
:103C700086AF90937D0680937C0690937F06809319
:103C80007E069093810680938006909383068093AE
:103C9000820690938506809384069093870680938E
:103CA0008606909389068093880690938B0680936E
:103CB0008A0690938D0680938C0690938F0680934E
:103CC0008E0690939106809390069093930680932E
:103CD000920690939506809394069093970680930E
:103CE0009606909399068093980690939B068093EE
:103CF0009A0681E497E015969C938E9314971396F9
:103D0000DC93CE93129788248A94982C54011896A9
:103D10008D929D92AD92BC921B97E1EFF1E180E60E
:103D200092E0DF019C011D9221503040E1F791E5C6
:103D3000C92E94E1D92E8DE991E0D601FC011D92A6
:103D40003197E9F7C1E0C0939215412C512C320113
:103D50004394D60199964D925D926D927C929C9778
:103D600066E370E080E090E00E948F01F60197A783
:103D700086A7C5A710A2C0938F1541A252A263A225
:103D800074A26BE370E080E090E00E948F01F60186
:103D900097A386A3C5A3108EC0938C15418E528E17
:103DA000638E748E6AE370E080E090E00E948F0181
:103DB000F601978F868FC58F108AC0938915418A27
:103DC000528A638A748A69E370E080E090E00E941E
:103DD0008F01F601978B868BC58B1086C093861555
:103DE000418652866386748668E370E080E090E0E6
:103DF0000E948F01F60197878687C5871082C0933E
:103E00008315418252826382748267E370E080E0AE
:103E100090E00E948F01F60197838683C58310AEE0
:103E2000C093821541AE52AE63AE74AEE12CF12C5C
:103E30008701A801970166E070E080E090E00E94B1
:103E40002302F60197AF86AFC5AF10AAC0938115C4
:103E500041AA52AA63AA74AAA801970167E070E078
:103E600080E090E00E942302F60197AB86ABC5ABE1
:103E700010929914C093851540929A1450929B14F5
:103E800060929C1470929D14A801970168E070E004
:103E900080E090E00E9423029093A01480939F14EE
:103EA000C0939E1410929114C09384154092921462
:103EB000509293146092941470929514A8019701F3
:103EC00069E070E080E090E00E94230290939814F3
:103ED00080939714C09396141092A914C0938815D8
:103EE0004092AA145092AB146092AC147092AD142C
:103EF000A80197016CE070E080E090E00E9423024E
:103F00009093B0148093AF14C093AE141092A11488
:103F1000C09387154092A2145092A3146092A414E7
:103F20007092A514A80197016DE070E080E090E028
:103F30000E9423029093A8148093A714C093A61400
:103F40001092B914C0938B154092BA145092BB14BE
:103F50006092BC147092BD14A80197016AE070E0F1
:103F600080E090E00E9423029093C0148093BF14DD
:103F7000C093BE141092B114C0938A154092B2142B
:103F80005092B3146092B4147092B514A8019701C2
:103F90006BE070E080E090E00E9423029093B81400
:103FA0008093B714C093B6141092C914C0938E15A1
:103FB0004092CA145092CB146092CC147092CD14DB
:103FC000A801970164E070E080E090E00E94230285
:103FD0009093D0148093CF14C093CE141092C11438
:103FE000C0938D154092C2145092C3146092C414B1
:103FF0007092C514A801970165E070E080E090E040
:104000000E9423029093C8148093C714C093C614CF
:104010001092D914C09391154092DA145092DB1487
:104020006092DC147092DD14A801970162E070E0E8
:1040300080E090E00E9423029093E0148093DF14CC
:10404000C093DE141092D114C09390154092D214F4
:104050005092D3146092D4147092D514A801970191
:1040600063E070E080E090E00E9423029093D81417
:104070008093D714C093D614E0E0F2E080919402CC
:1040800090919502A0919602B09197028093E114CD
:104090009093E214A093E314B093E4148091A002EF
:1040A0009091A102A091A202B091A3028093E51485
:1040B0009093E614A093E714B093E8148091B002B3
:1040C0009091B102A091B202B091B3028093E91431
:1040D0009093EA14A093EB14B093EC148091BC027B
:1040E0009091BD02A091BE02B091BF028093ED14E9
:1040F0009093EE14A093EF14B093F0148091CC023F
:104100009091CD02A091CE02B091CF028093F11494
:104110009093F214A093F314B093F4148091D80206
:104120009091D902A091DA02B091DB028093F5144C
:104130009093F614A093F714B093F8148091E802CA
:104140009091E902A091EA02B091EB028093F914F8
:104150009093FA14A093FB14B093FC148091F40292
:104160009091F502A091F602B091F7028093FD14B0
:104170009093FE14A093FF14B09300158091040354
:1041800090910503A0910603B09107038093011558
:1041900090930215A0930315B0930415809110031A
:1041A00090911103A0911203B09113038093051510
:1041B00090930615A0930715B093081580912003DE
:1041C00090912103A0912203B091230380930915BC
:1041D00090930A15A0930B15B0930C1580912C03A6
:1041E00090912D03A0912E03B0912F0380930D1574
:1041F00090930E15A0930F15B0931015808D918D8F
:10420000A28DB38D8093111590931215A093131561
:10421000B0931415848D958DA68DB78D809315154B
:1042200090931615A0931715B093181580A191A11E
:10423000A2A1B3A18093191590931A15A0931B15F1
:10424000B0931C1584A195A1A6A1B7A180931D15BB
:1042500090931E15A0931F15B093201580A591A5CE
:10426000A2A5B3A58093211590932215A0932315A1
:10427000B093241584A595A5A6A5B7A5809325156B
:1042800090932615A0932715B093281580927D153D
:1042900090927E15A0927F15B092801580929E1507
:1042A00090929F15A092A015B092A1158092991599
:1042B00090929A15A0929B15B0929C15809294159D
:1042C00090929515A0929615B09297158092AD1583
:1042D0009092AE15A092AF15B092B0158092A8152D
:1042E0009092A915A092AA15B092AB158092A31531
:1042F0009092A415A092A515B092A6158092BC1517
:104300009092BD15A092BE15B092BF158092B715C0
:104310009092B815A092B915B092BA158092B215C4
:104320009092B315A092B415B092B5158092CB15AA
:104330009092CC15A092CD15B092CE158092C61554
:104340009092C715A092C815B092C9158092C11558
:104350009092C215A092C315B092C4158092DA153E
:104360009092DB15A092DC15B092DD158092D515E8
:104370009092D615A092D715B092D8158092D015EC
:104380009092D115A092D215B092D3158092E915D2
:104390009092EA15A092EB15B092EC158092E4157C
:1043A0009092E515A092E615B092E7158092DF1580
:1043B0009092E015A092E115B092E215DF91CF91B5
:1043C0001F910F91FF90EF90DF90CF90BF90AF9033
:1043D0009F908F907F906F905F904F900895809105
:1043E000791481111FC081E08093791480917A142F
:1043F00090917B14A0917C14B0917D140197A1053C
:10440000B10581F480917E14882361F066E370E049
:1044100080E090E00E944B019093801480937F1481
:104420000E94B2018091711481111FC081E08093BC
:1044300071148091721490917314A0917414B091BE
:1044400075140197A105B10581F480917614882334
:1044500061F06BE370E080E090E00E944B0190938C
:104460007814809377140E94B201809169148111AD
:104470001FC081E08093691480916A1490916B143D
:10448000A0916C14B0916D140197A105B10581F450
:1044900080916E14882361F06AE370E080E090E020
:1044A0000E944B019093701480936F140E94B2018C
:1044B0008091611481111FC081E08093611480910B
:1044C000621490916314A0916414B09165140197E3
:1044D000A105B10581F480916614882361F069E338
:1044E00070E080E090E00E944B019093681480930C
:1044F00067140E94B2018091591481111FC081E09C
:104500008093591480915A1490915B14A0915C147B
:10451000B0915D140197A105B10581F480915E14FD
:10452000882361F068E370E080E090E00E944B0136
:104530009093601480935F140E94B2018091511493
:1045400081111FC081E08093511480915214909189
:104550005314A0915414B09155140197A105B105BD
:1045600081F480915614882361F067E370E080E065
:1045700090E00E944B0190935814809357140E942E
:10458000B2018091891481112EC081E08093891439
:1045900080918A1490918B14A0918C14B0918D14F9
:1045A0000197A105B105F9F480918E148823D9F003
:1045B00066E070E080E090E00E94DF01909390144C
:1045C00080938F1440E050E0BA010E94BD0166E084
:1045D00070E080E090E00E94DF019093901480935F
:1045E0008F140E946E028091811481112EC081E08F
:1045F000809381148091821490918314A0918414EB
:10460000B09185140197A105B105F9F48091861444
:104610008823D9F067E070E080E090E00E94DF013D
:10462000909388148093871440E050E0BA010E9470
:10463000BD0167E070E080E090E00E94DF019093B0
:104640008814809387140E946E02809199148111BE
:104650002EC081E08093991480919A1490919B14BC
:10466000A0919C14B0919D140197A105B105F9F496
:1046700080919E148823D9F068E070E080E090E09B
:104680000E94DF019093A01480939F1440E050E0BB
:10469000BA010E94BD0168E070E080E090E00E94F5
:1046A000DF019093A01480939F140E946E0280916A
:1046B000911481112EC081E0809391148091921405
:1046C00090919314A0919414B09195140197A10521
:1046D000B105F9F4809196148823D9F069E070E06F
:1046E00080E090E00E94DF019093981480939714EB
:1046F00040E050E0BA010E94BD0169E070E080E056
:1047000090E00E94DF0190939814809397140E9488
:104710006E028091A91481112EC081E08093A914AA
:104720008091AA149091AB14A091AC14B091AD14E7
:104730000197A105B105F9F48091AE148823D9F051
:104740006CE070E080E090E00E94DF019093B01494
:104750008093AF1440E050E0BA010E94BD016CE0CC
:1047600070E080E090E00E94DF019093B0148093AD
:10477000AF140E946E028091A11481112EC081E0BD
:104780008093A1148091A2149091A314A091A414D9
:10479000B091A5140197A105B105F9F48091A61473
:1047A0008823D9F06DE070E080E090E00E94DF01A6
:1047B0009093A8148093A71440E050E0BA010E949F
:1047C000BD016DE070E080E090E00E94DF01909319
:1047D000A8148093A7140E946E028091B9148111CD
:1047E0002EC081E08093B9148091BA149091BB14CB
:1047F000A091BC14B091BD140197A105B105F9F4C5
:104800008091BE148823D9F06AE070E080E090E0E7
:104810000E94DF019093C0148093BF1440E050E0E9
:10482000BA010E94BD016AE070E080E090E00E9461
:10483000DF019093C0148093BF140E946E02809198
:10484000B11481112EC081E08093B1148091B21413
:104850009091B314A091B414B091B5140197A1052F
:10486000B105F9F48091B6148823D9F06BE070E0BB
:1048700080E090E00E94DF019093B8148093B71419
:1048800040E050E0BA010E94BD016BE070E080E0C2
:1048900090E00E94DF019093B8148093B7140E94B7
:1048A0006E028091C91481112EC081E08093C914D9
:1048B0008091CA149091CB14A091CC14B091CD14D6
:1048C0000197A105B105F9F48091CE148823D9F0A0
:1048D00064E070E080E090E00E94DF019093D014EB
:1048E0008093CF1440E050E0BA010E94BD0164E023
:1048F00070E080E090E00E94DF019093D0148093FC
:10490000CF140E946E028091C11481112EC081E0EB
:104910008093C1148091C2149091C314A091C414C7
:10492000B091C5140197A105B105F9F48091C614A1
:104930008823D9F065E070E080E090E00E94DF011C
:104940009093C8148093C71440E050E0BA010E94CD
:10495000BD0165E070E080E090E00E94DF0190938F
:10496000C8148093C7140E946E028091D9148111DB
:104970002EC081E08093D9148091DA149091DB14D9
:10498000A091DC14B091DD140197A105B105F9F4F3
:104990008091DE148823D9F062E070E080E090E03E
:1049A0000E94DF019093E0148093DF1440E050E018
:1049B000BA010E94BD0162E070E080E090E00E94D8
:1049C000DF019093E0148093DF140E946E028091C7
:1049D000D11481112EC081E08093D1148091D21422
:1049E0009091D314A091D414B091D5140197A1053E
:1049F000B105F9F48091D6148823D9F063E070E012
:104A000080E090E00E94DF019093D8148093D71447
:104A100040E050E0BA010E94BD0163E070E080E038
:104A200090E00E94DF019093D8148093D7140C94E7
:104A30006E0208954F925F926F927F928F929F9233
:104A4000AF92BF92CF92DF92EF92FF920F931F939C
:104A5000F8944090740750907507609076077090B6
:104A60007707C0906807D0906907E0906A07F090D8
:104A70006B074130510509F0A4C09B01AC0124191A
:104A800035094609570929013A010091700710912B
:104A90007107209172073091730748015901840C06
:104AA000951CA61CB71C80169106A206B306A0F49E
:104AB00000916C0710916D0720916E0730916F0780
:104AC0000F5F1F4F2F4F3F4F00936C0710936D07E1
:104AD00020936E0730936F07809270079092710752
:104AE000A0927207B092730700916C0710916D0746
:104AF00020916E0730916F07809278079092790726
:104B0000A0927A07B0927B0700937C0710937D07F1
:104B100020937E0730937F07609374077093750727
:104B20008093760790937707A0E1B7E2A301920103
:104B30000E94D24E6C0D7D1D8E1D9F1D60936807D7
:104B40007093690780936A0790936B070091DA046A
:104B50001091DB042091DC043091DD040F3F1F4FE6
:104B60002F4F3F4FF1F00091DA041091DB042091B8
:104B7000DC043091DD040E3F1F4F2F4F3F4F89F073
:104B8000C090DA04D090DB04E090DC04F090DD0407
:104B900021E08C149D04AE04BF0408F420E02093AF
:104BA0008C0778941F910F91FF90EF90DF90CF903A
:104BB000BF90AF909F908F907F906F905F904F903D
:104BC00008954B015C0184189508A608B708A30155
:104BD0009201261B370B480B590B6415750586058A
:104BE0009705D0F082169306A406B50640F420E09F
:104BF00030E0A90181149104A104B10491F4A0E171
:104C0000B7E20E94D24EA7019601261B370B480B34
:104C1000590BCA01B901C5CF82169306A406B50681
:104C200070F7A0E1B7E2A50194010E94D24E6C0D8D
:104C30007D1D8E1D9F1DB5CFFDCECF93DF9300D080
:104C40001F92CDB7DEB71C821B821A821982109286
:104C500088071092890710928A0710928B0710928A
:104C6000800710928107109282071092830710929A
:104C70008407109285071092860710928707BE015D
:104C80006F5F7F4FCE0103960E94304369817A8126
:104C90008B819C810E941C3C009761F4BE016F5F78
:104CA0007F4FCE0103960E943C4369817A818B81BC
:104CB0009C812BD50F900F900F900F90DF91CF918B
:104CC0000895FF920F931F93CF93DF93082F60E017
:104CD00070E0CB010E949F48FF24F3940E94053BA3
:104CE000EC01892B89F010E0CE3F8FEFD80769F0F7
:104CF000002361F160E070E0CB010E949F4881E0F9
:104D000090E0892B59F322C011E022D5EC01892BC8
:104D100021F0CE3F8FEFD80759F711111EC011E0D7
:104D2000229609F410E00E94B53AEC01892B21F09B
:104D3000CE3F8FEFD807E1F6111111C011E0CE3F41
:104D40008FEFD80709F410E001110BC0CE01DF91FD
:104D5000CF911F910F91FF90089511E0E4CF11E0E2
:104D6000F3CF60E070E0CB010E949F481F25812FA8
:104D700090E0C7CFCF93DF9380918C07882321F0F9
:104D800060E070E0CB0149D632D6D0E0C0E0892B9C
:104D900071F06AE070E080E090E00E949F4881E05E
:104DA00090DF25D62196C03727E1D20781F724D698
:104DB0000E94703C1092A4071092A30710929D07C6
:104DC00010929E0710929F071092A00710929907C9
:104DD00010929A0710929B0710929C0710929507C9
:104DE00010929607109297071092980710929107C9
:104DF00010929207109293071092940710928D07C9
:104E000010928E0710928F07109290074EEF5FEF6F
:104E10006FEF7FEF4093DA045093DB046093DC0480
:104E20007093DD0410928C07E8E7F7E028E0DF01DB
:104E30001D922A95E9F71092740710927507109247
:104E400076071092770710927007109271071092F0
:104E500072071092730710926C0710926D071092F0
:104E60006E0710926F0710926807109269071092F0
:104E70006A0710926B07DF91CF9108951092B007E7
:104E80001092B1071092B2071092B3071092AF07B9
:104E90008091B8079091B9079093AE078093AD07C2
:104EA0001092AC071092AB071092A7071092A807B8
:104EB0001092A9071092AA071092B5071092B40792
:104EC00090E080E00895CF92DF92EF92FF920F93EF
:104ED0001F93CF938C01019709F055C02091B8071B
:104EE0003091B9078091AD079091AE074091B80716
:104EF0005091B9075093AE074093AD072817390773
:104F000081F01092AC071092AB071092A707109295
:104F1000A8071092A9071092AA071092B50710923D
:104F2000B4078091B8079091B907019761F5809116
:104F3000B4079091B507892B21F48091DE0481118B
:104F400012C08091B4079091B5070197E1F4809168
:104F5000A7079091A807A091A907B091AA07019768
:104F6000A105B10581F41092A7071092A80710922D
:104F7000A9071092AA071092DE0482E090E09093B5
:104F8000B5078093B4078091B8079091B90701974E
:104F900009F01CC18091CE079091CF07801791072F
:104FA00009F014C18091CA079091CB07A091CC075A
:104FB000B091CD07009709F409C12091C9072111CB
:104FC0000DC04091CA075091CB076091CC077091FA
:104FD000CD07452B462B472B09F4F8C02091B40789
:104FE0003091B5072230310509F0F0C02091AB07B0
:104FF0002111ECC0FC01C080D180E280F38080915F
:10500000AF07882309F4D3C08091BB079091BC07F8
:10501000892B09F4FEC02091BB073091BC0781E0C9
:105020002230310509F080E02091BB073091BC07A8
:10503000C1E02130310549F02091BB073091BC0718
:10504000C1E02230310509F0C0E0882309F456C0E0
:105050002091C5073091C6074091C7075091C807F6
:10506000C701B6010E94444787FD14C02091C507BF
:105070003091C6074091C7075091C8076091B007AB
:105080007091B1078091B2079091B3070E9480455B
:1050900087FD22C02091C5073091C6074091C70700
:1050A0005091C807C701B6010E944447181634F54D
:1050B0002091C5073091C6074091C7075091C80796
:1050C0006091B0077091B1078091B2079091B307DA
:1050D0000E948045811112C08091BD079091BE074A
:1050E000A091BF07B091C007892B8A2B8B2B19F495
:1050F00081E08093AC0781E08093AB07CC2309F477
:1051000056C02091C5073091C6074091C7075091FE
:10511000C807C701B6010E94804587FF14C02091CF
:10512000C5073091C6074091C7075091C8076091E5
:10513000B0077091B1078091B2079091B3070E94B8
:10514000444787FF22C02091C5073091C607409190
:10515000C7075091C807C701B6010E948045811159
:1051600026C02091C5073091C6074091C7075091CE
:10517000C8076091B0077091B1078091B207909114
:10518000B3070E944447181694F48091BD0790918C
:10519000BE07A091BF07B091C007892B8A2B8B2B2C
:1051A00019F481E08093AC0781E08093AB0781E044
:1051B0009091AB07911180E08093AF07C092B00748
:1051C000D092B107E092B207F092B3070130110517
:1051D00009F067C18091B4079091B507892BD9F484
:1051E0001092BA071092AB078091DE04882379F001
:1051F00082E090E09093B5078093B4071092DE04AC
:105200002091B8073091B90781E0232BE9F080E0C5
:105210001BC081E009CF1092DE048091BA07882379
:1052200049F01092AC071092B5071092B407109293
:10523000BA07EDCF8091B8079091B907892BE1F0BB
:105240008091AB071092AB072091B4073091B5075E
:105250002230310509F45EC088F42115310509F4C6
:1052600048C02130310509F4F3C01092AC07109208
:10527000AB071092BA0738C081E0E6CF2330310582
:1052800009F4B1C02430310581F74091A70750914E
:10529000A8076091A9077091AA07411551056105FA
:1052A000710561F041505109610971094093A707E7
:1052B0005093A8076093A9077093AA074091A70786
:1052C0005091A8076091A9077091AA07452B462B1A
:1052D000472BD9F42091B6073091B707213031051B
:1052E00009F046C01092AC071092B5071092B407AF
:1052F0000CC08091DE04882341F082E090E090931E
:10530000B5078093B4071092DE041092A507809130
:10531000AC07CEC08823C9F38091BD079091BE072A
:10532000A091BF07B091C007181619061A061B06F0
:105330000CF07DC08091B8079091B907019709F0F2
:1053400076C08091BD079091BE07A091BF07B09134
:10535000C0078093A7079093A807A093A907B093CD
:10536000AA0783E090E09093B5078093B407CDCF70
:105370004091C1075091C2076091C3077091C40763
:10538000452B462B472BA9F01092AC078091C10703
:105390009091C207A091C307B091C4078093A7075B
:1053A0009093A807A093A907B093AA0781E090E083
:1053B000DACF882399F08091DF049091E004A091E6
:1053C000E104B091E2048093A7079093A807A0930B
:1053D000A907B093AA0784E090E0C5CF1092AC076C
:1053E00082E090E0C0CF8091A7079091A807A0919C
:1053F000A907B091AA070097A105B10559F0019737
:10540000A109B1098093A7079093A807A093A907C2
:10541000B093AA078091A7079091A807A091A90728
:10542000B091AA07892B8A2B8B2B09F06ECF809124
:10543000DF049091E004A091E104B091E204892B93
:105440008A2B8B2B09F44ECF81E08093AC07B3CF2E
:105450004091A7075091A8076091A9077091AA07EA
:10546000411551056105710561F04150510961090E
:1054700071094093A7075093A8076093A9077093F9
:10548000AA074091A7075091A8076091A9077091BA
:10549000AA07452B462B472B09F037CF8111C7CFE1
:1054A0009FCF8091A507882309F431CF8091A6076B
:1054B000CF911F910F91FF90EF90DF90CF900895C3
:1054C0001092B0071092B1071092B2071092B30772
:1054D0001092AF071092B5071092B4071092AE0762
:1054E0001092AD071092CF071092CE071092AC0722
:1054F0001092AB071092A7071092A8071092A90765
:105500001092AA071092A6071092A5071092CA0738
:105510001092CB071092CC071092CD071092C907BA
:105520001092C5071092C6071092C7071092C807BD
:1055300088EE93E0A0E0B0E08093DF049093E00475
:10554000A093E104B093E2041092C1071092C20745
:105550001092C3071092C4071092BD071092BE07A5
:105560001092BF071092C0071092BC071092BB07A1
:1055700081E08093DE041092BA071092B90710926E
:10558000B8071092B7071092B60790E080E0089530
:105590008091B8079091B907892BE1F48091DE04DE
:1055A000882351F08091BA07811106C081E0809371
:1055B000A6078093A50708958091BA07882341F034
:1055C0008091DE04811104C01092A60781E0F1CF22
:1055D0001092A507089582E090E0FA0191838083FC
:1055E0008FEF9FEF0895CF93DF93EA01009711F0BB
:1055F0000E94903D1982188290E080E0DF91CF9167
:105600000895DB01009719F48FEF8C9308952EEF26
:105610002C93FC017096E031F10508F037C0882723
:10562000EB5EF44D8F4F0C94CA4E442B422B402B13
:105630003E2B3C2B3A2B362B382B342B322B302B5A
:105640002D2B292B252B2B2B462B80E311968C936E
:10565000089589E2FBCF82E2F9CF11961C9208955A
:1056600083E2F4CF81E2F2CF81E1F0CF87E2EECFA7
:105670008AE2ECCF80E1EACF84E2E8CF88E2E6CFAD
:1056800086E2E4CF81E3E2CF83E3E0CF80E2DECFC6
:105690008091DC079091DD0708959093DD0780935A
:1056A000DC0708958091DB0708959091DB07892B33
:1056B0008093DB070895982F90958091DB078923CD
:1056C0008093DB0708958091DA0708958091D807C9
:1056D0009091D90708956115710559F0FB0130E0EB
:1056E00020E070E060E02417350719F061157105BE
:1056F00011F0CB010895A081B181A817B90709F471
:10570000BF012F5F3F4F3696EECF8091DE078111AC
:105710001CC060D266D29093D1078093D0070E94BC
:105720008E350E94A0359093D5078093D4070E94B0
:105730001D3A0E94243A9093D3078093D20781E0C8
:105740008093DE0790E080E0089584EF9FEF089556
:105750008F929F92AF92BF92CF92DF92EF92FF9281
:105760000F931F93CF93DF9300D000D000D01F92F0
:10577000CDB7DEB71A86198618861F821E821D8253
:105780001C821B821A8219828091DE0707EF1FEFAD
:10579000882309F49CC08E010D5F1F4F9E012B5F73
:1057A0003F4FAE01495F5F4FBE01675F7F4F90E0A3
:1057B00080E00E94A13B8C01009721F005960297A2
:1057C00008F0DBC029853A852115310509F402C1AD
:1057D000ED80FE804B815C81B701640F751F8F8166
:1057E00098858617970708F4F5C0E20EF31ED701D7
:1057F0009C91903C09F07FC04230510508F47BC079
:1058000011968C914091DC075091DD07452B09F4EE
:105810009CC0913F08F071C02CE1290F2D3008F495
:105820008BC02DE2290F203108F489C0903C21F46F
:105830008150823008F483C088E3890F8B3008F4EC
:1058400081C091E0C92E9BE2D92EEBEEFAE26D8188
:105850007E81AE014F5F5F4F89859A8519955C0106
:10586000C114D104A1F189809A808114910479F145
:105870008B819C818815990508F487C010E000E0B1
:105880004B815C8170E060E0C7010E94F44E01151D
:105890001105E9F449815A8169857A858D819E8156
:1058A000680F791FC501F6011995E980FA800D810D
:1058B0001E812F81388549855A856FEF7FEF81E002
:1058C00090E00E943C3B8C01892B09F056C0C80136
:1058D0002A960FB6F894DEBF0FBECDBFDF91CF91F1
:1058E0001F910F91FF90EF90DF90CF90BF90AF90FE
:1058F0009F908F90089580E085CF30E020E0220FC8
:10590000331FF901E053F84F0190F081E02D3097FB
:1059100009F497CF892F90E01995009709F491CF5A
:10592000DC011296ED91FC9113971496CD90DC90CA
:10593000309709F08CCF1FC021E030E0E0CF22E0AB
:1059400030E0DDCF23E030E0DACFD12CC12CE3EF23
:10595000FAE29F3F09F07BCFE091D007F091D107A9
:10596000309721F4C90104EF1FEF0CC08FEF90E0D6
:1059700019950097A9F604EF1FEF89859A8500977E
:1059800009F4A5CF0E94903DA2CF0E946B3C8C01F0
:1059900089859A850E94903D70E060E0C4010E9474
:1059A000043C98878F830E94393B9E838D836F814F
:1059B00078856115710559F0C8010E941C3F9A87CE
:1059C000898706EF1FEF892B09F058CF59CF08EFD1
:1059D0001FEF56CF08EF1FEFD0CF2091DE07222315
:1059E00019F020E00C94A53587EF9FEF0895809182
:1059F000DC079091DD0708950E94293A0E948339BF
:105A0000F5D0E0EDF7E088E0DF011D928A95E9F737
:105A10001092DE0790E080E008950C94E13721E0D9
:105A200040E050E0BA010C94A53586E090E0FA0120
:105A30009183808390E080E0089547E050E069E43E
:105A400075E049CEDF92EF92FF920F931F93CF93B1
:105A5000DF938A01EC01C60FD71FE090E207F090B8
:105A6000E307D9800E94533CD816190678F082E0EB
:105A700090E0F801918380838EEF9FEFDF91CF91CB
:105A80001F910F91FF90EF90DF900895EF2841F460
:105A900082E090E0F8019183808384EF9FEFEECF66
:105AA00089818093E10790E00196F80191838083DA
:105AB00090E080E0E3CFCF93DF93EA010E94923839
:105AC000882321F00E94603C0E94933882E090E09D
:105AD000998388838BEF9FEFDF91CF910895CF93C8
